{
  "contractName": "BravoLibrary",
  "abi": [
    {
      "inputs": [
        {
          "internalType": "uint256",
          "name": "balance",
          "type": "uint256"
        }
      ],
      "name": "calculateUnits",
      "outputs": [
        {
          "internalType": "string",
          "name": "returnBalance",
          "type": "string"
        },
        {
          "internalType": "string",
          "name": "unitName",
          "type": "string"
        }
      ],
      "stateMutability": "pure",
      "type": "function",
      "constant": true
    },
    {
      "inputs": [
        {
          "internalType": "uint256",
          "name": "_modulus",
          "type": "uint256"
        },
        {
          "internalType": "uint256",
          "name": "_seed",
          "type": "uint256"
        },
        {
          "internalType": "uint256",
          "name": "_salt",
          "type": "uint256"
        }
      ],
      "name": "randomNum",
      "outputs": [
        {
          "internalType": "uint256",
          "name": "",
          "type": "uint256"
        }
      ],
      "stateMutability": "view",
      "type": "function",
      "constant": true
    },
    {
      "inputs": [
        {
          "components": [
            {
              "internalType": "uint256",
              "name": "tokenId",
              "type": "uint256"
            },
            {
              "internalType": "uint256",
              "name": "color1",
              "type": "uint256"
            },
            {
              "internalType": "string",
              "name": "comp2Color1",
              "type": "string"
            },
            {
              "internalType": "string",
              "name": "rank",
              "type": "string"
            },
            {
              "internalType": "string",
              "name": "bravoBoost",
              "type": "string"
            },
            {
              "internalType": "string",
              "name": "codeName",
              "type": "string"
            },
            {
              "internalType": "string",
              "name": "returnBalance",
              "type": "string"
            },
            {
              "internalType": "string",
              "name": "unitName",
              "type": "string"
            }
          ],
          "internalType": "struct BravoLibrary.Stack2deep",
          "name": "stack2deep",
          "type": "tuple"
        }
      ],
      "name": "renderSVG",
      "outputs": [
        {
          "internalType": "string",
          "name": "",
          "type": "string"
        }
      ],
      "stateMutability": "view",
      "type": "function",
      "constant": true
    },
    {
      "inputs": [
        {
          "internalType": "uint256",
          "name": "tokenId",
          "type": "uint256"
        },
        {
          "internalType": "string",
          "name": "rank",
          "type": "string"
        },
        {
          "internalType": "string",
          "name": "bravoBoost",
          "type": "string"
        },
        {
          "internalType": "string",
          "name": "codeName",
          "type": "string"
        },
        {
          "internalType": "string",
          "name": "returnBalance",
          "type": "string"
        },
        {
          "internalType": "string",
          "name": "unitName",
          "type": "string"
        },
        {
          "internalType": "uint256",
          "name": "missionCoinsEarned",
          "type": "uint256"
        }
      ],
      "name": "returnMetadata",
      "outputs": [
        {
          "internalType": "string",
          "name": "",
          "type": "string"
        }
      ],
      "stateMutability": "view",
      "type": "function",
      "constant": true
    }
  ],
  "bytecode": "0x612677610053600b82828239805160001a607314610046577f4e487b7100000000000000000000000000000000000000000000000000000000600052600060045260246000fd5b30600052607381538281f3fe73000000000000000000000000000000000000000030146080604052600436106100565760003560e01c8063282946401461005b5780632defce56146100815780632e0a95f4146100a15780633693698c146100c2575b600080fd5b61006e610069366004610b1f565b6100d5565b6040519081526020015b60405180910390f35b61009461008f366004610c18565b61014b565b6040516100789190610d4d565b6100b46100af366004610d60565b6102a0565b604051610078929190610d79565b6100946100d0366004610d9e565b610533565b60408051426020808301919091523360601b7fffffffffffffffffffffffffffffffffffffffff000000000000000000000000168284015260548201849052607480830186905283518084039091018152609490920190925280519101206000906101408582610eea565b9150505b9392505050565b6060600061015e610169600360046100d5565b9050600061017361016e836105a4565b6105ca565b60408051808201909152600781527f425241564f202300000000000000000000000000000000000000000000000000602082015290915060008b90036101e9575060408051808201909152600f81527f5b6275726e61626c655d202441494d000000000000000000000000000000000060208201525b60006040518061010001604052808d81526020018581526020018481526020018c81526020018b81526020018a8152602001898152602001888152509050610270826102348e6105ca565b6102408f8f8f8c610688565b61024985610533565b60405160200161025c9493929190610f1a565b6040516020818303038152906040526106ee565b6040516020016102809190611166565b604051602081830303815290604052945050505050979650505050505050565b60608060006102b7670de0b6b3a7640000856111c1565b11156102eb576102d261016e670de0b6b3a7640000856111c1565b9150604051806020016040528060008152509050915091565b60006102fe662386f26fc10000856111c1565b11156103575761031861016e662386f26fc10000856111c1565b91506040518060400160405280600681526020017f43454e54492d00000000000000000000000000000000000000000000000000008152509050915091565b600061036864e8d4a51000856111c1565b11156103bf5761038061016e64e8d4a51000856111c1565b91506040518060400160405280600681526020017f4d4943524f2d00000000000000000000000000000000000000000000000000008152509050915091565b60006103cf633b9aca00856111c1565b1115610425576103e661016e633b9aca00856111c1565b91506040518060400160405280600581526020017f4e414e4f2d0000000000000000000000000000000000000000000000000000008152509050915091565b6000610434620f4240856111c1565b11156104895761044a61016e620f4240856111c1565b91506040518060400160405280600581526020017f5049434f2d0000000000000000000000000000000000000000000000000000008152509050915091565b60006104976103e8856111c1565b11156104eb576104ac61016e6103e8856111c1565b91506040518060400160405280600681526020017f46454d544f2d00000000000000000000000000000000000000000000000000008152509050915091565b6104f4836105ca565b91506040518060400160405280600581526020017f4154544f2d0000000000000000000000000000000000000000000000000000008152509050915091565b606061059e826040015161054684610841565b610558856020015186604001516108ca565b610577866000015161056d88602001516105ca565b8860400151610915565b61058087610961565b61058988610a0b565b60405160200161025c969594939291906111d5565b92915050565b6000806105b28360b461138c565b905061016881111561059e576101446101688261139f565b606060006105d783610a3d565b600101905060008167ffffffffffffffff8111156105f7576105f7610b4b565b6040519080825280601f01601f191660200182016040528015610621576020820181803683370190505b5090508181016020015b7fffffffffffffffffffffffffffffffffffffffffffffffffffffffffffffffff017f3031323334353637383961626364656600000000000000000000000000000000600a86061a8153600a850494508461062b57509392505050565b6060600080610696846102a0565b91509150866000036106bb5760405180602001604052806000815250925050506106e6565b858183876040516020016106d294939291906113b2565b604051602081830303815290604052925050505b949350505050565b6060815160000361070d57505060408051602081019091526000815290565b6000604051806060016040528060408152602001612602604091399050600060038451600261073c919061138c565b61074691906111c1565b6107519060046115e2565b67ffffffffffffffff81111561076957610769610b4b565b6040519080825280601f01601f191660200182016040528015610793576020820181803683370190505b509050600182016020820185865187015b808210156107ff576003820191508151603f8160121c168501518453600184019350603f81600c1c168501518453600184019350603f8160061c168501518453600184019350603f81168501518453506001830192506107a4565b505060038651066001811461081b576002811461082e57610836565b603d6001830353603d6002830353610836565b603d60018303535b509195945050505050565b80516060906000036108a157610861600d836020015161016e9190610eea565b826040015161087384602001516105ca565b8460a0015160405160200161088b94939291906115f9565b6040516020818303038152906040529050919050565b81604001516108b383602001516105ca565b8360a0015160405160200161088b939291906119ce565b6060816108db61016e602286610eea565b6108ec61016e6045600260076100d5565b6040516020016108fe93929190611d24565b604051602081830303815290604052905092915050565b6060836000036109345750604080516020810190915260008152610144565b8183838560405160200161094b9493929190611e5f565b6040516020818303038152906040529050610144565b6060600061097283600001516105ca565b83519091506000036109cf57506040805160208082018352600082526060850182905260808501919091528151808301909252600182527f4f00000000000000000000000000000000000000000000000000000000000000908201525b6040808401516060850151608086015192516109f4938593929183919060200161210e565b604051602081830303815290604052915050919050565b6060610a216015836020015161016e9190610eea565b8260c001518360e0015160405160200161088b9392919061238c565b6000807a184f03e93ff9f4daa797ed6e38ed64bf6a1f0100000000000000008310610a86577a184f03e93ff9f4daa797ed6e38ed64bf6a1f010000000000000000830492506040015b6d04ee2d6d415b85acef81000000008310610ab2576d04ee2d6d415b85acef8100000000830492506020015b662386f26fc100008310610ad057662386f26fc10000830492506010015b6305f5e1008310610ae8576305f5e100830492506008015b6127108310610afc57612710830492506004015b60648310610b0e576064830492506002015b600a831061059e5760010192915050565b600080600060608486031215610b3457600080fd5b505081359360208301359350604090920135919050565b634e487b7160e01b600052604160045260246000fd5b604051610100810167ffffffffffffffff81118282101715610b8557610b85610b4b565b60405290565b600082601f830112610b9c57600080fd5b813567ffffffffffffffff80821115610bb757610bb7610b4b565b604051601f8301601f19908116603f01168101908282118183101715610bdf57610bdf610b4b565b81604052838152866020858801011115610bf857600080fd5b836020870160208301376000602085830101528094505050505092915050565b600080600080600080600060e0888a031215610c3357600080fd5b87359650602088013567ffffffffffffffff80821115610c5257600080fd5b610c5e8b838c01610b8b565b975060408a0135915080821115610c7457600080fd5b610c808b838c01610b8b565b965060608a0135915080821115610c9657600080fd5b610ca28b838c01610b8b565b955060808a0135915080821115610cb857600080fd5b610cc48b838c01610b8b565b945060a08a0135915080821115610cda57600080fd5b50610ce78a828b01610b8b565b92505060c0880135905092959891949750929550565b60005b83811015610d18578181015183820152602001610d00565b50506000910152565b60008151808452610d39816020860160208601610cfd565b601f01601f19169290920160200192915050565b6020815260006101446020830184610d21565b600060208284031215610d7257600080fd5b5035919050565b604081526000610d8c6040830185610d21565b82810360208401526101408185610d21565b600060208284031215610db057600080fd5b813567ffffffffffffffff80821115610dc857600080fd5b908301906101008286031215610ddd57600080fd5b610de5610b61565b8235815260208301356020820152604083013582811115610e0557600080fd5b610e1187828601610b8b565b604083015250606083013582811115610e2957600080fd5b610e3587828601610b8b565b606083015250608083013582811115610e4d57600080fd5b610e5987828601610b8b565b60808301525060a083013582811115610e7157600080fd5b610e7d87828601610b8b565b60a08301525060c083013582811115610e9557600080fd5b610ea187828601610b8b565b60c08301525060e083013582811115610eb957600080fd5b610ec587828601610b8b565b60e08301525095945050505050565b634e487b7160e01b600052601260045260246000fd5b600082610ef957610ef9610ed4565b500690565b60008151610f10818560208601610cfd565b9290920192915050565b7f7b226e616d65223a220000000000000000000000000000000000000000000000815260008551610f52816009850160208a01610cfd565b855190830190610f69816009840160208a01610cfd565b7f222c20226465736372697074696f6e223a2022427261766f20436f6d70616e79910160098101919091527f20636f6c6c656374696f6e202d20323030205a65726f2041726d7920666f756e60298201527f6465727320736572696573204e465473205b73656d692d66756e6769626c655d60498201527f207769746820736f756c626f756e64206275726e61626c65202441494d30202d60698201527f206275726e20616e64206561726e204d697373696f6e20436f696e7320696e2060898201527f746865205a65726f2041726d79204d657461534552564521205669736974207a60a98201527f65726f61726d792e6f72672f627261766f20666f722064657461696c732e000060c98201527f222c202265787465726e616c5f75726c223a2268747470733a2f2f7a65726f6160e78201527f726d792e6f72672f627261766f222c200000000000000000000000000000000061010782015261115b61113261112c6110dd61011785015b89610efe565b7f22696d616765223a2022646174613a696d6167652f7376672b786d6c3b62617381527f6536342c00000000000000000000000000000000000000000000000000000000602082015260240190565b86610efe565b7f227d000000000000000000000000000000000000000000000000000000000000815260020190565b979650505050505050565b7f646174613a6170706c69636174696f6e2f6a736f6e3b6261736536342c00000081526000825161119e81601d850160208701610cfd565b91909101601d0192915050565b634e487b7160e01b600052601160045260246000fd5b6000826111d0576111d0610ed4565b500490565b7f3c7376672077696474683d2237373722206865696768743d223737372220786d81527f6c6e733d22687474703a2f2f7777772e77332e6f72672f323030302f7376672260208201527f3e0000000000000000000000000000000000000000000000000000000000000060408201527f3c636972636c65207374726f6b653d2268736c2800000000000000000000000060418201526000875161127f816055850160208c01610cfd565b7f2c203639252c203535252922207374726f6b652d6461736861727261793d22356055918401918201527f2c322c322c322c322c3222207374726f6b652d77696474683d2234382220637860758201527f3d223338382e35222063793d223438382220723d22313334222066696c6c3d2260958201527f2330303030303022202f3e00000000000000000000000000000000000000000060b5820152875161132e8160c0840160208c01610cfd565b61137e61135561134f6110d761134960c0868801018d610efe565b8b610efe565b87610efe565b7f3c2f7376673e0000000000000000000000000000000000000000000000000000815260060190565b9a9950505050505050505050565b8082018082111561059e5761059e6111ab565b8181038181111561059e5761059e6111ab565b7f2261747472696275746573223a5b7b2274726169745f74797065223a2252616e81527f6b222c2276616c7565223a00000000000000000000000000000000000000000060208201526000855161141081602b850160208a01610cfd565b7f7d2c000000000000000000000000000000000000000000000000000000000000602b918401918201527f7b22646973706c61795f74797065223a20226e756d626572222c227472616974602d8201527f5f74797065223a224d697373696f6e20436f696e73204561726e6564207c7c20604d8201527f556e6974733a2000000000000000000000000000000000000000000000000000606d82015285516114bf816074840160208a01610cfd565b7f5a33523073222c2276616c7565223a00000000000000000000000000000000006074929091019182015284516114fd816083840160208901610cfd565b6115d66115ad61134f6115386083858701017f7d2c000000000000000000000000000000000000000000000000000000000000815260020190565b7f7b22646973706c61795f74797065223a2022626f6f73745f6e756d626572222c81527f2274726169745f74797065223a22427261766f20426f6f7374222c2276616c7560208201527f65223a0000000000000000000000000000000000000000000000000000000000604082015260430190565b7f7d5d2c2000000000000000000000000000000000000000000000000000000000815260040190565b98975050505050505050565b808202811582820484141761059e5761059e6111ab565b7f3c72656374207374726f6b653d222330303030303022207374726f6b652d646181527f736861727261793d22322c322c0000000000000000000000000000000000000060208201526000602d82018651611658818360208b01610cfd565b7f2c3722207374726f6b652d77696474683d2231372220783d2233342220793d2291019081527f3334222077696474683d2237313122206865696768743d2232383022206f706160208201527f636974793d22383825222066696c6c3d2223303030303030222072783d22353060408201527f222072793d22353022202f3e000000000000000000000000000000000000000060608201527f3c746578742066696c6c3d22236666666666662220783d223530252220793d22606c8201527f3132352220666f6e742d73697a653d223131312220666f6e742d66616d696c79608c8201527f3d226675747572612220746578742d616e63686f723d226d6964646c6522206460ac8201527f6f6d696e616e742d626173656c696e653d226d6964646c65223e5a45524f204160cc8201527f524d593c2f746578743e0000000000000000000000000000000000000000000060ec8201527f3c746578742066696c6c3d2268736c280000000000000000000000000000000060f682015261115b6119a561112c6118e461182361181d6117f461010688018d610efe565b7f2c203639252c203535252922207374726f6b653d2268736c2800000000000000815260190190565b8a610efe565b7f2c203639252c20353025292220783d223530252220793d22323039222073747281527f6f6b652d77696474683d22332220666f6e742d73697a653d2236392220666f6e60208201527f742d66616d696c793d226675747572612220746578742d616e63686f723d226d60408201527f6964646c652220646f6d696e616e742d626173656c696e653d226d6964646c6560608201527f223e425241564f20434f4d50414e593c2f746578743e00000000000000000000608082015260960190565b7f3c74657874207374726f6b652d77696474683d223222207374726f6b653d222381527f666666666666222066696c6c3d22233030303030302220783d2235302522207960208201527f3d223236352220666f6e742d73697a653d2234392220666f6e742d66616d696c60408201527f793d22636f75726965722220746578742d616e63686f723d226d6964646c652260608201527f20646f6d696e616e742d626173656c696e653d226d6964646c65223e000000006080820152609c0190565b7f3c2f746578743e00000000000000000000000000000000000000000000000000815260070190565b7f3c72656374207472616e73666f726d3d22726f74617465282d3435203338382e81527f352034322922207374726f6b652d77696474683d223232222066696c6c3d222360208201527f3030302220783d22302220793d222d3334362e35222077696474683d2237373760408201527f22206865696768743d2237373722202f3e00000000000000000000000000000060608201527f3c746578742066696c6c3d22236666666666662220783d223530252220793d2260718201527f3131372220666f6e742d73697a653d223132322220666f6e742d66616d696c7960918201527f3d226675747572612220746578742d616e63686f723d226d6964646c6522206460b18201527f6f6d696e616e742d626173656c696e653d226d6964646c65223e5a45524f204160d18201527f524d593c2f746578743e0000000000000000000000000000000000000000000060f18201527f3c746578742066696c6c3d222330303030303022207374726f6b653d2268736c60fb8201527f280000000000000000000000000000000000000000000000000000000000000061011b8201526000611d1b6119a5611d15611c7a611c74611b8d61011c88018b610efe565b7f2c203639252c20353025292220783d223530252220793d22323232222073747281527f6f6b652d77696474683d22342220666f6e742d73697a653d2236392220666f6e60208201527f742d66616d696c793d226675747572612220746578742d616e63686f723d226d60408201527f6964646c652220646f6d696e616e742d626173656c696e653d226d6964646c6560608201527f223e425241564f20434f4d50414e593c2f746578743e3c746578742066696c6c60808201527f3d2268736c28000000000000000000000000000000000000000000000000000060a082015260a60190565b88610efe565b7f2c203639252c20363925292220783d223530252220793d223238382220666f6e81527f742d73697a653d2234322220666f6e742d66616d696c793d226675747572612260208201527f20746578742d616e63686f723d226d6964646c652220646f6d696e616e742d6260408201527f6173656c696e653d226d6964646c65223e000000000000000000000000000000606082015260710190565b85610efe565b95945050505050565b7f3c636972636c65207374726f6b653d2268736c28000000000000000000000000815260008451611d5c816014850160208901610cfd565b80830190507f2c203737252c203334252922207374726f6b652d6461736861727261793d223560148201527f2c000000000000000000000000000000000000000000000000000000000000008060348301528551611dc1816035850160208a01610cfd565b60359201918201528351611ddc816036840160208801610cfd565b7f22207374726f6b652d77696474683d223234222063783d223338382e35222063603692909101918201527f793d223438382220723d22313334222066696c6c3d222330303030303022206f60568201527f7061636974793d2236392522202f3e0000000000000000000000000000000000607682015260850195945050505050565b7f3c636972636c65207374726f6b653d2268736c28000000000000000000000000815260008551611e97816014850160208a01610cfd565b7f2c203639252c203535252922207374726f6b652d6461736861727261793d22326014918401918201527f2c3222207374726f6b652d77696474683d2237222063783d223130302220637960348201527f3d223439352220723d223639222066696c6c3d2268736c28000000000000000060548201528551611f2081606c840160208a01610cfd565b7f2c203639252c203535252922206f7061636974793d2236392522202f3e0000009101606c8101919091527f3c7465787420746578742d616e63686f723d2273746172742220666f6e742d6660898201527f616d696c793d226675747572612220666f6e742d73697a653d2231382220793d60a98201527f223439302220783d223734223e52414e4b3c2f746578743e000000000000000060c98201527f3c636972636c65207374726f6b653d2268736c2800000000000000000000000060e182015261115b61209961207061134f611ffb60f5860161181d565b7f2c203639252c203535252922207374726f6b652d6461736861727261793d223281527f2c3222207374726f6b652d77696474683d2237222063783d223637372220637960208201527f3d223439352220723d223639222066696c6c3d2268736c280000000000000000604082015260580190565b7f2c203639252c203535252922206f7061636974793d2236392522202f3e0000008152601d0190565b7f3c7465787420746578742d616e63686f723d22656e642220666f6e742d66616d81527f696c793d226675747572612220666f6e742d73697a653d2231382220793d223460208201527f39302220783d22373039223e424f4f53543c2f746578743e0000000000000000604082015260580190565b7f3c7465787420666f6e742d66616d696c793d226675747572612220666f6e742d81527f73697a653d223131312220746578742d616e63686f723d226d6964646c65222060208201527f646f6d696e616e742d626173656c696e653d226d6964646c652220793d22353060408201527f302220783d2235302522207374726f6b652d77696474683d223422207374726f60608201527f6b653d2223666666666666222066696c6c3d2223303030303030223e000000006080820152600086516121de81609c850160208b01610cfd565b7f3c2f746578743e00000000000000000000000000000000000000000000000000609c918401918201527f3c7465787420666f6e742d7765696768743d22626f6c642220746578742d616e60a38201527f63686f723d226d6964646c652220666f6e742d66616d696c793d22667574757260c38201527f612220666f6e742d73697a653d2232322220793d223531372220783d2231303060e38201527f222066696c6c3d2268736c2800000000000000000000000000000000000000006101038201526115d6611d156122c2611c746122f16119a56122eb8461010f89018f610efe565b7f2c203639252c2036392529223e000000000000000000000000000000000000008152600d0190565b8c610efe565b7f3c7465787420666f6e742d7765696768743d22626f6c642220746578742d616e81527f63686f723d226d6964646c652220666f6e742d66616d696c793d22667574757260208201527f612220666f6e742d73697a653d2232322220793d223531372220783d2236373860408201527f222066696c6c3d2268736c2800000000000000000000000000000000000000006060820152606c0190565b7f3c2f746578743e0000000000000000000000000000000000000000000000000081527f3c72656374207374726f6b653d222330303030303022207374726f6b652d646160078201527f736861727261793d22322c322c0000000000000000000000000000000000000060278201526000603482018551612411818360208a01610cfd565b7f2c3722207374726f6b652d77696474683d2231372220783d2233342220793d2291019081527f363632222077696474683d2237313122206865696768743d2231303022206f7060208201527f61636974793d22383825222066696c6c3d2223303030303030222072783d223560408201527f30222072793d22353022202f3e0000000000000000000000000000000000000060608201527f3c74657874207374726f6b652d77696474683d223222207374726f6b653d2223606d8201527f666666666666222066696c6c3d22233030303030302220783d22353025222079608d8201527f3d223731332220666f6e742d73697a653d2234392220666f6e742d66616d696c60ad8201527f793d22636f75726965722220746578742d616e63686f723d226d6964646c652260cd8201527f20646f6d696e616e742d626173656c696e653d226d6964646c65223e2441494d60ed8201527f303a20000000000000000000000000000000000000000000000000000000000061010d8201526125f76125ce61112c6125a5610110850189610efe565b7f2000000000000000000000000000000000000000000000000000000000000000815260010190565b7f524f554e44533c2f746578743e000000000000000000000000000000000000008152600d0190565b969550505050505056fe4142434445464748494a4b4c4d4e4f505152535455565758595a6162636465666768696a6b6c6d6e6f707172737475767778797a303132333435363738392b2fa26469706673582212208ab168c8c84ee7c896365658f183f66df7e04db8557f88a617e135bb108a29fa64736f6c63430008130033",
  "immutableReferences": {},
  "source": "// SPDX-License-Identifier: MIT\npragma solidity ^0.8.19;\n//...............................................................................................................\n//..ZZZZZZZZZ...EEEEEEEEE...RRRRR..........OOOOOO..............AAA.......RRRRR........MMM.....MMM...YY......YY...\n//.ZZZZZZZZZZZ.EEEEEEEEEEE.RRRRRRRRRR.....OOOOOOOOO...........AAAAA.....RRRRRRRRRR...MMMMM...MMMMM.YYYYY...YYYY..\n//.ZZZZZZZZZZZ.EEEEEEEEEEE.RRRRRRRRRRR...OOOOOOOOOO...........AAAAA.....RRRRRRRRRRR..MMMMM...MMMMM.YYYYY..YYYYY..\n//.ZZZZZZZZZZZ.EEEEEEEEEEE.RRRRRRRRRRR..OOOOOOOOOOOO.........AAAAAAA....RRRRRRRRRRR..MMMMMM..MMMMM..YYYY..YYYY...\n//......ZZZZZZ.EEEE........RRRR...RRRRR.OOOO....OOOO.........AAAAAAA....RRRR...RRRRR.MMMMMM.MMMMMM..YYYYYYYYYY...\n//.....ZZZZZZ..EEEEEEEEEE..RRRR...RRRRR.OOOO....OOOOO........AAAAAAA....RRRR...RRRRR.MMMMMM.MMMMMM...YYYYYYYY....\n//.....ZZZZZ...EEEEEEEEEE..RRRRRRRRRRR.OOOO......OOOO.......AAAAAAAAA...RRRRRRRRRRR..MMMMMM.MMMMMM...YYYYYYYY....\n//....ZZZZZ....EEEEEEEEEE..RRRRRRRRRRR.OOOO......OOOO.......AAAA.AAAA...RRRRRRRRRRR..MMMMMM.MMMMMM....YYYYYY.....\n//...ZZZZZ.....EEEEEEEEEE..RRRRRRRRRRR.OOOO......OOOO.......AAAAAAAAAA..RRRRRRRRRRR..MMMMMMMMMMMMM.....YYYYY.....\n//..ZZZZZ......EEEE........RRRR..RRRRR..OOOO....OOOOO......AAAAAAAAAAA..RRRR..RRRRR..MMM.MMMMMMMMM.....YYYY......\n//.ZZZZZZ......EEEE........RRRR...RRRR..OOOO....OOOO.......AAAAAAAAAAA..RRRR...RRRR..MMM.MMMMM.MMM.....YYYY......\n//.ZZZZZZZZZZZ.EEEEEEEEEEE.RRRR...RRRR..OOOOOOOOOOOO.......AAAAAAAAAAAA.RRRR...RRRR..MMM.MMMMM.MMM.....YYYY......\n//.ZZZZZZZZZZZ.EEEEEEEEEEE.RRRR...RRRR...OOOOOOOOOO....... AAAA....AAAA.RRRR...RRRR..MMM.MMMMM.MMM.....YYYY......\n//.ZZZZZZZZZZZ.EEEEEEEEEEE.RRRR...RRRRR...OOOOOOOOO....... AAA.....AAAA.RRRR...RRRRR.MMM.MMMMM.MMM.....YYYY......\n//.........................................OOOOOO................................................................\n//...............................................................................................................\n/// @author Simon G.Ionashku - find me on github: simon-masterclass\n/// @title Bravo Library\n/// @dev This library is used to render the Bravo Company NFTs and their metadata\n\nimport \"@openzeppelin/contracts/utils/Strings.sol\";\nimport \"@openzeppelin/contracts/utils/Base64.sol\";\n\nlibrary BravoLibrary {\n    using Strings for uint256;\n\n    //struct for cramming all the variables together to avoid stack too deep error\n    struct Stack2deep {\n        uint256 tokenId;\n        uint256 color1;\n        string comp2Color1;\n        string rank;\n        string bravoBoost;\n        string codeName;\n        string returnBalance;\n        string unitName;\n    }\n\n    function calculateUnits(\n        uint balance\n    )\n        public\n        pure\n        returns (string memory returnBalance, string memory unitName)\n    {\n        //calculate units\n        if (uint256(balance / (10 ** 18)) > 0) {\n            returnBalance = (balance / (10 ** 18)).toString();\n            unitName = \"\";\n        } else if (uint256(balance / (10 ** 16)) > 0) {\n            returnBalance = (balance / (10 ** 16)).toString();\n            unitName = \"CENTI-\";\n        } else if (uint256(balance / (10 ** 12)) > 0) {\n            returnBalance = (balance / (10 ** 12)).toString();\n            unitName = \"MICRO-\";\n        } else if (uint256(balance / (10 ** 9)) > 0) {\n            returnBalance = (balance / (10 ** 9)).toString();\n            unitName = \"NANO-\";\n        } else if (uint256(balance / (10 ** 6)) > 0) {\n            returnBalance = (balance / (10 ** 6)).toString();\n            unitName = \"PICO-\";\n        } else if (uint256(balance / (10 ** 3)) > 0) {\n            returnBalance = (balance / (10 ** 3)).toString();\n            unitName = \"FEMTO-\";\n        } else {\n            returnBalance = balance.toString();\n            unitName = \"ATTO-\";\n        }\n\n        return (returnBalance, unitName);\n    }\n\n    function randomNum(\n        uint256 _modulus,\n        uint256 _seed,\n        uint256 _salt\n    ) public view returns (uint256) {\n        uint256 randomNumber = uint256(\n            keccak256(\n                abi.encodePacked(block.timestamp, msg.sender, _salt, _seed)\n            )\n        );\n        return randomNumber % _modulus;\n    }\n\n    function calcComplimentColor(\n        uint256 compNum\n    ) internal pure returns (uint256) {\n        uint256 comp = compNum + 180;\n        if (comp > 360) {\n            comp = comp - 360;\n        }\n        return comp;\n    }\n\n    function renderHelper0(\n        Stack2deep memory stack2deep\n    ) internal pure returns (bytes memory) {\n        if(stack2deep.tokenId == 0) {\n        return\n            abi.encodePacked(\n                '<rect stroke=\"#000000\" stroke-dasharray=\"2,2,',\n                (stack2deep.color1 % 13).toString(),\n                ',7\" stroke-width=\"17\" x=\"34\" y=\"34\" width=\"711\" height=\"280\" opacity=\"88%\" fill=\"#000000\" rx=\"50\" ry=\"50\" />',\n                '<text fill=\"#ffffff\" x=\"50%\" y=\"125\" font-size=\"111\" font-family=\"futura\" text-anchor=\"middle\" dominant-baseline=\"middle\">ZERO ARMY</text>',\n                '<text fill=\"hsl(',\n                stack2deep.comp2Color1,\n                ', 69%, 55%)\" stroke=\"hsl(',\n                stack2deep.color1.toString(),\n                ', 69%, 50%)\" x=\"50%\" y=\"209\" stroke-width=\"3\" font-size=\"69\" font-family=\"futura\" text-anchor=\"middle\" dominant-baseline=\"middle\">BRAVO COMPANY</text>',\n                '<text stroke-width=\"2\" stroke=\"#ffffff\" fill=\"#000000\" x=\"50%\" y=\"265\" font-size=\"49\" font-family=\"courier\" text-anchor=\"middle\" dominant-baseline=\"middle\">',\n                stack2deep.codeName,\n                \"</text>\"\n            );\n        } else {\n        return\n            abi.encodePacked(\n                '<rect transform=\"rotate(-45 388.5 42)\" stroke-width=\"22\" fill=\"#000\" x=\"0\" y=\"-346.5\" width=\"777\" height=\"777\" />',\n                '<text fill=\"#ffffff\" x=\"50%\" y=\"117\" font-size=\"122\" font-family=\"futura\" text-anchor=\"middle\" dominant-baseline=\"middle\">ZERO ARMY</text>',\n                '<text fill=\"#000000\" stroke=\"hsl(',\n                stack2deep.comp2Color1,\n                ', 69%, 50%)\" x=\"50%\" y=\"222\" stroke-width=\"4\" font-size=\"69\" font-family=\"futura\" text-anchor=\"middle\" dominant-baseline=\"middle\">BRAVO COMPANY</text>'\n                '<text fill=\"hsl(',\n                stack2deep.color1.toString(),\n                ', 69%, 69%)\" x=\"50%\" y=\"288\" font-size=\"42\" font-family=\"futura\" text-anchor=\"middle\" dominant-baseline=\"middle\">',\n                stack2deep.codeName,\n                \"</text>\"\n            );\n        }\n    }\n\n    function renderHelper1(\n        uint256 color1,\n        string memory comp2Color1\n    ) internal view returns (bytes memory) {\n        return\n            abi.encodePacked(\n                '<circle stroke=\"hsl(',\n                comp2Color1,\n                ', 77%, 34%)\" stroke-dasharray=\"5,',\n                (color1 % 34).toString(),\n                \",\",\n                randomNum(69, 2, 7).toString(),\n                '\" stroke-width=\"24\" cx=\"388.5\" cy=\"488\" r=\"134\" fill=\"#000000\" opacity=\"69%\" />'\n            );\n    }\n\n    function renderHelper2(\n        uint256 tokenId,\n        string memory color1,\n        string memory comp2Color1\n    ) internal pure returns (bytes memory) {\n        if (tokenId == 0) {\n            return \"\";\n        } else {\n            return\n                abi.encodePacked(\n                    '<circle stroke=\"hsl(',\n                    comp2Color1,\n                    ', 69%, 55%)\" stroke-dasharray=\"2,2\" stroke-width=\"7\" cx=\"100\" cy=\"495\" r=\"69\" fill=\"hsl(',\n                    color1,\n                    ', 69%, 55%)\" opacity=\"69%\" />',\n                    '<text text-anchor=\"start\" font-family=\"futura\" font-size=\"18\" y=\"490\" x=\"74\">RANK</text>',\n                    '<circle stroke=\"hsl(',\n                    comp2Color1,\n                    ', 69%, 55%)\" stroke-dasharray=\"2,2\" stroke-width=\"7\" cx=\"677\" cy=\"495\" r=\"69\" fill=\"hsl(',\n                    color1,\n                    ', 69%, 55%)\" opacity=\"69%\" />',\n                    '<text text-anchor=\"end\" font-family=\"futura\" font-size=\"18\" y=\"490\" x=\"709\">BOOST</text>'\n                );\n        }\n    }\n\n    function renderHelper3(\n        Stack2deep memory stack2deep\n    ) internal pure returns (bytes memory) {\n        string memory tokenId = stack2deep.tokenId.toString();\n\n        if (stack2deep.tokenId == 0) {\n            stack2deep.bravoBoost = stack2deep.rank = \"\";\n            tokenId = \"O\";\n        }\n\n        return\n            abi.encodePacked(\n                '<text font-family=\"futura\" font-size=\"111\" text-anchor=\"middle\" dominant-baseline=\"middle\" y=\"500\" x=\"50%\" stroke-width=\"4\" stroke=\"#ffffff\" fill=\"#000000\">',\n                tokenId,\n                \"</text>\",\n                '<text font-weight=\"bold\" text-anchor=\"middle\" font-family=\"futura\" font-size=\"22\" y=\"517\" x=\"100\" fill=\"hsl(',\n                stack2deep.comp2Color1,\n                ', 69%, 69%)\">',\n                stack2deep.rank,\n                \"</text>\",\n                '<text font-weight=\"bold\" text-anchor=\"middle\" font-family=\"futura\" font-size=\"22\" y=\"517\" x=\"678\" fill=\"hsl(',\n                stack2deep.comp2Color1,\n                ', 69%, 69%)\">',\n                stack2deep.bravoBoost\n            );\n    }\n\n    function renderHelper4(\n        Stack2deep memory stack2deep\n    ) internal pure returns (bytes memory) {\n        return\n            abi.encodePacked(\n                \"</text>\",\n                '<rect stroke=\"#000000\" stroke-dasharray=\"2,2,',\n                (stack2deep.color1 % 21).toString(),\n                ',7\" stroke-width=\"17\" x=\"34\" y=\"662\" width=\"711\" height=\"100\" opacity=\"88%\" fill=\"#000000\" rx=\"50\" ry=\"50\" />',\n                '<text stroke-width=\"2\" stroke=\"#ffffff\" fill=\"#000000\" x=\"50%\" y=\"713\" font-size=\"49\" font-family=\"courier\" text-anchor=\"middle\" dominant-baseline=\"middle\">$AIM0: ',\n                stack2deep.returnBalance,\n                \" \",\n                stack2deep.unitName,\n                \"ROUNDS</text>\"\n            );\n    }\n\n    function renderSVG(\n        Stack2deep memory stack2deep\n    ) public view returns (string memory) {\n        return\n            Base64.encode(\n                bytes(\n                    abi.encodePacked(\n                        '<svg width=\"777\" height=\"777\" xmlns=\"http://www.w3.org/2000/svg\">',\n                        '<circle stroke=\"hsl(',\n                        stack2deep.comp2Color1,\n                        ', 69%, 55%)\" stroke-dasharray=\"5,2,2,2,2,2\" stroke-width=\"48\" cx=\"388.5\" cy=\"488\" r=\"134\" fill=\"#000000\" />',\n                        renderHelper0(stack2deep),\n                        renderHelper1(\n                            stack2deep.color1,\n                            stack2deep.comp2Color1\n                        ),\n                        renderHelper2(\n                            stack2deep.tokenId,\n                            stack2deep.color1.toString(),\n                            stack2deep.comp2Color1\n                        ),\n                        renderHelper3(stack2deep),\n                        renderHelper4(stack2deep),\n                        \"</svg>\"\n                    )\n                )\n            );\n    }\n\n    function returnAttributes(\n        uint256 tokenId,\n        string memory rank,\n        string memory bravoBoost,\n        uint256 missionCoinsEarned\n    ) internal pure returns (bytes memory) {\n        (string memory missionCoinBalance, string memory coinUnits) = calculateUnits(missionCoinsEarned);\n        if (tokenId == 0)\n        {\n            return \"\";\n        } else {\n            return\n                abi.encodePacked(\n                    '\"attributes\":[{\"trait_type\":\"Rank\",\"value\":',\n                                rank,\n                                \"},\",\n                                '{\"display_type\": \"number\",\"trait_type\":\"Mission Coins Earned || Units: ', \n                                coinUnits,\n                                'Z3R0s\",\"value\":',\n                                missionCoinBalance,\n                                \"},\",\n                                '{\"display_type\": \"boost_number\",\"trait_type\":\"Bravo Boost\",\"value\":',\n                                bravoBoost,\n                                \"}], \"\n            );\n        }\n    }\n\n    function returnMetadata(\n        uint256 tokenId,\n        string memory rank,\n        string memory bravoBoost,\n        string memory codeName,\n        string memory returnBalance,\n        string memory unitName,\n        uint256 missionCoinsEarned\n    ) public view returns (string memory) {\n        uint256 color1 = randomNum(361, 3, 4);\n        string memory comp2Color1 = calcComplimentColor(color1).toString();\n        string memory bravoTitle = \"BRAVO #\";\n\n        if (tokenId == 0) {\n            bravoTitle = \"[burnable] $AIM\";\n        }\n\n        Stack2deep memory stack2deep = Stack2deep(\n            tokenId,\n            color1,\n            comp2Color1,\n            rank,\n            bravoBoost,\n            codeName,\n            returnBalance,\n            unitName\n        );\n\n        return\n            string(\n                abi.encodePacked(\n                    \"data:application/json;base64,\",\n                    Base64.encode(\n                        bytes(\n                            abi.encodePacked(\n                                '{\"name\":\"',\n                                bravoTitle,\n                                tokenId.toString(),\n                                '\", \"description\": \"Bravo Company collection - 200 Zero Army founders series NFTs [semi-fungible] with soulbound burnable $AIM0 - burn and earn Mission Coins in the Zero Army MetaSERVE! Visit zeroarmy.org/bravo for details.',\n                                '\", \"external_url\":\"https://zeroarmy.org/bravo\", ',\n                                returnAttributes(tokenId ,rank, bravoBoost, missionCoinsEarned),\n                                '\"image\": \"data:image/svg+xml;base64,',\n                                renderSVG(stack2deep),\n                                '\"}'\n                            )\n                        )\n                    )\n                )\n            );\n    }\n}\n",
  "sourcePath": "/Users/c0/Documents/CODE/Zero_Army/Bravo/0xTruffleBravo/contracts/BravoLibrary.sol",
  "compiler": {
    "name": "solc",
    "version": "0.8.19+commit.7dd6d404.Emscripten.clang"
  },
  "schemaVersion": "3.4.14",
  "updatedAt": "2023-07-26T21:09:53.113Z",
  "networkType": "ethereum",
  "devdoc": {
    "kind": "dev",
    "methods": {},
    "version": 1
  },
  "userdoc": {
    "kind": "user",
    "methods": {},
    "version": 1
  }
}