{
  "contractName": "BravoLibrary",
  "abi": [
    {
      "inputs": [
        {
          "internalType": "uint256",
          "name": "balance",
          "type": "uint256"
        }
      ],
      "name": "calculateUnits",
      "outputs": [
        {
          "internalType": "string",
          "name": "returnBalance",
          "type": "string"
        },
        {
          "internalType": "string",
          "name": "unitName",
          "type": "string"
        }
      ],
      "stateMutability": "pure",
      "type": "function"
    },
    {
      "inputs": [
        {
          "internalType": "uint256",
          "name": "_modulus",
          "type": "uint256"
        },
        {
          "internalType": "uint256",
          "name": "_seed",
          "type": "uint256"
        },
        {
          "internalType": "uint256",
          "name": "_salt",
          "type": "uint256"
        }
      ],
      "name": "randomNum",
      "outputs": [
        {
          "internalType": "uint256",
          "name": "",
          "type": "uint256"
        }
      ],
      "stateMutability": "view",
      "type": "function"
    },
    {
      "inputs": [
        {
          "components": [
            {
              "internalType": "uint256",
              "name": "tokenId",
              "type": "uint256"
            },
            {
              "internalType": "uint256",
              "name": "color1",
              "type": "uint256"
            },
            {
              "internalType": "string",
              "name": "comp2Color1",
              "type": "string"
            },
            {
              "internalType": "string",
              "name": "rank",
              "type": "string"
            },
            {
              "internalType": "string",
              "name": "bravoBoost",
              "type": "string"
            },
            {
              "internalType": "string",
              "name": "codeName",
              "type": "string"
            },
            {
              "internalType": "string",
              "name": "returnBalance",
              "type": "string"
            },
            {
              "internalType": "string",
              "name": "unitName",
              "type": "string"
            }
          ],
          "internalType": "struct BravoLibrary.Stack2deep",
          "name": "stack2deep",
          "type": "tuple"
        }
      ],
      "name": "renderSVG",
      "outputs": [
        {
          "internalType": "string",
          "name": "",
          "type": "string"
        }
      ],
      "stateMutability": "view",
      "type": "function"
    },
    {
      "inputs": [
        {
          "internalType": "uint256",
          "name": "tokenId",
          "type": "uint256"
        },
        {
          "internalType": "string",
          "name": "rank",
          "type": "string"
        },
        {
          "internalType": "string",
          "name": "bravoBoost",
          "type": "string"
        },
        {
          "internalType": "string",
          "name": "codeName",
          "type": "string"
        },
        {
          "internalType": "string",
          "name": "returnBalance",
          "type": "string"
        },
        {
          "internalType": "string",
          "name": "unitName",
          "type": "string"
        },
        {
          "internalType": "string",
          "name": "missionCoinsEarned",
          "type": "string"
        }
      ],
      "name": "returnMetadata",
      "outputs": [
        {
          "internalType": "string",
          "name": "",
          "type": "string"
        }
      ],
      "stateMutability": "view",
      "type": "function"
    }
  ],
  "bytecode": "0x612175610053600b82828239805160001a607314610046577f4e487b7100000000000000000000000000000000000000000000000000000000600052600060045260246000fd5b30600052607381538281f3fe73000000000000000000000000000000000000000030146080604052600436106100565760003560e01c8063282946401461005b5780632e0a95f4146100815780633693698c146100a25780637a407315146100c2575b600080fd5b61006e610069366004610ac6565b6100d5565b6040519081526020015b60405180910390f35b61009461008f366004610af2565b61014b565b604051610078929190610b5b565b6100b56100b0366004610c4d565b610409565b6040516100789190610d83565b6100b56100d0366004610d96565b610484565b60408051426020808301919091523360601b7fffffffffffffffffffffffffffffffffffffffff000000000000000000000000168284015260548201849052607480830186905283518084039091018152609490920190925280519101206000906101408582610eac565b9150505b9392505050565b6060806000610162670de0b6b3a764000085610ed6565b11156101c15761018261017d670de0b6b3a764000085610ed6565b6105c0565b91506040518060400160405280600681526020017f524f554e445300000000000000000000000000000000000000000000000000008152509050915091565b60006101d4662386f26fc1000085610ed6565b111561022d576101ee61017d662386f26fc1000085610ed6565b91506040518060400160405280600c81526020017f43454e54492d524f554e445300000000000000000000000000000000000000008152509050915091565b600061023e64e8d4a5100085610ed6565b11156102955761025661017d64e8d4a5100085610ed6565b91506040518060400160405280600c81526020017f4d4943524f2d524f554e445300000000000000000000000000000000000000008152509050915091565b60006102a5633b9aca0085610ed6565b11156102fb576102bc61017d633b9aca0085610ed6565b91506040518060400160405280600b81526020017f4e414e4f2d524f554e44530000000000000000000000000000000000000000008152509050915091565b600061030a620f424085610ed6565b111561035f5761032061017d620f424085610ed6565b91506040518060400160405280600b81526020017f5049434f2d524f554e44530000000000000000000000000000000000000000008152509050915091565b600061036d6103e885610ed6565b11156103c15761038261017d6103e885610ed6565b91506040518060400160405280600c81526020017f46454d544f2d524f554e445300000000000000000000000000000000000000008152509050915091565b6103ca836105c0565b91506040518060400160405280600b81526020017f4154544f2d524f554e44530000000000000000000000000000000000000000008152509050915091565b606061047e82604001516104258460200151856040015161067e565b610444856000015161043a87602001516105c0565b87604001516106cb565b61044d86610717565b610456876107c1565b60405160200161046a959493929190610f06565b60405160208183030381529060405261081d565b92915050565b60606000610497610169600360046100d5565b905060006104a761017d83610970565b60408051808201909152600781527f425241564f202300000000000000000000000000000000000000000000000000602082015290915060008b900361051d575060408051808201909152600f81527f5b66756e6769626c655d202441494d000000000000000000000000000000000060208201525b60006040518061010001604052808d81526020018581526020018481526020018c81526020018b81526020018a8152602001898152602001888152509050610590826105688e6105c0565b6105748f8f8f8c610996565b61057d85610409565b60405160200161046a949392919061117d565b6040516020016105a0919061135b565b604051602081830303815290604052945050505050979650505050505050565b606060006105cd836109e4565b600101905060008167ffffffffffffffff8111156105ed576105ed610b80565b6040519080825280601f01601f191660200182016040528015610617576020820181803683370190505b5090508181016020015b7fffffffffffffffffffffffffffffffffffffffffffffffffffffffffffffffff017f3031323334353637383961626364656600000000000000000000000000000000600a86061a8153600a850494508461062157509392505050565b60608161068f61017d602286610eac565b6106a061017d6045600260076100d5565b846040516020016106b494939291906113a0565b604051602081830303815290604052905092915050565b6060836000036106ea5750604080516020810190915260008152610144565b81838385604051602001610701949392919061168c565b6040516020818303038152906040529050610144565b6060600061072883600001516105c0565b835190915060000361078557506040805160208082018352600082526060850182905260808501919091528151808301909252600182527f4f00000000000000000000000000000000000000000000000000000000000000908201525b6040808401516060850151608086015192516107aa938593929183919060200161193d565b604051602081830303815290604052915050919050565b60606107d082602001516105c0565b8260a001516107e96015856020015161017d9190610eac565b8460c001518560e00151604051602001610807959493929190611bf0565b6040516020818303038152906040529050919050565b6060815160000361083c57505060408051602081019091526000815290565b6000604051806060016040528060408152602001612100604091399050600060038451600261086b9190611f1c565b6108759190610ed6565b610880906004611f2f565b67ffffffffffffffff81111561089857610898610b80565b6040519080825280601f01601f1916602001820160405280156108c2576020820181803683370190505b509050600182016020820185865187015b8082101561092e576003820191508151603f8160121c168501518453600184019350603f81600c1c168501518453600184019350603f8160061c168501518453600184019350603f81168501518453506001830192506108d3565b505060038651066001811461094a576002811461095d57610965565b603d6001830353603d6002830353610965565b603d60018303535b509195945050505050565b60008061097e8360b4611f1c565b905061016881111561047e5761014461016882611f46565b6060846000036109b557506040805160208101909152600081526109dc565b8382846040516020016109ca93929190611f59565b60405160208183030381529060405290505b949350505050565b6000807a184f03e93ff9f4daa797ed6e38ed64bf6a1f0100000000000000008310610a2d577a184f03e93ff9f4daa797ed6e38ed64bf6a1f010000000000000000830492506040015b6d04ee2d6d415b85acef81000000008310610a59576d04ee2d6d415b85acef8100000000830492506020015b662386f26fc100008310610a7757662386f26fc10000830492506010015b6305f5e1008310610a8f576305f5e100830492506008015b6127108310610aa357612710830492506004015b60648310610ab5576064830492506002015b600a831061047e5760010192915050565b600080600060608486031215610adb57600080fd5b505081359360208301359350604090920135919050565b600060208284031215610b0457600080fd5b5035919050565b60005b83811015610b26578181015183820152602001610b0e565b50506000910152565b60008151808452610b47816020860160208601610b0b565b601f01601f19169290920160200192915050565b604081526000610b6e6040830185610b2f565b82810360208401526101408185610b2f565b634e487b7160e01b600052604160045260246000fd5b604051610100810167ffffffffffffffff81118282101715610bba57610bba610b80565b60405290565b600082601f830112610bd157600080fd5b813567ffffffffffffffff80821115610bec57610bec610b80565b604051601f8301601f19908116603f01168101908282118183101715610c1457610c14610b80565b81604052838152866020858801011115610c2d57600080fd5b836020870160208301376000602085830101528094505050505092915050565b600060208284031215610c5f57600080fd5b813567ffffffffffffffff80821115610c7757600080fd5b908301906101008286031215610c8c57600080fd5b610c94610b96565b8235815260208301356020820152604083013582811115610cb457600080fd5b610cc087828601610bc0565b604083015250606083013582811115610cd857600080fd5b610ce487828601610bc0565b606083015250608083013582811115610cfc57600080fd5b610d0887828601610bc0565b60808301525060a083013582811115610d2057600080fd5b610d2c87828601610bc0565b60a08301525060c083013582811115610d4457600080fd5b610d5087828601610bc0565b60c08301525060e083013582811115610d6857600080fd5b610d7487828601610bc0565b60e08301525095945050505050565b6020815260006101446020830184610b2f565b600080600080600080600060e0888a031215610db157600080fd5b87359650602088013567ffffffffffffffff80821115610dd057600080fd5b610ddc8b838c01610bc0565b975060408a0135915080821115610df257600080fd5b610dfe8b838c01610bc0565b965060608a0135915080821115610e1457600080fd5b610e208b838c01610bc0565b955060808a0135915080821115610e3657600080fd5b610e428b838c01610bc0565b945060a08a0135915080821115610e5857600080fd5b610e648b838c01610bc0565b935060c08a0135915080821115610e7a57600080fd5b50610e878a828b01610bc0565b91505092959891949750929550565b634e487b7160e01b600052601260045260246000fd5b600082610ebb57610ebb610e96565b500690565b634e487b7160e01b600052601160045260246000fd5b600082610ee557610ee5610e96565b500490565b60008151610efc818560208601610b0b565b9290920192915050565b7f3c7376672077696474683d2237373722206865696768743d223737372220786d81527f6c6e733d22687474703a2f2f7777772e77332e6f72672f323030302f7376672260208201527f3e0000000000000000000000000000000000000000000000000000000000000060408201527f3c636972636c65207374726f6b653d2268736c28000000000000000000000000604182015260008651610fb0816055850160208b01610b0b565b7f2c203639252c203535252922207374726f6b652d6461736861727261793d22356055918401918201527f2c322c322c322c322c3222207374726f6b652d77696474683d2234382220637860758201527f3d223338382e35222063793d223438382220723d22313334222066696c6c3d2260958201527f2330303030303022202f3e00000000000000000000000000000000000000000060b5820152865161105f8160c0840160208b01610b0b565b61117061114761114161113b61113560c0868801017f3c746578742066696c6c3d22236666666666662220783d223530252220793d2281527f3131372220666f6e742d73697a653d223132322220666f6e742d66616d696c7960208201527f3d226675747572612220746578742d616e63686f723d226d6964646c6522206460408201527f6f6d696e616e742d626173656c696e653d226d6964646c65223e5a45524f204160608201527f524d593c2f746578743e000000000000000000000000000000000000000000006080820152608a0190565b8b610eea565b89610eea565b87610eea565b7f3c2f7376673e0000000000000000000000000000000000000000000000000000815260060190565b9998505050505050505050565b7f7b226e616d65223a2200000000000000000000000000000000000000000000008152600085516111b5816009850160208a01610b0b565b8551908301906111cc816009840160208a01610b0b565b7f222c20226465736372697074696f6e223a2022427261766f20436f6d70616e79600992909101918201527f20636f6c6c656374696f6e202d20323030205a65726f2041726d7920666f756e60298201527f6465727320736572696573204e465473207769746820736f756c626f756e642060498201527f66756e6769626c65202441494d302e000000000000000000000000000000000060698201527f222c202265787465726e616c5f75726c223a2268747470733a2f2f7a65726f6160788201527f726d792e6f72672f627261766f222c2000000000000000000000000000000000609882015284516112c88160a8840160208901610b0b565b61134f61132661114160a8848601017f22696d616765223a2022646174613a696d6167652f7376672b786d6c3b62617381527f6536342c00000000000000000000000000000000000000000000000000000000602082015260240190565b7f227d000000000000000000000000000000000000000000000000000000000000815260020190565b98975050505050505050565b7f646174613a6170706c69636174696f6e2f6a736f6e3b6261736536342c00000081526000825161139381601d850160208701610b0b565b91909101601d0192915050565b7f3c72656374207472616e73666f726d3d22726f74617465282d3435203338382e81527f352034322922207374726f6b652d77696474683d223232222066696c6c3d222360208201527f3030302220783d22302220793d222d3334362e35222077696474683d2237373760408201527f22206865696768743d2237373722202f3e00000000000000000000000000000060608201527f3c636972636c65207374726f6b653d2268736c28000000000000000000000000607182015260008551611470816085850160208a01610b0b565b80830190507f2c203737252c203334252922207374726f6b652d6461736861727261793d223560858201527f2c000000000000000000000000000000000000000000000000000000000000008060a583015286516114d58160a6850160208b01610b0b565b60a69201918201526116816115c06115ba61156b6114f660a786018a610eea565b7f22207374726f6b652d77696474683d223234222063783d223338382e3522206381527f793d223438382220723d22313334222066696c6c3d222330303030303022206f60208201527f7061636974793d2236392522202f3e00000000000000000000000000000000006040820152604f0190565b7f3c746578742066696c6c3d222330303030303022207374726f6b653d2268736c81527f2800000000000000000000000000000000000000000000000000000000000000602082015260210190565b86610eea565b7f2c203639252c20353025292220783d223530252220793d22323232222073747281527f6f6b652d77696474683d22322220666f6e742d73697a653d2236392220666f6e60208201527f742d66616d696c793d226675747572612220746578742d616e63686f723d226d60408201527f6964646c652220646f6d696e616e742d626173656c696e653d226d6964646c6560608201527f223e425241564f20434f4d50414e593c2f746578743e00000000000000000000608082015260960190565b979650505050505050565b7f3c636972636c65207374726f6b653d2268736c280000000000000000000000008152600085516116c4816014850160208a01610b0b565b7f2c203639252c203535252922207374726f6b652d6461736861727261793d22326014918401918201527f2c3222207374726f6b652d77696474683d2237222063783d223130302220637960348201527f3d223439352220723d223639222066696c6c3d2268736c2800000000000000006054820152855161174d81606c840160208a01610b0b565b7f2c203639252c203535252922206f7061636974793d2236392522202f3e0000009101606c8101919091527f3c7465787420746578742d616e63686f723d2273746172742220666f6e742d6660898201527f616d696c793d226675747572612220666f6e742d73697a653d2231382220793d60a98201527f223439302220783d223734223e52414e4b3c2f746578743e000000000000000060c98201527f3c636972636c65207374726f6b653d2268736c2800000000000000000000000060e18201526116816118c861189f61114161182a60f586015b8a610eea565b7f2c203639252c203535252922207374726f6b652d6461736861727261793d223281527f2c3222207374726f6b652d77696474683d2237222063783d223637372220637960208201527f3d223439352220723d223639222066696c6c3d2268736c280000000000000000604082015260580190565b7f2c203639252c203535252922206f7061636974793d2236392522202f3e0000008152601d0190565b7f3c7465787420746578742d616e63686f723d22656e642220666f6e742d66616d81527f696c793d226675747572612220666f6e742d73697a653d2231382220793d223460208201527f39302220783d22373039223e424f4f53543c2f746578743e0000000000000000604082015260580190565b7f3c7465787420666f6e742d66616d696c793d226675747572612220666f6e742d81527f73697a653d223131312220746578742d616e63686f723d226d6964646c65222060208201527f646f6d696e616e742d626173656c696e653d226d6964646c652220793d22353060408201527f302220783d2235302522207374726f6b652d77696474683d223422207374726f60608201527f6b653d2223666666666666222066696c6c3d2223303030303030223e00000000608082015260008651611a0d81609c850160208b01610b0b565b7f3c2f746578743e00000000000000000000000000000000000000000000000000609c918401918201527f3c7465787420666f6e742d7765696768743d22626f6c642220746578742d616e60a38201527f63686f723d226d6964646c652220666f6e742d66616d696c793d22667574757260c38201527f612220666f6e742d73697a653d2232322220793d223531372220783d2231303060e38201527f222066696c6c3d2268736c28000000000000000000000000000000000000000061010382015261134f611bea611af1611be4611b49611b20611b1a8461010f89018f610eea565b7f2c203639252c2036392529223e000000000000000000000000000000000000008152600d0190565b8c610eea565b7f3c2f746578743e00000000000000000000000000000000000000000000000000815260070190565b7f3c7465787420666f6e742d7765696768743d22626f6c642220746578742d616e81527f63686f723d226d6964646c652220666f6e742d66616d696c793d22667574757260208201527f612220666f6e742d73697a653d2232322220793d223531372220783d2236373860408201527f222066696c6c3d2268736c2800000000000000000000000000000000000000006060820152606c0190565b88610eea565b85610eea565b60007f3c2f746578743e000000000000000000000000000000000000000000000000008083527f3c746578742066696c6c3d2268736c280000000000000000000000000000000060078401528751611c4f816017860160208c01610b0b565b7f2c203639252c20363925292220783d223530252220793d223238382220666f6e6017918501918201527f742d73697a653d2234322220666f6e742d66616d696c793d226675747572612260378201527f20746578742d616e63686f723d226d6964646c652220646f6d696e616e742d6260578201527f6173656c696e653d226d6964646c65223e00000000000000000000000000000060778201528751611cfe816088840160208c01610b0b565b01608881018290527f3c72656374207374726f6b653d222330303030303022207374726f6b652d6461608f8201527f736861727261793d22322c322c0000000000000000000000000000000000000060af820152611170611b20611141611ef3611824611e0c611d7160bc88018e610eea565b7f2c3722207374726f6b652d77696474683d2231372220783d2233342220793d2281527f363632222077696474683d2237313122206865696768743d2231303022206f7060208201527f61636974793d22383825222066696c6c3d2223303030303030222072783d223560408201527f30222072793d22353022202f3e000000000000000000000000000000000000006060820152606d0190565b7f3c74657874207374726f6b652d77696474683d223222207374726f6b653d222381527f666666666666222066696c6c3d22233030303030302220783d2235302522207960208201527f3d223731332220666f6e742d73697a653d2234392220666f6e742d66616d696c60408201527f793d22636f75726965722220746578742d616e63686f723d226d6964646c652260608201527f20646f6d696e616e742d626173656c696e653d226d6964646c65223e2441494d60808201527f303a20000000000000000000000000000000000000000000000000000000000060a082015260a30190565b7f2000000000000000000000000000000000000000000000000000000000000000815260010190565b8082018082111561047e5761047e610ec0565b808202811582820484141761047e5761047e610ec0565b8181038181111561047e5761047e610ec0565b7f2261747472696275746573223a5b7b2274726169745f74797065223a2252616e81527f6b222c2276616c7565223a000000000000000000000000000000000000000000602082015260008451611fb781602b850160208901610b0b565b80830190507f7d2c00000000000000000000000000000000000000000000000000000000000080602b8301527f7b2274726169745f74797065223a224d697373696f6e20436f696e73205b4154602d8301527f544f2d5a3352305d204561726e6564222c2276616c7565223a00000000000000604d8301528551612042816066850160208a01610b0b565b60669201918201527f7b22646973706c61795f74797065223a2022626f6f73745f6e756d626572222c60688201527f2274726169745f74797065223a22427261766f20426f6f7374222c2276616c7560888201527f65223a000000000000000000000000000000000000000000000000000000000060a88201526120f56120cc60ab830186610eea565b7f7d5d2c2000000000000000000000000000000000000000000000000000000000815260040190565b969550505050505056fe4142434445464748494a4b4c4d4e4f505152535455565758595a6162636465666768696a6b6c6d6e6f707172737475767778797a303132333435363738392b2fa264697066735822122075d982c44eff2a95550b9582513e6f111ed63600f708843fd205093dbd495e5f64736f6c63430008130033",
  "immutableReferences": {},
  "source": "// SPDX-License-Identifier: MIT\npragma solidity ^0.8.19;\n//...............................................................................................................\n//..ZZZZZZZZZ...EEEEEEEEE...RRRRR..........OOOOOO..............AAA.......RRRRR........MMM.....MMM...YY......YY...\n//.ZZZZZZZZZZZ.EEEEEEEEEEE.RRRRRRRRRR.....OOOOOOOOO...........AAAAA.....RRRRRRRRRR...MMMMM...MMMMM.YYYYY...YYYY..\n//.ZZZZZZZZZZZ.EEEEEEEEEEE.RRRRRRRRRRR...OOOOOOOOOO...........AAAAA.....RRRRRRRRRRR..MMMMM...MMMMM.YYYYY..YYYYY..\n//.ZZZZZZZZZZZ.EEEEEEEEEEE.RRRRRRRRRRR..OOOOOOOOOOOO.........AAAAAAA....RRRRRRRRRRR..MMMMMM..MMMMM..YYYY..YYYY...\n//......ZZZZZZ.EEEE........RRRR...RRRRR.OOOO....OOOO.........AAAAAAA....RRRR...RRRRR.MMMMMM.MMMMMM..YYYYYYYYYY...\n//.....ZZZZZZ..EEEEEEEEEE..RRRR...RRRRR.OOOO....OOOOO........AAAAAAA....RRRR...RRRRR.MMMMMM.MMMMMM...YYYYYYYY....\n//.....ZZZZZ...EEEEEEEEEE..RRRRRRRRRRR.OOOO......OOOO.......AAAAAAAAA...RRRRRRRRRRR..MMMMMM.MMMMMM...YYYYYYYY....\n//....ZZZZZ....EEEEEEEEEE..RRRRRRRRRRR.OOOO......OOOO.......AAAA.AAAA...RRRRRRRRRRR..MMMMMM.MMMMMM....YYYYYY.....\n//...ZZZZZ.....EEEEEEEEEE..RRRRRRRRRRR.OOOO......OOOO.......AAAAAAAAAA..RRRRRRRRRRR..MMMMMMMMMMMMM.....YYYYY.....\n//..ZZZZZ......EEEE........RRRR..RRRRR..OOOO....OOOOO......AAAAAAAAAAA..RRRR..RRRRR..MMM.MMMMMMMMM.....YYYY......\n//.ZZZZZZ......EEEE........RRRR...RRRR..OOOO....OOOO.......AAAAAAAAAAA..RRRR...RRRR..MMM.MMMMM.MMM.....YYYY......\n//.ZZZZZZZZZZZ.EEEEEEEEEEE.RRRR...RRRR..OOOOOOOOOOOO.......AAAAAAAAAAAA.RRRR...RRRR..MMM.MMMMM.MMM.....YYYY......\n//.ZZZZZZZZZZZ.EEEEEEEEEEE.RRRR...RRRR...OOOOOOOOOO....... AAAA....AAAA.RRRR...RRRR..MMM.MMMMM.MMM.....YYYY......\n//.ZZZZZZZZZZZ.EEEEEEEEEEE.RRRR...RRRRR...OOOOOOOOO....... AAA.....AAAA.RRRR...RRRRR.MMM.MMMMM.MMM.....YYYY......\n//.........................................OOOOOO................................................................\n//...............................................................................................................\n/// @author Simon G.Ionashku - find me on github: simon-masterclass\n\nimport \"@openzeppelin/contracts/utils/Strings.sol\";\nimport \"@openzeppelin/contracts/utils/Base64.sol\";\n\nlibrary BravoLibrary {\n    using Strings for uint256;\n\n    //struct for cramming all the variables together to avoid stack too deep error\n    struct Stack2deep {\n        uint256 tokenId;\n        uint256 color1;\n        string comp2Color1;\n        string rank;\n        string bravoBoost;\n        string codeName;\n        string returnBalance;\n        string unitName;\n    }\n\n    function calculateUnits(\n        uint balance\n    )\n        public\n        pure\n        returns (string memory returnBalance, string memory unitName)\n    {\n        //calculate units\n        if (uint256(balance / (10 ** 18)) > 0) {\n            returnBalance = (balance / (10 ** 18)).toString();\n            unitName = \"ROUNDS\";\n        } else if (uint256(balance / (10 ** 16)) > 0) {\n            returnBalance = (balance / (10 ** 16)).toString();\n            unitName = \"CENTI-ROUNDS\";\n        } else if (uint256(balance / (10 ** 12)) > 0) {\n            returnBalance = (balance / (10 ** 12)).toString();\n            unitName = \"MICRO-ROUNDS\";\n        } else if (uint256(balance / (10 ** 9)) > 0) {\n            returnBalance = (balance / (10 ** 9)).toString();\n            unitName = \"NANO-ROUNDS\";\n        } else if (uint256(balance / (10 ** 6)) > 0) {\n            returnBalance = (balance / (10 ** 6)).toString();\n            unitName = \"PICO-ROUNDS\";\n        } else if (uint256(balance / (10 ** 3)) > 0) {\n            returnBalance = (balance / (10 ** 3)).toString();\n            unitName = \"FEMTO-ROUNDS\";\n        } else {\n            returnBalance = balance.toString();\n            unitName = \"ATTO-ROUNDS\";\n        }\n\n        return (returnBalance, unitName);\n    }\n\n    function randomNum(\n        uint256 _modulus,\n        uint256 _seed,\n        uint256 _salt\n    ) public view returns (uint256) {\n        uint256 randomNumber = uint256(\n            keccak256(\n                abi.encodePacked(block.timestamp, msg.sender, _salt, _seed)\n            )\n        );\n        return randomNumber % _modulus;\n    }\n\n    function calcComplimentColor(\n        uint256 compNum\n    ) internal pure returns (uint256) {\n        uint256 comp = compNum + 180;\n        if (comp > 360) {\n            comp = comp - 360;\n        }\n        return comp;\n    }\n\n    function renderHelper1(\n        uint256 color1,\n        string memory comp2Color1\n    ) internal view returns (bytes memory) {\n        return\n            abi.encodePacked(\n                '<rect transform=\"rotate(-45 388.5 42)\" stroke-width=\"22\" fill=\"#000\" x=\"0\" y=\"-346.5\" width=\"777\" height=\"777\" />',\n                '<circle stroke=\"hsl(',\n                comp2Color1,\n                ', 77%, 34%)\" stroke-dasharray=\"5,',\n                (color1 % 34).toString(),\n                \",\",\n                randomNum(69, 2, 7).toString(),\n                '\" stroke-width=\"24\" cx=\"388.5\" cy=\"488\" r=\"134\" fill=\"#000000\" opacity=\"69%\" />',\n                '<text fill=\"#000000\" stroke=\"hsl(',\n                comp2Color1,\n                ', 69%, 50%)\" x=\"50%\" y=\"222\" stroke-width=\"2\" font-size=\"69\" font-family=\"futura\" text-anchor=\"middle\" dominant-baseline=\"middle\">BRAVO COMPANY</text>'\n            );\n    }\n\n    function renderHelper2(\n        uint256 tokenId,\n        string memory color1,\n        string memory comp2Color1\n    ) internal pure returns (bytes memory) {\n        if (tokenId == 0) {\n            return \"\";\n        } else {\n            return\n                abi.encodePacked(\n                    '<circle stroke=\"hsl(',\n                    comp2Color1,\n                    ', 69%, 55%)\" stroke-dasharray=\"2,2\" stroke-width=\"7\" cx=\"100\" cy=\"495\" r=\"69\" fill=\"hsl(',\n                    color1,\n                    ', 69%, 55%)\" opacity=\"69%\" />',\n                    '<text text-anchor=\"start\" font-family=\"futura\" font-size=\"18\" y=\"490\" x=\"74\">RANK</text>',\n                    '<circle stroke=\"hsl(',\n                    comp2Color1,\n                    ', 69%, 55%)\" stroke-dasharray=\"2,2\" stroke-width=\"7\" cx=\"677\" cy=\"495\" r=\"69\" fill=\"hsl(',\n                    color1,\n                    ', 69%, 55%)\" opacity=\"69%\" />',\n                    '<text text-anchor=\"end\" font-family=\"futura\" font-size=\"18\" y=\"490\" x=\"709\">BOOST</text>'\n                );\n        }\n    }\n\n    function renderHelper3(\n        Stack2deep memory stack2deep\n    ) internal pure returns (bytes memory) {\n        string memory tokenId = stack2deep.tokenId.toString();\n\n        if (stack2deep.tokenId == 0) {\n            stack2deep.bravoBoost = stack2deep.rank = \"\";\n            tokenId = \"O\";\n        }\n\n        return\n            abi.encodePacked(\n                '<text font-family=\"futura\" font-size=\"111\" text-anchor=\"middle\" dominant-baseline=\"middle\" y=\"500\" x=\"50%\" stroke-width=\"4\" stroke=\"#ffffff\" fill=\"#000000\">',\n                tokenId,\n                \"</text>\",\n                '<text font-weight=\"bold\" text-anchor=\"middle\" font-family=\"futura\" font-size=\"22\" y=\"517\" x=\"100\" fill=\"hsl(',\n                stack2deep.comp2Color1,\n                ', 69%, 69%)\">',\n                stack2deep.rank,\n                \"</text>\",\n                '<text font-weight=\"bold\" text-anchor=\"middle\" font-family=\"futura\" font-size=\"22\" y=\"517\" x=\"678\" fill=\"hsl(',\n                stack2deep.comp2Color1,\n                ', 69%, 69%)\">',\n                stack2deep.bravoBoost\n            );\n    }\n\n    function renderHelper4(\n        Stack2deep memory stack2deep\n    ) internal pure returns (bytes memory) {\n        return\n            abi.encodePacked(\n                \"</text>\",\n                '<text fill=\"hsl(',\n                stack2deep.color1.toString(),\n                ', 69%, 69%)\" x=\"50%\" y=\"288\" font-size=\"42\" font-family=\"futura\" text-anchor=\"middle\" dominant-baseline=\"middle\">',\n                stack2deep.codeName,\n                \"</text>\",\n                '<rect stroke=\"#000000\" stroke-dasharray=\"2,2,',\n                (stack2deep.color1 % 21).toString(),\n                ',7\" stroke-width=\"17\" x=\"34\" y=\"662\" width=\"711\" height=\"100\" opacity=\"88%\" fill=\"#000000\" rx=\"50\" ry=\"50\" />',\n                '<text stroke-width=\"2\" stroke=\"#ffffff\" fill=\"#000000\" x=\"50%\" y=\"713\" font-size=\"49\" font-family=\"courier\" text-anchor=\"middle\" dominant-baseline=\"middle\">$AIM0: ',\n                stack2deep.returnBalance,\n                \" \",\n                stack2deep.unitName,\n                \"</text>\"\n            );\n    }\n\n    function renderSVG(\n        Stack2deep memory stack2deep\n    ) public view returns (string memory) {\n        return\n            Base64.encode(\n                bytes(\n                    abi.encodePacked(\n                        '<svg width=\"777\" height=\"777\" xmlns=\"http://www.w3.org/2000/svg\">',\n                        '<circle stroke=\"hsl(',\n                        stack2deep.comp2Color1,\n                        ', 69%, 55%)\" stroke-dasharray=\"5,2,2,2,2,2\" stroke-width=\"48\" cx=\"388.5\" cy=\"488\" r=\"134\" fill=\"#000000\" />',\n                        renderHelper1(\n                            stack2deep.color1,\n                            stack2deep.comp2Color1\n                        ),\n                        '<text fill=\"#ffffff\" x=\"50%\" y=\"117\" font-size=\"122\" font-family=\"futura\" text-anchor=\"middle\" dominant-baseline=\"middle\">ZERO ARMY</text>',\n                        renderHelper2(\n                            stack2deep.tokenId,\n                            stack2deep.color1.toString(),\n                            stack2deep.comp2Color1\n                        ),\n                        renderHelper3(stack2deep),\n                        renderHelper4(stack2deep),\n                        \"</svg>\"\n                    )\n                )\n            );\n    }\n\n    function returnAttributes(\n        uint256 tokenId,\n        string memory rank,\n        string memory bravoBoost,\n        string memory missionCoinsEarned\n    ) internal pure returns (bytes memory) {\n        if (tokenId == 0)\n        {\n            return \"\";\n        } else {\n\n        return\n            abi.encodePacked(\n                '\"attributes\":[{\"trait_type\":\"Rank\",\"value\":',\n                                rank,\n                                \"},\",\n                                '{\"trait_type\":\"Mission Coins [ATTO-Z3R0] Earned\",\"value\":',\n                                missionCoinsEarned,\n                                \"},\",\n                                '{\"display_type\": \"boost_number\",\"trait_type\":\"Bravo Boost\",\"value\":',\n                                bravoBoost,\n                                \"}], \"\n            );\n        }\n    }\n\n    function returnMetadata(\n        uint256 tokenId,\n        string memory rank,\n        string memory bravoBoost,\n        string memory codeName,\n        string memory returnBalance,\n        string memory unitName,\n        string memory missionCoinsEarned\n    ) public view returns (string memory) {\n        uint256 color1 = randomNum(361, 3, 4);\n        string memory comp2Color1 = calcComplimentColor(color1).toString();\n        string memory bravoTitle = \"BRAVO #\";\n\n        if (tokenId == 0) {\n            bravoTitle = \"[fungible] $AIM\";\n        }\n\n        Stack2deep memory stack2deep = Stack2deep(\n            tokenId,\n            color1,\n            comp2Color1,\n            rank,\n            bravoBoost,\n            codeName,\n            returnBalance,\n            unitName\n        );\n\n        return\n            string(\n                abi.encodePacked(\n                    \"data:application/json;base64,\",\n                    Base64.encode(\n                        bytes(\n                            abi.encodePacked(\n                                '{\"name\":\"',\n                                bravoTitle,\n                                tokenId.toString(),\n                                '\", \"description\": \"Bravo Company collection - 200 Zero Army founders series NFTs with soulbound fungible $AIM0.',\n                                '\", \"external_url\":\"https://zeroarmy.org/bravo\", ',\n                                returnAttributes(tokenId ,rank, bravoBoost, missionCoinsEarned),\n                                '\"image\": \"data:image/svg+xml;base64,',\n                                renderSVG(stack2deep),\n                                '\"}'\n                            )\n                        )\n                    )\n                )\n            );\n    }\n}\n",
  "sourcePath": "/Users/c0/Documents/CODE/Zero_Army/Bravo/0xTruffleBravo/contracts/BravoLibrary.sol",
  "compiler": {
    "name": "solc",
    "version": "0.8.19+commit.7dd6d404.Emscripten.clang"
  },
  "schemaVersion": "3.4.14",
  "updatedAt": "2023-07-25T21:15:46.169Z",
  "devdoc": {
    "kind": "dev",
    "methods": {},
    "version": 1
  },
  "userdoc": {
    "kind": "user",
    "methods": {},
    "version": 1
  }
}