{
  "contractName": "BravoLibrary",
  "abi": [
    {
      "inputs": [
        {
          "internalType": "uint256",
          "name": "balance",
          "type": "uint256"
        }
      ],
      "name": "calculateUnits",
      "outputs": [
        {
          "internalType": "string",
          "name": "returnBalance",
          "type": "string"
        },
        {
          "internalType": "string",
          "name": "unitName",
          "type": "string"
        }
      ],
      "stateMutability": "pure",
      "type": "function"
    },
    {
      "inputs": [
        {
          "internalType": "uint256",
          "name": "_modulus",
          "type": "uint256"
        },
        {
          "internalType": "uint256",
          "name": "_seed",
          "type": "uint256"
        },
        {
          "internalType": "uint256",
          "name": "_salt",
          "type": "uint256"
        }
      ],
      "name": "randomNum",
      "outputs": [
        {
          "internalType": "uint256",
          "name": "",
          "type": "uint256"
        }
      ],
      "stateMutability": "view",
      "type": "function"
    },
    {
      "inputs": [
        {
          "components": [
            {
              "internalType": "uint256",
              "name": "tokenId",
              "type": "uint256"
            },
            {
              "internalType": "uint256",
              "name": "color1",
              "type": "uint256"
            },
            {
              "internalType": "string",
              "name": "comp2Color1",
              "type": "string"
            },
            {
              "internalType": "string",
              "name": "rank",
              "type": "string"
            },
            {
              "internalType": "string",
              "name": "bravoBoost",
              "type": "string"
            },
            {
              "internalType": "string",
              "name": "codeName",
              "type": "string"
            },
            {
              "internalType": "string",
              "name": "returnBalance",
              "type": "string"
            },
            {
              "internalType": "string",
              "name": "unitName",
              "type": "string"
            }
          ],
          "internalType": "struct BravoLibrary.Stack2deep",
          "name": "stack2deep",
          "type": "tuple"
        }
      ],
      "name": "renderSVG",
      "outputs": [
        {
          "internalType": "string",
          "name": "",
          "type": "string"
        }
      ],
      "stateMutability": "view",
      "type": "function"
    },
    {
      "inputs": [
        {
          "internalType": "uint256",
          "name": "tokenId",
          "type": "uint256"
        },
        {
          "internalType": "string",
          "name": "rank",
          "type": "string"
        },
        {
          "internalType": "string",
          "name": "bravoBoost",
          "type": "string"
        },
        {
          "internalType": "string",
          "name": "codeName",
          "type": "string"
        },
        {
          "internalType": "string",
          "name": "returnBalance",
          "type": "string"
        },
        {
          "internalType": "string",
          "name": "unitName",
          "type": "string"
        },
        {
          "internalType": "uint256",
          "name": "missionCoinsEarned",
          "type": "uint256"
        }
      ],
      "name": "returnMetadata",
      "outputs": [
        {
          "internalType": "string",
          "name": "",
          "type": "string"
        }
      ],
      "stateMutability": "view",
      "type": "function"
    }
  ],
  "bytecode": "0x6121e8610053600b82828239805160001a607314610046577f4e487b7100000000000000000000000000000000000000000000000000000000600052600060045260246000fd5b30600052607381538281f3fe73000000000000000000000000000000000000000030146080604052600436106100565760003560e01c8063282946401461005b5780632defce56146100815780632e0a95f4146100a15780633693698c146100c2575b600080fd5b61006e610069366004610a0a565b6100d5565b6040519081526020015b60405180910390f35b61009461008f366004610b03565b610138565b6040516100789190610c38565b6100b46100af366004610c4b565b610269565b604051610078929190610c64565b6100946100d0366004610c89565b61046f565b60408051426020808301919091523360601b6bffffffffffffffffffffffff191682840152605482018490526074808301869052835180840390910181526094909201909252805191012060009061012d8582610dd5565b9150505b9392505050565b6060600061014b610169600360046100d5565b9050600061016061015b836104e0565b610506565b604080518082019091526007815266425241564f202360c81b602082015290915060008b90036101b2575060408051808201909152600f81526e5b6275726e61626c655d202441494d60881b60208201525b60006040518061010001604052808d81526020018581526020018481526020018c81526020018b81526020018a8152602001898152602001888152509050610239826101fd8e610506565b6102098f8f8f8c610599565b6102128561046f565b6040516020016102259493929190610e05565b6040516020818303038152906040526105ff565b6040516020016102499190610fd4565b604051602081830303815290604052945050505050979650505050505050565b6060806000610280670de0b6b3a76400008561102f565b11156102b45761029b61015b670de0b6b3a76400008561102f565b9150604051806020016040528060008152509050915091565b60006102c7662386f26fc100008561102f565b1115610309576102e161015b662386f26fc100008561102f565b91506040518060400160405280600681526020016543454e54492d60d01b8152509050915091565b600061031a64e8d4a510008561102f565b111561035a5761033261015b64e8d4a510008561102f565b9150604051806040016040528060068152602001654d4943524f2d60d01b8152509050915091565b600061036a633b9aca008561102f565b11156103a85761038161015b633b9aca008561102f565b9150604051806040016040528060058152602001644e414e4f2d60d81b8152509050915091565b60006103b7620f42408561102f565b11156103f4576103cd61015b620f42408561102f565b9150604051806040016040528060058152602001645049434f2d60d81b8152509050915091565b60006104026103e88561102f565b111561043f5761041761015b6103e88561102f565b91506040518060400160405280600681526020016546454d544f2d60d01b8152509050915091565b61044883610506565b9150604051806040016040528060058152602001644154544f2d60d81b8152509050915091565b60606104da826040015161048284610752565b610494856020015186604001516107db565b6104b386600001516104a98860200151610506565b8860400151610826565b6104bc87610872565b6104c588610900565b60405160200161022596959493929190611043565b92915050565b6000806104ee8360b46111b2565b90506101688111156104da57610131610168826111c5565b6060600061051383610932565b600101905060008167ffffffffffffffff81111561053357610533610a36565b6040519080825280601f01601f19166020018201604052801561055d576020820181803683370190505b5090508181016020015b600019016f181899199a1a9b1b9c1cb0b131b232b360811b600a86061a8153600a850494508461056757509392505050565b60606000806105a784610269565b91509150866000036105cc5760405180602001604052806000815250925050506105f7565b858183876040516020016105e394939291906111d8565b604051602081830303815290604052925050505b949350505050565b6060815160000361061e57505060408051602081019091526000815290565b6000604051806060016040528060408152602001612173604091399050600060038451600261064d91906111b2565b610657919061102f565b610662906004611349565b67ffffffffffffffff81111561067a5761067a610a36565b6040519080825280601f01601f1916602001820160405280156106a4576020820181803683370190505b509050600182016020820185865187015b80821015610710576003820191508151603f8160121c168501518453600184019350603f81600c1c168501518453600184019350603f8160061c168501518453600184019350603f81168501518453506001830192506106b5565b505060038651066001811461072c576002811461073f57610747565b603d6001830353603d6002830353610747565b603d60018303535b509195945050505050565b80516060906000036107b257610772600d836020015161015b9190610dd5565b82604001516107848460200151610506565b8460a0015160405160200161079c949392919061139f565b6040516020818303038152906040529050919050565b81604001516107c48360200151610506565b8360a0015160405160200161079c939291906116e2565b6060816107ec61015b602286610dd5565b6107fd61015b6045600260076100d5565b60405160200161080f939291906119da565b604051602081830303815290604052905092915050565b6060836000036108455750604080516020810190915260008152610131565b8183838560405160200161085c9493929190611ae3565b6040516020818303038152906040529050610131565b606060006108838360000151610506565b83519091506000036108c45750604080516020808201835260008252606085018290526080850191909152815180830190925260018252604f60f81b908201525b6040808401516060850151608086015192516108e99385939291839190602001611d77565b604051602081830303815290604052915050919050565b60606109166015836020015161015b9190610dd5565b8260c001518360e0015160405160200161079c93929190611fad565b60008072184f03e93ff9f4daa797ed6e38ed64bf6a1f0160401b83106109715772184f03e93ff9f4daa797ed6e38ed64bf6a1f0160401b830492506040015b6d04ee2d6d415b85acef8100000000831061099d576d04ee2d6d415b85acef8100000000830492506020015b662386f26fc1000083106109bb57662386f26fc10000830492506010015b6305f5e10083106109d3576305f5e100830492506008015b61271083106109e757612710830492506004015b606483106109f9576064830492506002015b600a83106104da5760010192915050565b600080600060608486031215610a1f57600080fd5b505081359360208301359350604090920135919050565b634e487b7160e01b600052604160045260246000fd5b604051610100810167ffffffffffffffff81118282101715610a7057610a70610a36565b60405290565b600082601f830112610a8757600080fd5b813567ffffffffffffffff80821115610aa257610aa2610a36565b604051601f8301601f19908116603f01168101908282118183101715610aca57610aca610a36565b81604052838152866020858801011115610ae357600080fd5b836020870160208301376000602085830101528094505050505092915050565b600080600080600080600060e0888a031215610b1e57600080fd5b87359650602088013567ffffffffffffffff80821115610b3d57600080fd5b610b498b838c01610a76565b975060408a0135915080821115610b5f57600080fd5b610b6b8b838c01610a76565b965060608a0135915080821115610b8157600080fd5b610b8d8b838c01610a76565b955060808a0135915080821115610ba357600080fd5b610baf8b838c01610a76565b945060a08a0135915080821115610bc557600080fd5b50610bd28a828b01610a76565b92505060c0880135905092959891949750929550565b60005b83811015610c03578181015183820152602001610beb565b50506000910152565b60008151808452610c24816020860160208601610be8565b601f01601f19169290920160200192915050565b6020815260006101316020830184610c0c565b600060208284031215610c5d57600080fd5b5035919050565b604081526000610c776040830185610c0c565b828103602084015261012d8185610c0c565b600060208284031215610c9b57600080fd5b813567ffffffffffffffff80821115610cb357600080fd5b908301906101008286031215610cc857600080fd5b610cd0610a4c565b8235815260208301356020820152604083013582811115610cf057600080fd5b610cfc87828601610a76565b604083015250606083013582811115610d1457600080fd5b610d2087828601610a76565b606083015250608083013582811115610d3857600080fd5b610d4487828601610a76565b60808301525060a083013582811115610d5c57600080fd5b610d6887828601610a76565b60a08301525060c083013582811115610d8057600080fd5b610d8c87828601610a76565b60c08301525060e083013582811115610da457600080fd5b610db087828601610a76565b60e08301525095945050505050565b634e487b7160e01b600052601260045260246000fd5b600082610de457610de4610dbf565b500690565b60008151610dfb818560208601610be8565b9290920192915050565b683d913730b6b2911d1160b91b81528451600090610e2a816009850160208a01610be8565b855190830190610e41816009840160208a01610be8565b7f222c20226465736372697074696f6e223a2022427261766f20436f6d70616e79600992909101918201527f20636f6c6c656374696f6e202d20323030205a65726f2041726d7920666f756e60298201527f6465727320736572696573204e465473205b73656d692d66756e6769626c655d60498201527f207769746820736f756c626f756e64206275726e61626c65202441494d30202d60698201527f206275726e20616e64206561726e204d697373696f6e20436f696e7320696e2060898201527f746865205a65726f2041726d79204d657461534552564521000000000000000060a98201527f222c202265787465726e616c5f75726c223a2268747470733a2f2f7a65726f6160c18201526f03936bc9737b93397b13930bb379116160851b60e1820152610fc9610fbb610fb5610f7f60f1850189610de9565b7f22696d616765223a2022646174613a696d6167652f7376672b786d6c3b626173815263194d8d0b60e21b602082015260240190565b86610de9565b61227d60f01b815260020190565b979650505050505050565b7f646174613a6170706c69636174696f6e2f6a736f6e3b6261736536342c00000081526000825161100c81601d850160208701610be8565b91909101601d0192915050565b634e487b7160e01b600052601160045260246000fd5b60008261103e5761103e610dbf565b500490565b7f3c7376672077696474683d2237373722206865696768743d223737372220786d81527f6c6e733d22687474703a2f2f7777772e77332e6f72672f323030302f737667226020820152601f60f91b604082015273078c6d2e4c6d8ca40e6e8e4ded6ca7a44d0e6d8560631b6041820152600087516110c8816055850160208c01610be8565b7f2c203639252c203535252922207374726f6b652d6461736861727261793d22356055918401918201527f2c322c322c322c322c3222207374726f6b652d77696474683d2234382220637860758201527f3d223338382e35222063793d223438382220723d22313334222066696c6c3d2260958201526a119818181818181110179f60a91b60b582015287516111658160c0840160208c01610be8565b6111a461119261118c61118661118060c0868801018d610de9565b8b610de9565b89610de9565b87610de9565b651e17b9bb339f60d11b815260060190565b9a9950505050505050505050565b808201808211156104da576104da611019565b818103818111156104da576104da611019565b7f2261747472696275746573223a5b7b2274726169745f74797065223a2252616e81526a359116113b30b63ab2911d60a91b60208201526000855161122481602b850160208a01610be8565b611f4b60f21b602b918401918201527f7b2274726169745f74797065223a224d697373696f6e20436f696e7320456172602d8201526c03732b2103e102ab734ba399d1609d1b604d820152855161128281605a840160208a01610be8565b6e2d19a918399116113b30b63ab2911d60891b605a929091019182015284516112b2816069840160208901610be8565b61133d61132d61118c6112d2606986860101611f4b60f21b815260020190565b7f7b22646973706c61795f74797065223a2022626f6f73745f6e756d626572222c81527f2274726169745f74797065223a22427261766f20426f6f7374222c2276616c7560208201526232911d60e91b604082015260430190565b6303eae96160e51b815260040190565b98975050505050505050565b80820281158282048414176104da576104da611019565b7f3c72656374207374726f6b653d222330303030303022207374726f6b652d646181526c1cda185c9c985e4f488c8b0c8b609a1b6020820152602d0190565b60006113aa82611360565b86516113ba818360208b01610be8565b7f2c3722207374726f6b652d77696474683d2231372220783d2233342220793d2291019081527f3334222077696474683d2237313122206865696768743d2232383022206f706160208201527f636974793d22383825222066696c6c3d2223303030303030222072783d22353060408201526b1110393c9e911a981110179f60a11b60608201527f3c746578742066696c6c3d22236666666666662220783d223530252220793d22606c8201527f3132352220666f6e742d73697a653d223131312220666f6e742d66616d696c79608c8201527f3d226675747572612220746578742d616e63686f723d226d6964646c6522206460ac8201527f6f6d696e616e742d626173656c696e653d226d6964646c65223e5a45524f204160cc820152692926ac9e17ba32bc3a1f60b11b60ec8201526f078e8caf0e840ccd2d8d87a44d0e6d8560831b60f6820152610fc96116cf610fb561160e61155461154e61152561010688018d610de9565b7f2c203639252c203535252922207374726f6b653d2268736c2800000000000000815260190190565b8a610de9565b7f2c203639252c20353025292220783d223530252220793d22323039222073747281527f6f6b652d77696474683d22332220666f6e742d73697a653d2236392220666f6e60208201527f742d66616d696c793d226675747572612220746578742d616e63686f723d226d60408201527f6964646c652220646f6d696e616e742d626173656c696e653d226d6964646c65606082015275111f212920ab279021a7a6a820a72c9e17ba32bc3a1f60511b608082015260960190565b7f3c74657874207374726f6b652d77696474683d223222207374726f6b653d222381527f666666666666222066696c6c3d22233030303030302220783d2235302522207960208201527f3d223236352220666f6e742d73697a653d2234392220666f6e742d66616d696c60408201527f793d22636f75726965722220746578742d616e63686f723d226d6964646c652260608201527f20646f6d696e616e742d626173656c696e653d226d6964646c65223e000000006080820152609c0190565b661e17ba32bc3a1f60c91b815260070190565b7f3c72656374207472616e73666f726d3d22726f74617465282d3435203338382e81527f352034322922207374726f6b652d77696474683d223232222066696c6c3d222360208201527f3030302220783d22302220793d222d3334362e35222077696474683d2237373760408201527011103432b4b3b43a1e911b9b9b9110179f60791b60608201527f3c746578742066696c6c3d22236666666666662220783d223530252220793d2260718201527f3131372220666f6e742d73697a653d223132322220666f6e742d66616d696c7960918201527f3d226675747572612220746578742d616e63686f723d226d6964646c6522206460b18201527f6f6d696e616e742d626173656c696e653d226d6964646c65223e5a45524f204160d1820152692926ac9e17ba32bc3a1f60b11b60f18201527f3c746578742066696c6c3d222330303030303022207374726f6b653d2268736c60fb820152600560fb1b61011b82015260006119d16116cf6119cb61193c61193661186661011c88018b610de9565b7f2c203639252c20353025292220783d223530252220793d22323232222073747281527f6f6b652d77696474683d22342220666f6e742d73697a653d2236392220666f6e60208201527f742d66616d696c793d226675747572612220746578742d616e63686f723d226d60408201527f6964646c652220646f6d696e616e742d626173656c696e653d226d6964646c6560608201527f223e425241564f20434f4d50414e593c2f746578743e3c746578742066696c6c60808201526507a44d0e6d8560d31b60a082015260a60190565b88610de9565b7f2c203639252c20363925292220783d223530252220793d223238382220666f6e81527f742d73697a653d2234322220666f6e742d66616d696c793d226675747572612260208201527f20746578742d616e63686f723d226d6964646c652220646f6d696e616e742d6260408201527030b9b2b634b7329e9136b4b2323632911f60791b606082015260710190565b85610de9565b95945050505050565b73078c6d2e4c6d8ca40e6e8e4ded6ca7a44d0e6d8560631b81528351600090611a0a816014850160208901610be8565b80830190507f2c203737252c203334252922207374726f6b652d6461736861727261793d22356014820152600b60fa1b8060348301528551611a53816035850160208a01610be8565b60359201918201528351611a6e816036840160208801610be8565b7f22207374726f6b652d77696474683d223234222063783d223338382e35222063603692909101918201527f793d223438382220723d22313334222066696c6c3d222330303030303022206f60568201526e3830b1b4ba3c9e911b1c929110179f60891b607682015260850195945050505050565b73078c6d2e4c6d8ca40e6e8e4ded6ca7a44d0e6d8560631b81528451600090611b13816014850160208a01610be8565b7f2c203639252c203535252922207374726f6b652d6461736861727261793d22326014918401918201527f2c3222207374726f6b652d77696474683d2237222063783d223130302220637960348201527707a4468726a4440e47a446c724440ccd2d8d87a44d0e6d8560431b60548201528551611b9781606c840160208a01610be8565b7f2c203639252c203535252922206f7061636974793d2236392522202f3e0000009101606c8101919091527f3c7465787420746578742d616e63686f723d2273746172742220666f6e742d6660898201527f616d696c793d226675747572612220666f6e742d73697a653d2231382220793d60a98201527f223439302220783d223734223e52414e4b3c2f746578743e000000000000000060c982015273078c6d2e4c6d8ca40e6e8e4ded6ca7a44d0e6d8560631b60e1820152610fc9611d02611cd961118c611c6960f5860161154e565b7f2c203639252c203535252922207374726f6b652d6461736861727261793d223281527f2c3222207374726f6b652d77696474683d2237222063783d223637372220637960208201527707a4468726a4440e47a446c724440ccd2d8d87a44d0e6d8560431b604082015260580190565b7f2c203639252c203535252922206f7061636974793d2236392522202f3e0000008152601d0190565b7f3c7465787420746578742d616e63686f723d22656e642220666f6e742d66616d81527f696c793d226675747572612220666f6e742d73697a653d2231382220793d223460208201527f39302220783d22373039223e424f4f53543c2f746578743e0000000000000000604082015260580190565b7f3c7465787420666f6e742d66616d696c793d226675747572612220666f6e742d81527f73697a653d223131312220746578742d616e63686f723d226d6964646c65222060208201527f646f6d696e616e742d626173656c696e653d226d6964646c652220793d22353060408201527f302220783d2235302522207374726f6b652d77696474683d223422207374726f60608201527f6b653d2223666666666666222066696c6c3d2223303030303030223e00000000608082015260008651611e4781609c850160208b01610be8565b661e17ba32bc3a1f60c91b609c918401918201527f3c7465787420666f6e742d7765696768743d22626f6c642220746578742d616e60a38201527f63686f723d226d6964646c652220666f6e742d66616d696c793d22667574757260c38201527f612220666f6e742d73697a653d2232322220793d223531372220783d2231303060e38201526b04440ccd2d8d87a44d0e6d8560a31b61010382015261133d6119cb611f04611936611f236116cf611f1d8461010f89018f610de9565b6c16101b1c9296101b1c9294911f60991b8152600d0190565b8c610de9565b7f3c7465787420666f6e742d7765696768743d22626f6c642220746578742d616e81527f63686f723d226d6964646c652220666f6e742d66616d696c793d22667574757260208201527f612220666f6e742d73697a653d2232322220793d223531372220783d2236373860408201526b04440ccd2d8d87a44d0e6d8560a31b6060820152606c0190565b661e17ba32bc3a1f60c91b81526000611fc860078301611360565b8551611fd8818360208a01610be8565b7f2c3722207374726f6b652d77696474683d2231372220783d2233342220793d2291019081527f363632222077696474683d2237313122206865696768743d2231303022206f7060208201527f61636974793d22383825222066696c6c3d2223303030303030222072783d223560408201526c181110393c9e911a981110179f60991b60608201527f3c74657874207374726f6b652d77696474683d223222207374726f6b653d2223606d8201527f666666666666222066696c6c3d22233030303030302220783d22353025222079608d8201527f3d223731332220666f6e742d73697a653d2234392220666f6e742d66616d696c60ad8201527f793d22636f75726965722220746578742d616e63686f723d226d6964646c652260cd8201527f20646f6d696e616e742d626173656c696e653d226d6964646c65223e2441494d60ed820152620181d160ed1b61010d82015261216861214f610fb5612142610110850189610de9565b600160fd1b815260010190565b6c2927aaa722299e17ba32bc3a1f60991b8152600d0190565b969550505050505056fe4142434445464748494a4b4c4d4e4f505152535455565758595a6162636465666768696a6b6c6d6e6f707172737475767778797a303132333435363738392b2fa26469706673582212200be0dab7b6b1f37eac78f46bc5bca313df987e0f93bb13f09c6b2fb80d5f0b6364736f6c63430008130033",
  "immutableReferences": {},
  "source": "// SPDX-License-Identifier: MIT\npragma solidity ^0.8.19;\n//...............................................................................................................\n//..ZZZZZZZZZ...EEEEEEEEE...RRRRR..........OOOOOO..............AAA.......RRRRR........MMM.....MMM...YY......YY...\n//.ZZZZZZZZZZZ.EEEEEEEEEEE.RRRRRRRRRR.....OOOOOOOOO...........AAAAA.....RRRRRRRRRR...MMMMM...MMMMM.YYYYY...YYYY..\n//.ZZZZZZZZZZZ.EEEEEEEEEEE.RRRRRRRRRRR...OOOOOOOOOO...........AAAAA.....RRRRRRRRRRR..MMMMM...MMMMM.YYYYY..YYYYY..\n//.ZZZZZZZZZZZ.EEEEEEEEEEE.RRRRRRRRRRR..OOOOOOOOOOOO.........AAAAAAA....RRRRRRRRRRR..MMMMMM..MMMMM..YYYY..YYYY...\n//......ZZZZZZ.EEEE........RRRR...RRRRR.OOOO....OOOO.........AAAAAAA....RRRR...RRRRR.MMMMMM.MMMMMM..YYYYYYYYYY...\n//.....ZZZZZZ..EEEEEEEEEE..RRRR...RRRRR.OOOO....OOOOO........AAAAAAA....RRRR...RRRRR.MMMMMM.MMMMMM...YYYYYYYY....\n//.....ZZZZZ...EEEEEEEEEE..RRRRRRRRRRR.OOOO......OOOO.......AAAAAAAAA...RRRRRRRRRRR..MMMMMM.MMMMMM...YYYYYYYY....\n//....ZZZZZ....EEEEEEEEEE..RRRRRRRRRRR.OOOO......OOOO.......AAAA.AAAA...RRRRRRRRRRR..MMMMMM.MMMMMM....YYYYYY.....\n//...ZZZZZ.....EEEEEEEEEE..RRRRRRRRRRR.OOOO......OOOO.......AAAAAAAAAA..RRRRRRRRRRR..MMMMMMMMMMMMM.....YYYYY.....\n//..ZZZZZ......EEEE........RRRR..RRRRR..OOOO....OOOOO......AAAAAAAAAAA..RRRR..RRRRR..MMM.MMMMMMMMM.....YYYY......\n//.ZZZZZZ......EEEE........RRRR...RRRR..OOOO....OOOO.......AAAAAAAAAAA..RRRR...RRRR..MMM.MMMMM.MMM.....YYYY......\n//.ZZZZZZZZZZZ.EEEEEEEEEEE.RRRR...RRRR..OOOOOOOOOOOO.......AAAAAAAAAAAA.RRRR...RRRR..MMM.MMMMM.MMM.....YYYY......\n//.ZZZZZZZZZZZ.EEEEEEEEEEE.RRRR...RRRR...OOOOOOOOOO....... AAAA....AAAA.RRRR...RRRR..MMM.MMMMM.MMM.....YYYY......\n//.ZZZZZZZZZZZ.EEEEEEEEEEE.RRRR...RRRRR...OOOOOOOOO....... AAA.....AAAA.RRRR...RRRRR.MMM.MMMMM.MMM.....YYYY......\n//.........................................OOOOOO................................................................\n//...............................................................................................................\n/// @author Simon G.Ionashku - find me on github: simon-masterclass\n/// @title Bravo Library\n/// @dev This library is used to render the Bravo Company NFTs and their metadata\n\nimport \"@openzeppelin/contracts/utils/Strings.sol\";\nimport \"@openzeppelin/contracts/utils/Base64.sol\";\n\nlibrary BravoLibrary {\n    using Strings for uint256;\n\n    //struct for cramming all the variables together to avoid stack too deep error\n    struct Stack2deep {\n        uint256 tokenId;\n        uint256 color1;\n        string comp2Color1;\n        string rank;\n        string bravoBoost;\n        string codeName;\n        string returnBalance;\n        string unitName;\n    }\n\n    function calculateUnits(\n        uint balance\n    )\n        public\n        pure\n        returns (string memory returnBalance, string memory unitName)\n    {\n        //calculate units\n        if (uint256(balance / (10 ** 18)) > 0) {\n            returnBalance = (balance / (10 ** 18)).toString();\n            unitName = \"\";\n        } else if (uint256(balance / (10 ** 16)) > 0) {\n            returnBalance = (balance / (10 ** 16)).toString();\n            unitName = \"CENTI-\";\n        } else if (uint256(balance / (10 ** 12)) > 0) {\n            returnBalance = (balance / (10 ** 12)).toString();\n            unitName = \"MICRO-\";\n        } else if (uint256(balance / (10 ** 9)) > 0) {\n            returnBalance = (balance / (10 ** 9)).toString();\n            unitName = \"NANO-\";\n        } else if (uint256(balance / (10 ** 6)) > 0) {\n            returnBalance = (balance / (10 ** 6)).toString();\n            unitName = \"PICO-\";\n        } else if (uint256(balance / (10 ** 3)) > 0) {\n            returnBalance = (balance / (10 ** 3)).toString();\n            unitName = \"FEMTO-\";\n        } else {\n            returnBalance = balance.toString();\n            unitName = \"ATTO-\";\n        }\n\n        return (returnBalance, unitName);\n    }\n\n    function randomNum(\n        uint256 _modulus,\n        uint256 _seed,\n        uint256 _salt\n    ) public view returns (uint256) {\n        uint256 randomNumber = uint256(\n            keccak256(\n                abi.encodePacked(block.timestamp, msg.sender, _salt, _seed)\n            )\n        );\n        return randomNumber % _modulus;\n    }\n\n    function calcComplimentColor(\n        uint256 compNum\n    ) internal pure returns (uint256) {\n        uint256 comp = compNum + 180;\n        if (comp > 360) {\n            comp = comp - 360;\n        }\n        return comp;\n    }\n\n    function renderHelper0(\n        Stack2deep memory stack2deep\n    ) internal pure returns (bytes memory) {\n        if(stack2deep.tokenId == 0) {\n        return\n            abi.encodePacked(\n                '<rect stroke=\"#000000\" stroke-dasharray=\"2,2,',\n                (stack2deep.color1 % 13).toString(),\n                ',7\" stroke-width=\"17\" x=\"34\" y=\"34\" width=\"711\" height=\"280\" opacity=\"88%\" fill=\"#000000\" rx=\"50\" ry=\"50\" />',\n                '<text fill=\"#ffffff\" x=\"50%\" y=\"125\" font-size=\"111\" font-family=\"futura\" text-anchor=\"middle\" dominant-baseline=\"middle\">ZERO ARMY</text>',\n                '<text fill=\"hsl(',\n                stack2deep.comp2Color1,\n                ', 69%, 55%)\" stroke=\"hsl(',\n                stack2deep.color1.toString(),\n                ', 69%, 50%)\" x=\"50%\" y=\"209\" stroke-width=\"3\" font-size=\"69\" font-family=\"futura\" text-anchor=\"middle\" dominant-baseline=\"middle\">BRAVO COMPANY</text>',\n                '<text stroke-width=\"2\" stroke=\"#ffffff\" fill=\"#000000\" x=\"50%\" y=\"265\" font-size=\"49\" font-family=\"courier\" text-anchor=\"middle\" dominant-baseline=\"middle\">',\n                stack2deep.codeName,\n                \"</text>\"\n            );\n        } else {\n        return\n            abi.encodePacked(\n                '<rect transform=\"rotate(-45 388.5 42)\" stroke-width=\"22\" fill=\"#000\" x=\"0\" y=\"-346.5\" width=\"777\" height=\"777\" />',\n                '<text fill=\"#ffffff\" x=\"50%\" y=\"117\" font-size=\"122\" font-family=\"futura\" text-anchor=\"middle\" dominant-baseline=\"middle\">ZERO ARMY</text>',\n                '<text fill=\"#000000\" stroke=\"hsl(',\n                stack2deep.comp2Color1,\n                ', 69%, 50%)\" x=\"50%\" y=\"222\" stroke-width=\"4\" font-size=\"69\" font-family=\"futura\" text-anchor=\"middle\" dominant-baseline=\"middle\">BRAVO COMPANY</text>'\n                '<text fill=\"hsl(',\n                stack2deep.color1.toString(),\n                ', 69%, 69%)\" x=\"50%\" y=\"288\" font-size=\"42\" font-family=\"futura\" text-anchor=\"middle\" dominant-baseline=\"middle\">',\n                stack2deep.codeName,\n                \"</text>\"\n            );\n        }\n    }\n\n    function renderHelper1(\n        uint256 color1,\n        string memory comp2Color1\n    ) internal view returns (bytes memory) {\n        return\n            abi.encodePacked(\n                '<circle stroke=\"hsl(',\n                comp2Color1,\n                ', 77%, 34%)\" stroke-dasharray=\"5,',\n                (color1 % 34).toString(),\n                \",\",\n                randomNum(69, 2, 7).toString(),\n                '\" stroke-width=\"24\" cx=\"388.5\" cy=\"488\" r=\"134\" fill=\"#000000\" opacity=\"69%\" />'\n            );\n    }\n\n    function renderHelper2(\n        uint256 tokenId,\n        string memory color1,\n        string memory comp2Color1\n    ) internal pure returns (bytes memory) {\n        if (tokenId == 0) {\n            return \"\";\n        } else {\n            return\n                abi.encodePacked(\n                    '<circle stroke=\"hsl(',\n                    comp2Color1,\n                    ', 69%, 55%)\" stroke-dasharray=\"2,2\" stroke-width=\"7\" cx=\"100\" cy=\"495\" r=\"69\" fill=\"hsl(',\n                    color1,\n                    ', 69%, 55%)\" opacity=\"69%\" />',\n                    '<text text-anchor=\"start\" font-family=\"futura\" font-size=\"18\" y=\"490\" x=\"74\">RANK</text>',\n                    '<circle stroke=\"hsl(',\n                    comp2Color1,\n                    ', 69%, 55%)\" stroke-dasharray=\"2,2\" stroke-width=\"7\" cx=\"677\" cy=\"495\" r=\"69\" fill=\"hsl(',\n                    color1,\n                    ', 69%, 55%)\" opacity=\"69%\" />',\n                    '<text text-anchor=\"end\" font-family=\"futura\" font-size=\"18\" y=\"490\" x=\"709\">BOOST</text>'\n                );\n        }\n    }\n\n    function renderHelper3(\n        Stack2deep memory stack2deep\n    ) internal pure returns (bytes memory) {\n        string memory tokenId = stack2deep.tokenId.toString();\n\n        if (stack2deep.tokenId == 0) {\n            stack2deep.bravoBoost = stack2deep.rank = \"\";\n            tokenId = \"O\";\n        }\n\n        return\n            abi.encodePacked(\n                '<text font-family=\"futura\" font-size=\"111\" text-anchor=\"middle\" dominant-baseline=\"middle\" y=\"500\" x=\"50%\" stroke-width=\"4\" stroke=\"#ffffff\" fill=\"#000000\">',\n                tokenId,\n                \"</text>\",\n                '<text font-weight=\"bold\" text-anchor=\"middle\" font-family=\"futura\" font-size=\"22\" y=\"517\" x=\"100\" fill=\"hsl(',\n                stack2deep.comp2Color1,\n                ', 69%, 69%)\">',\n                stack2deep.rank,\n                \"</text>\",\n                '<text font-weight=\"bold\" text-anchor=\"middle\" font-family=\"futura\" font-size=\"22\" y=\"517\" x=\"678\" fill=\"hsl(',\n                stack2deep.comp2Color1,\n                ', 69%, 69%)\">',\n                stack2deep.bravoBoost\n            );\n    }\n\n    function renderHelper4(\n        Stack2deep memory stack2deep\n    ) internal pure returns (bytes memory) {\n        return\n            abi.encodePacked(\n                \"</text>\",\n                '<rect stroke=\"#000000\" stroke-dasharray=\"2,2,',\n                (stack2deep.color1 % 21).toString(),\n                ',7\" stroke-width=\"17\" x=\"34\" y=\"662\" width=\"711\" height=\"100\" opacity=\"88%\" fill=\"#000000\" rx=\"50\" ry=\"50\" />',\n                '<text stroke-width=\"2\" stroke=\"#ffffff\" fill=\"#000000\" x=\"50%\" y=\"713\" font-size=\"49\" font-family=\"courier\" text-anchor=\"middle\" dominant-baseline=\"middle\">$AIM0: ',\n                stack2deep.returnBalance,\n                \" \",\n                stack2deep.unitName,\n                \"ROUNDS</text>\"\n            );\n    }\n\n    function renderSVG(\n        Stack2deep memory stack2deep\n    ) public view returns (string memory) {\n        return\n            Base64.encode(\n                bytes(\n                    abi.encodePacked(\n                        '<svg width=\"777\" height=\"777\" xmlns=\"http://www.w3.org/2000/svg\">',\n                        '<circle stroke=\"hsl(',\n                        stack2deep.comp2Color1,\n                        ', 69%, 55%)\" stroke-dasharray=\"5,2,2,2,2,2\" stroke-width=\"48\" cx=\"388.5\" cy=\"488\" r=\"134\" fill=\"#000000\" />',\n                        renderHelper0(stack2deep),\n                        renderHelper1(\n                            stack2deep.color1,\n                            stack2deep.comp2Color1\n                        ),\n                        renderHelper2(\n                            stack2deep.tokenId,\n                            stack2deep.color1.toString(),\n                            stack2deep.comp2Color1\n                        ),\n                        renderHelper3(stack2deep),\n                        renderHelper4(stack2deep),\n                        \"</svg>\"\n                    )\n                )\n            );\n    }\n\n    function returnAttributes(\n        uint256 tokenId,\n        string memory rank,\n        string memory bravoBoost,\n        uint256 missionCoinsEarned\n    ) internal pure returns (bytes memory) {\n        (string memory missionCoinBalance, string memory coinUnits) = calculateUnits(missionCoinsEarned);\n        if (tokenId == 0)\n        {\n            return \"\";\n        } else {\n            return\n                abi.encodePacked(\n                    '\"attributes\":[{\"trait_type\":\"Rank\",\"value\":',\n                                rank,\n                                \"},\",\n                                '{\"trait_type\":\"Mission Coins Earned | Units: ', \n                                coinUnits,\n                                'Z3R0s\",\"value\":',\n                                missionCoinBalance,\n                                \"},\",\n                                '{\"display_type\": \"boost_number\",\"trait_type\":\"Bravo Boost\",\"value\":',\n                                bravoBoost,\n                                \"}], \"\n            );\n        }\n    }\n\n    function returnMetadata(\n        uint256 tokenId,\n        string memory rank,\n        string memory bravoBoost,\n        string memory codeName,\n        string memory returnBalance,\n        string memory unitName,\n        uint256 missionCoinsEarned\n    ) public view returns (string memory) {\n        uint256 color1 = randomNum(361, 3, 4);\n        string memory comp2Color1 = calcComplimentColor(color1).toString();\n        string memory bravoTitle = \"BRAVO #\";\n\n        if (tokenId == 0) {\n            bravoTitle = \"[burnable] $AIM\";\n        }\n\n        Stack2deep memory stack2deep = Stack2deep(\n            tokenId,\n            color1,\n            comp2Color1,\n            rank,\n            bravoBoost,\n            codeName,\n            returnBalance,\n            unitName\n        );\n\n        return\n            string(\n                abi.encodePacked(\n                    \"data:application/json;base64,\",\n                    Base64.encode(\n                        bytes(\n                            abi.encodePacked(\n                                '{\"name\":\"',\n                                bravoTitle,\n                                tokenId.toString(),\n                                '\", \"description\": \"Bravo Company collection - 200 Zero Army founders series NFTs [semi-fungible] with soulbound burnable $AIM0 - burn and earn Mission Coins in the Zero Army MetaSERVE!',\n                                '\", \"external_url\":\"https://zeroarmy.org/bravo\", ',\n                                returnAttributes(tokenId ,rank, bravoBoost, missionCoinsEarned),\n                                '\"image\": \"data:image/svg+xml;base64,',\n                                renderSVG(stack2deep),\n                                '\"}'\n                            )\n                        )\n                    )\n                )\n            );\n    }\n}\n",
  "sourcePath": "/Users/c0/Documents/CODE/Zero_Army/Bravo/0xTruffleBravo/contracts/BravoLibrary.sol",
  "compiler": {
    "name": "solc",
    "version": "0.8.19+commit.7dd6d404.Emscripten.clang"
  },
  "schemaVersion": "3.4.14",
  "updatedAt": "2023-07-26T16:21:46.248Z",
  "devdoc": {
    "kind": "dev",
    "methods": {},
    "version": 1
  },
  "userdoc": {
    "kind": "user",
    "methods": {},
    "version": 1
  }
}