{
  "contractName": "BravoLibrary",
  "abi": [
    {
      "inputs": [
        {
          "internalType": "uint256",
          "name": "balance",
          "type": "uint256"
        }
      ],
      "name": "calculateUnits",
      "outputs": [
        {
          "internalType": "string",
          "name": "returnBalance",
          "type": "string"
        },
        {
          "internalType": "string",
          "name": "unitName",
          "type": "string"
        }
      ],
      "stateMutability": "pure",
      "type": "function"
    },
    {
      "inputs": [
        {
          "internalType": "uint256",
          "name": "_modulus",
          "type": "uint256"
        },
        {
          "internalType": "uint256",
          "name": "_seed",
          "type": "uint256"
        },
        {
          "internalType": "uint256",
          "name": "_salt",
          "type": "uint256"
        }
      ],
      "name": "randomNum",
      "outputs": [
        {
          "internalType": "uint256",
          "name": "",
          "type": "uint256"
        }
      ],
      "stateMutability": "view",
      "type": "function"
    },
    {
      "inputs": [
        {
          "components": [
            {
              "internalType": "uint256",
              "name": "tokenId",
              "type": "uint256"
            },
            {
              "internalType": "uint256",
              "name": "color1",
              "type": "uint256"
            },
            {
              "internalType": "string",
              "name": "comp2Color1",
              "type": "string"
            },
            {
              "internalType": "string",
              "name": "rank",
              "type": "string"
            },
            {
              "internalType": "string",
              "name": "bravoBoost",
              "type": "string"
            },
            {
              "internalType": "string",
              "name": "codeName",
              "type": "string"
            },
            {
              "internalType": "string",
              "name": "returnBalance",
              "type": "string"
            },
            {
              "internalType": "string",
              "name": "unitName",
              "type": "string"
            }
          ],
          "internalType": "struct BravoLibrary.Stack2deep",
          "name": "stack2deep",
          "type": "tuple"
        }
      ],
      "name": "renderSVG",
      "outputs": [
        {
          "internalType": "string",
          "name": "",
          "type": "string"
        }
      ],
      "stateMutability": "view",
      "type": "function"
    },
    {
      "inputs": [
        {
          "internalType": "uint256",
          "name": "tokenId",
          "type": "uint256"
        },
        {
          "internalType": "string",
          "name": "rank",
          "type": "string"
        },
        {
          "internalType": "string",
          "name": "bravoBoost",
          "type": "string"
        },
        {
          "internalType": "string",
          "name": "codeName",
          "type": "string"
        },
        {
          "internalType": "string",
          "name": "returnBalance",
          "type": "string"
        },
        {
          "internalType": "string",
          "name": "unitName",
          "type": "string"
        },
        {
          "internalType": "string",
          "name": "missionCoinsEarned",
          "type": "string"
        }
      ],
      "name": "returnMetadata",
      "outputs": [
        {
          "internalType": "string",
          "name": "",
          "type": "string"
        }
      ],
      "stateMutability": "view",
      "type": "function"
    }
  ],
  "bytecode": "0x611db4610053600b82828239805160001a607314610046577f4e487b7100000000000000000000000000000000000000000000000000000000600052600060045260246000fd5b30600052607381538281f3fe73000000000000000000000000000000000000000030146080604052600436106100565760003560e01c8063282946401461005b5780632e0a95f4146100815780633693698c146100a25780637a407315146100c2575b600080fd5b61006e6100693660046109b2565b6100d5565b6040519081526020015b60405180910390f35b61009461008f3660046109de565b610138565b604051610078929190610a47565b6100b56100b0366004610b39565b610376565b6040516100789190610c6f565b6100b56100d0366004610c82565b6103f1565b60408051426020808301919091523360601b6bffffffffffffffffffffffff191682840152605482018490526074808301869052835180840390910181526094909201909252805191012060009061012d8582610d98565b9150505b9392505050565b606080600061014f670de0b6b3a764000085610dc2565b11156101975761016f61016a670de0b6b3a764000085610dc2565b610508565b915060405180604001604052806006815260200165524f554e445360d01b8152509050915091565b60006101aa662386f26fc1000085610dc2565b11156101f2576101c461016a662386f26fc1000085610dc2565b91506040518060400160405280600c81526020016b43454e54492d524f554e445360a01b8152509050915091565b600061020364e8d4a5100085610dc2565b11156102495761021b61016a64e8d4a5100085610dc2565b91506040518060400160405280600c81526020016b4d4943524f2d524f554e445360a01b8152509050915091565b6000610259633b9aca0085610dc2565b111561029d5761027061016a633b9aca0085610dc2565b91506040518060400160405280600b81526020016a4e414e4f2d524f554e445360a81b8152509050915091565b60006102ac620f424085610dc2565b11156102ef576102c261016a620f424085610dc2565b91506040518060400160405280600b81526020016a5049434f2d524f554e445360a81b8152509050915091565b60006102fd6103e885610dc2565b11156103405761031261016a6103e885610dc2565b91506040518060400160405280600c81526020016b46454d544f2d524f554e445360a01b8152509050915091565b61034983610508565b91506040518060400160405280600b81526020016a4154544f2d524f554e445360a81b8152509050915091565b60606103eb82604001516103928460200151856040015161059b565b6103b185600001516103a78760200151610508565b87604001516105e8565b6103ba86610634565b6103c3876106c2565b6040516020016103d7959493929190610df2565b60405160208183030381529060405261071e565b92915050565b60606000610404610169600360046100d5565b9050600061041461016a83610885565b604080518082019091526007815266425241564f202360c81b602082015290915060008b9003610466575060408051808201909152600f81526e5b66756e6769626c655d202441494d60881b60208201525b60006040518061010001604052808d81526020018581526020018481526020018c81526020018b81526020018a81526020018981526020018881525090506104d8826104b18e610508565b6104bc8e8e8b6108ab565b6104c585610376565b6040516020016103d79493929190611008565b6040516020016104e89190611167565b604051602081830303815290604052945050505050979650505050505050565b60606000610515836108da565b600101905060008167ffffffffffffffff81111561053557610535610a6c565b6040519080825280601f01601f19166020018201604052801561055f576020820181803683370190505b5090508181016020015b600019016f181899199a1a9b1b9c1cb0b131b232b360811b600a86061a8153600a850494508461056957509392505050565b6060816105ac61016a602286610d98565b6105bd61016a6045600260076100d5565b846040516020016105d194939291906111ac565b604051602081830303815290604052905092915050565b6060836000036106075750604080516020810190915260008152610131565b8183838560405160200161061e949392919061142b565b6040516020818303038152906040529050610131565b606060006106458360000151610508565b83519091506000036106865750604080516020808201835260008252606085018290526080850191909152815180830190925260018252604f60f81b908201525b6040808401516060850151608086015192516106ab93859392918391906020016116c1565b604051602081830303815290604052915050919050565b60606106d18260200151610508565b8260a001516106ea6015856020015161016a9190610d98565b8460c001518560e00151604051602001610708959493929190611922565b6040516020818303038152906040529050919050565b6060815160000361073d57505060408051602081019091526000815290565b6000604051806060016040528060408152602001611d3f604091399050600060038451600261076c9190611bc9565b6107769190610dc2565b610781906004611bdc565b90506000610790826020611bc9565b67ffffffffffffffff8111156107a8576107a8610a6c565b6040519080825280601f01601f1916602001820160405280156107d2576020820181803683370190505b509050818152600183018586518101602084015b818310156108405760039283018051603f601282901c811687015160f890811b8552600c83901c8216880151811b6001860152600683901c8216880151811b60028601529116860151901b938201939093526004016107e6565b60038951066001811461085a576002811461086b57610877565b613d3d60f01b600119830152610877565b603d60f81b6000198301525b509398975050505050505050565b6000806108938360b4611bc9565b90506101688111156103eb5761013161016882611bf3565b60608383836040516020016108c293929190611c06565b60405160208183030381529060405290509392505050565b60008072184f03e93ff9f4daa797ed6e38ed64bf6a1f0160401b83106109195772184f03e93ff9f4daa797ed6e38ed64bf6a1f0160401b830492506040015b6d04ee2d6d415b85acef81000000008310610945576d04ee2d6d415b85acef8100000000830492506020015b662386f26fc10000831061096357662386f26fc10000830492506010015b6305f5e100831061097b576305f5e100830492506008015b612710831061098f57612710830492506004015b606483106109a1576064830492506002015b600a83106103eb5760010192915050565b6000806000606084860312156109c757600080fd5b505081359360208301359350604090920135919050565b6000602082840312156109f057600080fd5b5035919050565b60005b83811015610a125781810151838201526020016109fa565b50506000910152565b60008151808452610a338160208601602086016109f7565b601f01601f19169290920160200192915050565b604081526000610a5a6040830185610a1b565b828103602084015261012d8185610a1b565b634e487b7160e01b600052604160045260246000fd5b604051610100810167ffffffffffffffff81118282101715610aa657610aa6610a6c565b60405290565b600082601f830112610abd57600080fd5b813567ffffffffffffffff80821115610ad857610ad8610a6c565b604051601f8301601f19908116603f01168101908282118183101715610b0057610b00610a6c565b81604052838152866020858801011115610b1957600080fd5b836020870160208301376000602085830101528094505050505092915050565b600060208284031215610b4b57600080fd5b813567ffffffffffffffff80821115610b6357600080fd5b908301906101008286031215610b7857600080fd5b610b80610a82565b8235815260208301356020820152604083013582811115610ba057600080fd5b610bac87828601610aac565b604083015250606083013582811115610bc457600080fd5b610bd087828601610aac565b606083015250608083013582811115610be857600080fd5b610bf487828601610aac565b60808301525060a083013582811115610c0c57600080fd5b610c1887828601610aac565b60a08301525060c083013582811115610c3057600080fd5b610c3c87828601610aac565b60c08301525060e083013582811115610c5457600080fd5b610c6087828601610aac565b60e08301525095945050505050565b6020815260006101316020830184610a1b565b600080600080600080600060e0888a031215610c9d57600080fd5b87359650602088013567ffffffffffffffff80821115610cbc57600080fd5b610cc88b838c01610aac565b975060408a0135915080821115610cde57600080fd5b610cea8b838c01610aac565b965060608a0135915080821115610d0057600080fd5b610d0c8b838c01610aac565b955060808a0135915080821115610d2257600080fd5b610d2e8b838c01610aac565b945060a08a0135915080821115610d4457600080fd5b610d508b838c01610aac565b935060c08a0135915080821115610d6657600080fd5b50610d738a828b01610aac565b91505092959891949750929550565b634e487b7160e01b600052601260045260246000fd5b600082610da757610da7610d82565b500690565b634e487b7160e01b600052601160045260246000fd5b600082610dd157610dd1610d82565b500490565b60008151610de88185602086016109f7565b9290920192915050565b7f3c7376672077696474683d2237373722206865696768743d223737372220786d81527f6c6e733d22687474703a2f2f7777772e77332e6f72672f323030302f737667226020820152601f60f91b604082015273078c6d2e4c6d8ca40e6e8e4ded6ca7a44d0e6d8560631b604182015260008651610e77816055850160208b016109f7565b7f2c203639252c203535252922207374726f6b652d6461736861727261793d22356055918401918201527f2c322c322c322c322c3222207374726f6b652d77696474683d2234382220637860758201527f3d223338382e35222063793d223438382220723d22313334222066696c6c3d2260958201526a119818181818181110179f60a91b60b58201528651610f148160c0840160208b016109f7565b610ffb610fe9610fe3610fdd610fd760c0868801017f3c746578742066696c6c3d22236666666666662220783d223530252220793d2281527f3131372220666f6e742d73697a653d223132322220666f6e742d66616d696c7960208201527f3d226675747572612220746578742d616e63686f723d226d6964646c6522206460408201527f6f6d696e616e742d626173656c696e653d226d6964646c65223e5a45524f20416060820152692926ac9e17ba32bc3a1f60b11b6080820152608a0190565b8b610dd6565b89610dd6565b87610dd6565b651e17b9bb339f60d11b815260060190565b9998505050505050505050565b683d913730b6b2911d1160b91b8152845160009061102d816009850160208a016109f7565b855190830190611044816009840160208a016109f7565b7f222c20226465736372697074696f6e223a2022427261766f20436f6d70616e79600992909101918201527f204e465420636f6c6c656374696f6e202d20323030205a65726f2041726d79206029820152753337bab73232b9399039b2b934b2b99027232a39971160511b60498201527f222c202265787465726e616c5f75726c223a2268747470733a2f2f7a65726f61605f8201526d3936bc9737b93397b13930bb379160911b607f820152845161110481608d8401602089016109f7565b7f2c2022696d616765223a2022646174613a696d6167652f7376672b786d6c3b62608d929091019182015265185cd94d8d0b60d21b60ad82015261115c61114e60b3830186610dd6565b61227d60f01b815260020190565b979650505050505050565b7f646174613a6170706c69636174696f6e2f6a736f6e3b6261736536342c00000081526000825161119f81601d8501602087016109f7565b91909101601d0192915050565b7f3c72656374207472616e73666f726d3d22726f74617465282d3435203338382e81527f352034322922207374726f6b652d77696474683d223232222066696c6c3d222360208201527f3030302220783d22302220793d222d3334362e35222077696474683d2237373760408201527011103432b4b3b43a1e911b9b9b9110179f60791b606082015273078c6d2e4c6d8ca40e6e8e4ded6ca7a44d0e6d8560631b607182015260008551611267816085850160208a016109f7565b80830190507f2c203737252c203334252922207374726f6b652d6461736861727261793d22356085820152600b60fa1b8060a583015286516112b08160a6850160208b016109f7565b60a692019182015261115c61137161136b6113386112d160a786018a610dd6565b7f22207374726f6b652d77696474683d223234222063783d223338382e3522206381527f793d223438382220723d22313334222066696c6c3d222330303030303022206f60208201526e3830b1b4ba3c9e911b1c929110179f60891b6040820152604f0190565b7f3c746578742066696c6c3d222330303030303022207374726f6b653d2268736c8152600560fb1b602082015260210190565b86610dd6565b7f2c203639252c20353025292220783d223530252220793d22323232222073747281527f6f6b652d77696474683d22322220666f6e742d73697a653d2236392220666f6e60208201527f742d66616d696c793d226675747572612220746578742d616e63686f723d226d60408201527f6964646c652220646f6d696e616e742d626173656c696e653d226d6964646c65606082015275111f212920ab279021a7a6a820a72c9e17ba32bc3a1f60511b608082015260960190565b73078c6d2e4c6d8ca40e6e8e4ded6ca7a44d0e6d8560631b8152845160009061145b816014850160208a016109f7565b7f2c203639252c203535252922207374726f6b652d6461736861727261793d22326014918401918201527f2c3222207374726f6b652d77696474683d2237222063783d223130302220637960348201527707a4468726a4440e47a446c724440ccd2d8d87a44d0e6d8560431b605482015285516114df81606c840160208a016109f7565b7f2c203639252c203535252922206f7061636974793d2236392522202f3e0000009101606c8101919091527f3c7465787420746578742d616e63686f723d2273746172742220666f6e742d6660898201527f616d696c793d226675747572612220666f6e742d73697a653d2231382220793d60a98201527f223439302220783d223734223e52414e4b3c2f746578743e000000000000000060c982015273078c6d2e4c6d8ca40e6e8e4ded6ca7a44d0e6d8560631b60e182015261115c61164c611623610fe36115b360f586015b8a610dd6565b7f2c203639252c203535252922207374726f6b652d6461736861727261793d223281527f2c3222207374726f6b652d77696474683d2237222063783d223637372220637960208201527707a4468726a4440e47a446c724440ccd2d8d87a44d0e6d8560431b604082015260580190565b7f2c203639252c203535252922206f7061636974793d2236392522202f3e0000008152601d0190565b7f3c7465787420746578742d616e63686f723d22656e642220666f6e742d66616d81527f696c793d226675747572612220666f6e742d73697a653d2231382220793d223460208201527f39302220783d22373039223e424f4f53543c2f746578743e0000000000000000604082015260580190565b7f3c7465787420666f6e742d66616d696c793d226675747572612220666f6e742d81527f73697a653d223131312220746578742d616e63686f723d226d6964646c65222060208201527f646f6d696e616e742d626173656c696e653d226d6964646c652220793d22353060408201527f302220783d2235302522207374726f6b652d77696474683d223422207374726f60608201527f6b653d2223666666666666222066696c6c3d2223303030303030223e0000000060808201526000865161179181609c850160208b016109f7565b661e17ba32bc3a1f60c91b609c918401918201527f3c7465787420666f6e742d7765696768743d22626f6c642220746578742d616e60a38201527f63686f723d226d6964646c652220666f6e742d66616d696c793d22667574757260c38201527f612220666f6e742d73697a653d2232322220793d223531372220783d2231303060e38201526b04440ccd2d8d87a44d0e6d8560a31b61010382015261191661191061184e61190a61188061186d6118678461010f89018f610dd6565b6c16101b1c9296101b1c9294911f60991b8152600d0190565b8c610dd6565b661e17ba32bc3a1f60c91b815260070190565b7f3c7465787420666f6e742d7765696768743d22626f6c642220746578742d616e81527f63686f723d226d6964646c652220666f6e742d66616d696c793d22667574757260208201527f612220666f6e742d73697a653d2232322220793d223531372220783d2236373860408201526b04440ccd2d8d87a44d0e6d8560a31b6060820152606c0190565b88610dd6565b85610dd6565b98975050505050505050565b6000661e17ba32bc3a1f60c91b8083526f078e8caf0e840ccd2d8d87a44d0e6d8560831b6007840152875161195e816017860160208c016109f7565b7f2c203639252c20363925292220783d223530252220793d223238382220666f6e6017918501918201527f742d73697a653d2234322220666f6e742d66616d696c793d226675747572612260378201527f20746578742d616e63686f723d226d6964646c652220646f6d696e616e742d6260578201527030b9b2b634b7329e9136b4b2323632911f60791b60778201528751611a01816088840160208c016109f7565b01608881018290527f3c72656374207374726f6b653d222330303030303022207374726f6b652d6461608f8201526c1cda185c9c985e4f488c8b0c8b609a1b60af820152610ffb61186d610fe3611bbc6115ad611aef611a6460bc88018e610dd6565b7f2c3722207374726f6b652d77696474683d2231372220783d2233342220793d2281527f363632222077696474683d2237313122206865696768743d2231303022206f7060208201527f61636974793d22383825222066696c6c3d2223303030303030222072783d223560408201526c181110393c9e911a981110179f60991b6060820152606d0190565b7f3c74657874207374726f6b652d77696474683d223222207374726f6b653d222381527f666666666666222066696c6c3d22233030303030302220783d2235302522207960208201527f3d223731332220666f6e742d73697a653d2234392220666f6e742d66616d696c60408201527f793d22636f75726965722220746578742d616e63686f723d226d6964646c652260608201527f20646f6d696e616e742d626173656c696e653d226d6964646c65223e2441494d6080820152620181d160ed1b60a082015260a30190565b600160fd1b815260010190565b808201808211156103eb576103eb610dac565b80820281158282048414176103eb576103eb610dac565b818103818111156103eb576103eb610dac565b7f222c202261747472696275746573223a5b7b2274726169745f74797065223a2281526d2930b7359116113b30b63ab2911d60911b602082015260008451611c5581602e8501602089016109f7565b611f4b60f21b602e9184019182018190527f7b22646973706c61795f74797065223a2022626f6f73745f6e756d626572222c60308301527f2274726169745f74797065223a22427261766f20426f6f7374222c2276616c7560508301526232911d60e91b60708301528551611cd1816073850160208a016109f7565b60739201918201527f7b2274726169745f74797065223a224d697373696f6e20436f696e732045617260758201526d3732b21116113b30b63ab2911d1160911b6095820152611d34611d2660a3830186610dd6565b617d5d60f01b815260020190565b969550505050505056fe4142434445464748494a4b4c4d4e4f505152535455565758595a6162636465666768696a6b6c6d6e6f707172737475767778797a303132333435363738392b2fa2646970667358221220fa4d9d892e5ad6dbc95a62168dbd0298f2cf62c220c748a2b2e016d08b4e26e564736f6c63430008130033",
  "immutableReferences": {},
  "source": "// SPDX-License-Identifier: MIT\npragma solidity ^0.8.19;\n//...............................................................................................................\n//..ZZZZZZZZZ...EEEEEEEEE...RRRRR..........OOOOOO..............AAA.......RRRRR........MMM.....MMM...YY......YY...\n//.ZZZZZZZZZZZ.EEEEEEEEEEE.RRRRRRRRRR.....OOOOOOOOO...........AAAAA.....RRRRRRRRRR...MMMMM...MMMMM.YYYYY...YYYY..\n//.ZZZZZZZZZZZ.EEEEEEEEEEE.RRRRRRRRRRR...OOOOOOOOOO...........AAAAA.....RRRRRRRRRRR..MMMMM...MMMMM.YYYYY..YYYYY..\n//.ZZZZZZZZZZZ.EEEEEEEEEEE.RRRRRRRRRRR..OOOOOOOOOOOO.........AAAAAAA....RRRRRRRRRRR..MMMMMM..MMMMM..YYYY..YYYY...\n//......ZZZZZZ.EEEE........RRRR...RRRRR.OOOO....OOOO.........AAAAAAA....RRRR...RRRRR.MMMMMM.MMMMMM..YYYYYYYYYY...\n//.....ZZZZZZ..EEEEEEEEEE..RRRR...RRRRR.OOOO....OOOOO........AAAAAAA....RRRR...RRRRR.MMMMMM.MMMMMM...YYYYYYYY....\n//.....ZZZZZ...EEEEEEEEEE..RRRRRRRRRRR.OOOO......OOOO.......AAAAAAAAA...RRRRRRRRRRR..MMMMMM.MMMMMM...YYYYYYYY....\n//....ZZZZZ....EEEEEEEEEE..RRRRRRRRRRR.OOOO......OOOO.......AAAA.AAAA...RRRRRRRRRRR..MMMMMM.MMMMMM....YYYYYY.....\n//...ZZZZZ.....EEEEEEEEEE..RRRRRRRRRRR.OOOO......OOOO.......AAAAAAAAAA..RRRRRRRRRRR..MMMMMMMMMMMMM.....YYYYY.....\n//..ZZZZZ......EEEE........RRRR..RRRRR..OOOO....OOOOO......AAAAAAAAAAA..RRRR..RRRRR..MMM.MMMMMMMMM.....YYYY......\n//.ZZZZZZ......EEEE........RRRR...RRRR..OOOO....OOOO.......AAAAAAAAAAA..RRRR...RRRR..MMM.MMMMM.MMM.....YYYY......\n//.ZZZZZZZZZZZ.EEEEEEEEEEE.RRRR...RRRR..OOOOOOOOOOOO.......AAAAAAAAAAAA.RRRR...RRRR..MMM.MMMMM.MMM.....YYYY......\n//.ZZZZZZZZZZZ.EEEEEEEEEEE.RRRR...RRRR...OOOOOOOOOO....... AAAA....AAAA.RRRR...RRRR..MMM.MMMMM.MMM.....YYYY......\n//.ZZZZZZZZZZZ.EEEEEEEEEEE.RRRR...RRRRR...OOOOOOOOO....... AAA.....AAAA.RRRR...RRRRR.MMM.MMMMM.MMM.....YYYY......\n//.........................................OOOOOO................................................................\n//...............................................................................................................\n/// @author Simon G.Ionashku - find me on github: simon-masterclass\n\nimport \"@openzeppelin/contracts/utils/Strings.sol\";\nimport \"./Base64.sol\";\n\nlibrary BravoLibrary {\n    using Strings for uint256;\n    using Base64 for bytes;\n\n    //struct for cramming all the variables together to avoid stack too deep error\n    struct Stack2deep {\n        uint256 tokenId;\n        uint256 color1;\n        string comp2Color1;\n        string rank;\n        string bravoBoost;\n        string codeName;\n        string returnBalance;\n        string unitName;\n    }\n\n    function calculateUnits(\n        uint balance\n    )\n        public\n        pure\n        returns (string memory returnBalance, string memory unitName)\n    {\n        //calculate units\n        if (uint256(balance / (10 ** 18)) > 0) {\n            returnBalance = (balance / (10 ** 18)).toString();\n            unitName = \"ROUNDS\";\n        } else if (uint256(balance / (10 ** 16)) > 0) {\n            returnBalance = (balance / (10 ** 16)).toString();\n            unitName = \"CENTI-ROUNDS\";\n        } else if (uint256(balance / (10 ** 12)) > 0) {\n            returnBalance = (balance / (10 ** 12)).toString();\n            unitName = \"MICRO-ROUNDS\";\n        } else if (uint256(balance / (10 ** 9)) > 0) {\n            returnBalance = (balance / (10 ** 9)).toString();\n            unitName = \"NANO-ROUNDS\";\n        } else if (uint256(balance / (10 ** 6)) > 0) {\n            returnBalance = (balance / (10 ** 6)).toString();\n            unitName = \"PICO-ROUNDS\";\n        } else if (uint256(balance / (10 ** 3)) > 0) {\n            returnBalance = (balance / (10 ** 3)).toString();\n            unitName = \"FEMTO-ROUNDS\";\n        } else {\n            returnBalance = balance.toString();\n            unitName = \"ATTO-ROUNDS\";\n        }\n\n        return (returnBalance, unitName);\n    }\n\n    function randomNum(\n        uint256 _modulus,\n        uint256 _seed,\n        uint256 _salt\n    ) public view returns (uint256) {\n        uint256 randomNumber = uint256(\n            keccak256(\n                abi.encodePacked(block.timestamp, msg.sender, _salt, _seed)\n            )\n        );\n        return randomNumber % _modulus;\n    }\n\n    function calcComplimentColor(\n        uint256 compNum\n    ) internal pure returns (uint256) {\n        uint256 comp = compNum + 180;\n        if (comp > 360) {\n            comp = comp - 360;\n        }\n        return comp;\n    }\n\n    function renderHelper1(\n        uint256 color1,\n        string memory comp2Color1\n    ) internal view returns (bytes memory) {\n        return\n            abi.encodePacked(\n                '<rect transform=\"rotate(-45 388.5 42)\" stroke-width=\"22\" fill=\"#000\" x=\"0\" y=\"-346.5\" width=\"777\" height=\"777\" />',\n                '<circle stroke=\"hsl(',\n                comp2Color1,\n                ', 77%, 34%)\" stroke-dasharray=\"5,',\n                (color1 % 34).toString(),\n                \",\",\n                randomNum(69, 2, 7).toString(),\n                '\" stroke-width=\"24\" cx=\"388.5\" cy=\"488\" r=\"134\" fill=\"#000000\" opacity=\"69%\" />',\n                '<text fill=\"#000000\" stroke=\"hsl(',\n                comp2Color1,\n                ', 69%, 50%)\" x=\"50%\" y=\"222\" stroke-width=\"2\" font-size=\"69\" font-family=\"futura\" text-anchor=\"middle\" dominant-baseline=\"middle\">BRAVO COMPANY</text>'\n            );\n    }\n\n    function renderHelper2(\n        uint256 tokenId,\n        string memory color1,\n        string memory comp2Color1\n    ) internal pure returns (bytes memory) {\n        if (tokenId == 0) {\n            return \"\";\n        } else {\n            return\n                abi.encodePacked(\n                    '<circle stroke=\"hsl(',\n                    comp2Color1,\n                    ', 69%, 55%)\" stroke-dasharray=\"2,2\" stroke-width=\"7\" cx=\"100\" cy=\"495\" r=\"69\" fill=\"hsl(',\n                    color1,\n                    ', 69%, 55%)\" opacity=\"69%\" />',\n                    '<text text-anchor=\"start\" font-family=\"futura\" font-size=\"18\" y=\"490\" x=\"74\">RANK</text>',\n                    '<circle stroke=\"hsl(',\n                    comp2Color1,\n                    ', 69%, 55%)\" stroke-dasharray=\"2,2\" stroke-width=\"7\" cx=\"677\" cy=\"495\" r=\"69\" fill=\"hsl(',\n                    color1,\n                    ', 69%, 55%)\" opacity=\"69%\" />',\n                    '<text text-anchor=\"end\" font-family=\"futura\" font-size=\"18\" y=\"490\" x=\"709\">BOOST</text>'\n                );\n        }\n    }\n\n    function renderHelper3(\n        Stack2deep memory stack2deep\n    ) internal pure returns (bytes memory) {\n        string memory tokenId = stack2deep.tokenId.toString();\n\n        if (stack2deep.tokenId == 0) {\n            stack2deep.bravoBoost = stack2deep.rank = \"\";\n            tokenId = \"O\";\n        }\n\n        return\n            abi.encodePacked(\n                '<text font-family=\"futura\" font-size=\"111\" text-anchor=\"middle\" dominant-baseline=\"middle\" y=\"500\" x=\"50%\" stroke-width=\"4\" stroke=\"#ffffff\" fill=\"#000000\">',\n                tokenId,\n                \"</text>\",\n                '<text font-weight=\"bold\" text-anchor=\"middle\" font-family=\"futura\" font-size=\"22\" y=\"517\" x=\"100\" fill=\"hsl(',\n                stack2deep.comp2Color1,\n                ', 69%, 69%)\">',\n                stack2deep.rank,\n                \"</text>\",\n                '<text font-weight=\"bold\" text-anchor=\"middle\" font-family=\"futura\" font-size=\"22\" y=\"517\" x=\"678\" fill=\"hsl(',\n                stack2deep.comp2Color1,\n                ', 69%, 69%)\">',\n                stack2deep.bravoBoost\n            );\n    }\n\n    function renderHelper4(\n        Stack2deep memory stack2deep\n    ) internal pure returns (bytes memory) {\n        return\n            abi.encodePacked(\n                \"</text>\",\n                '<text fill=\"hsl(',\n                stack2deep.color1.toString(),\n                ', 69%, 69%)\" x=\"50%\" y=\"288\" font-size=\"42\" font-family=\"futura\" text-anchor=\"middle\" dominant-baseline=\"middle\">',\n                stack2deep.codeName,\n                \"</text>\",\n                '<rect stroke=\"#000000\" stroke-dasharray=\"2,2,',\n                (stack2deep.color1 % 21).toString(),\n                ',7\" stroke-width=\"17\" x=\"34\" y=\"662\" width=\"711\" height=\"100\" opacity=\"88%\" fill=\"#000000\" rx=\"50\" ry=\"50\" />',\n                '<text stroke-width=\"2\" stroke=\"#ffffff\" fill=\"#000000\" x=\"50%\" y=\"713\" font-size=\"49\" font-family=\"courier\" text-anchor=\"middle\" dominant-baseline=\"middle\">$AIM0: ',\n                stack2deep.returnBalance,\n                \" \",\n                stack2deep.unitName,\n                \"</text>\"\n            );\n    }\n\n    function renderSVG(\n        Stack2deep memory stack2deep\n    ) public view returns (string memory) {\n        return\n            Base64.encode(\n                bytes(\n                    abi.encodePacked(\n                        '<svg width=\"777\" height=\"777\" xmlns=\"http://www.w3.org/2000/svg\">',\n                        '<circle stroke=\"hsl(',\n                        stack2deep.comp2Color1,\n                        ', 69%, 55%)\" stroke-dasharray=\"5,2,2,2,2,2\" stroke-width=\"48\" cx=\"388.5\" cy=\"488\" r=\"134\" fill=\"#000000\" />',\n                        renderHelper1(\n                            stack2deep.color1,\n                            stack2deep.comp2Color1\n                        ),\n                        '<text fill=\"#ffffff\" x=\"50%\" y=\"117\" font-size=\"122\" font-family=\"futura\" text-anchor=\"middle\" dominant-baseline=\"middle\">ZERO ARMY</text>',\n                        renderHelper2(\n                            stack2deep.tokenId,\n                            stack2deep.color1.toString(),\n                            stack2deep.comp2Color1\n                        ),\n                        renderHelper3(stack2deep),\n                        renderHelper4(stack2deep),\n                        \"</svg>\"\n                    )\n                )\n            );\n    }\n\n    function returnAttributes(\n        string memory rank,\n        string memory bravoBoost,\n        string memory missionCoinsEarned\n    ) internal pure returns (bytes memory) {\n        return\n            abi.encodePacked(\n                '\", \"attributes\":[{\"trait_type\":\"Rank\",\"value\":',\n                                rank,\n                                \"},\",\n                                '{\"display_type\": \"boost_number\",\"trait_type\":\"Bravo Boost\",\"value\":',\n                                bravoBoost,\n                                \"},\",\n                                '{\"trait_type\":\"Mission Coins Earned\",\"value\":\"',\n                                missionCoinsEarned,\n                                \"}]\"\n            );\n    }\n\n    function returnMetadata(\n        uint256 tokenId,\n        string memory rank,\n        string memory bravoBoost,\n        string memory codeName,\n        string memory returnBalance,\n        string memory unitName,\n        string memory missionCoinsEarned\n    ) public view returns (string memory) {\n        uint256 color1 = randomNum(361, 3, 4);\n        string memory comp2Color1 = calcComplimentColor(color1).toString();\n        string memory bravoTitle = \"BRAVO #\";\n\n        if (tokenId == 0) {\n            bravoTitle = \"[fungible] $AIM\";\n        }\n\n        Stack2deep memory stack2deep = Stack2deep(\n            tokenId,\n            color1,\n            comp2Color1,\n            rank,\n            bravoBoost,\n            codeName,\n            returnBalance,\n            unitName\n        );\n\n        return\n            string(\n                abi.encodePacked(\n                    \"data:application/json;base64,\",\n                    Base64.encode(\n                        bytes(\n                            abi.encodePacked(\n                                '{\"name\":\"',\n                                bravoTitle,\n                                tokenId.toString(),\n                                '\", \"description\": \"Bravo Company NFT collection - 200 Zero Army founders series NFTs.\"',\n                                '\", \"external_url\":\"https://zeroarmy.org/bravo\"',\n                                returnAttributes(rank, bravoBoost, missionCoinsEarned),\n                                ', \"image\": \"data:image/svg+xml;base64,',\n                                renderSVG(stack2deep),\n                                '\"}'\n                            )\n                        )\n                    )\n                )\n            );\n    }\n}\n",
  "sourcePath": "/Users/c0/Documents/CODE/Zero_Army/Bravo/0xTruffleBravo/contracts/BravoLibrary.sol",
  "compiler": {
    "name": "solc",
    "version": "0.8.19+commit.7dd6d404.Emscripten.clang"
  },
  "schemaVersion": "3.4.14",
  "updatedAt": "2023-07-25T17:47:05.005Z",
  "devdoc": {
    "kind": "dev",
    "methods": {},
    "version": 1
  },
  "userdoc": {
    "kind": "user",
    "methods": {},
    "version": 1
  }
}