{
  "contractName": "BravoLibrary",
  "abi": [
    {
      "inputs": [
        {
          "internalType": "uint256",
          "name": "balance",
          "type": "uint256"
        }
      ],
      "name": "calculateUnits",
      "outputs": [
        {
          "internalType": "string",
          "name": "returnBalance",
          "type": "string"
        },
        {
          "internalType": "string",
          "name": "unitName",
          "type": "string"
        }
      ],
      "stateMutability": "pure",
      "type": "function"
    },
    {
      "inputs": [
        {
          "internalType": "uint256",
          "name": "_modulus",
          "type": "uint256"
        },
        {
          "internalType": "uint256",
          "name": "_seed",
          "type": "uint256"
        },
        {
          "internalType": "uint256",
          "name": "_salt",
          "type": "uint256"
        }
      ],
      "name": "randomNum",
      "outputs": [
        {
          "internalType": "uint256",
          "name": "",
          "type": "uint256"
        }
      ],
      "stateMutability": "view",
      "type": "function"
    },
    {
      "inputs": [
        {
          "internalType": "uint256",
          "name": "color1",
          "type": "uint256"
        },
        {
          "internalType": "string",
          "name": "comp2Color1",
          "type": "string"
        }
      ],
      "name": "renderHelper1",
      "outputs": [
        {
          "internalType": "bytes",
          "name": "",
          "type": "bytes"
        }
      ],
      "stateMutability": "view",
      "type": "function"
    },
    {
      "inputs": [
        {
          "internalType": "uint256",
          "name": "tokenId",
          "type": "uint256"
        },
        {
          "internalType": "string",
          "name": "color1",
          "type": "string"
        },
        {
          "internalType": "string",
          "name": "comp2Color1",
          "type": "string"
        }
      ],
      "name": "renderHelper2",
      "outputs": [
        {
          "internalType": "bytes",
          "name": "",
          "type": "bytes"
        }
      ],
      "stateMutability": "pure",
      "type": "function"
    },
    {
      "inputs": [
        {
          "components": [
            {
              "internalType": "uint256",
              "name": "tokenId",
              "type": "uint256"
            },
            {
              "internalType": "uint256",
              "name": "color1",
              "type": "uint256"
            },
            {
              "internalType": "string",
              "name": "comp2Color1",
              "type": "string"
            },
            {
              "internalType": "string",
              "name": "rank",
              "type": "string"
            },
            {
              "internalType": "string",
              "name": "bravoBoost",
              "type": "string"
            },
            {
              "internalType": "string",
              "name": "codeName",
              "type": "string"
            },
            {
              "internalType": "string",
              "name": "returnBalance",
              "type": "string"
            },
            {
              "internalType": "string",
              "name": "unitName",
              "type": "string"
            }
          ],
          "internalType": "struct BravoLibrary.Stack2deep",
          "name": "stack2deep",
          "type": "tuple"
        }
      ],
      "name": "renderHelper3",
      "outputs": [
        {
          "internalType": "bytes",
          "name": "",
          "type": "bytes"
        }
      ],
      "stateMutability": "pure",
      "type": "function"
    },
    {
      "inputs": [
        {
          "components": [
            {
              "internalType": "uint256",
              "name": "tokenId",
              "type": "uint256"
            },
            {
              "internalType": "uint256",
              "name": "color1",
              "type": "uint256"
            },
            {
              "internalType": "string",
              "name": "comp2Color1",
              "type": "string"
            },
            {
              "internalType": "string",
              "name": "rank",
              "type": "string"
            },
            {
              "internalType": "string",
              "name": "bravoBoost",
              "type": "string"
            },
            {
              "internalType": "string",
              "name": "codeName",
              "type": "string"
            },
            {
              "internalType": "string",
              "name": "returnBalance",
              "type": "string"
            },
            {
              "internalType": "string",
              "name": "unitName",
              "type": "string"
            }
          ],
          "internalType": "struct BravoLibrary.Stack2deep",
          "name": "stack2deep",
          "type": "tuple"
        }
      ],
      "name": "renderHelper4",
      "outputs": [
        {
          "internalType": "bytes",
          "name": "",
          "type": "bytes"
        }
      ],
      "stateMutability": "pure",
      "type": "function"
    },
    {
      "inputs": [
        {
          "components": [
            {
              "internalType": "uint256",
              "name": "tokenId",
              "type": "uint256"
            },
            {
              "internalType": "uint256",
              "name": "color1",
              "type": "uint256"
            },
            {
              "internalType": "string",
              "name": "comp2Color1",
              "type": "string"
            },
            {
              "internalType": "string",
              "name": "rank",
              "type": "string"
            },
            {
              "internalType": "string",
              "name": "bravoBoost",
              "type": "string"
            },
            {
              "internalType": "string",
              "name": "codeName",
              "type": "string"
            },
            {
              "internalType": "string",
              "name": "returnBalance",
              "type": "string"
            },
            {
              "internalType": "string",
              "name": "unitName",
              "type": "string"
            }
          ],
          "internalType": "struct BravoLibrary.Stack2deep",
          "name": "stack2deep",
          "type": "tuple"
        }
      ],
      "name": "renderSVG",
      "outputs": [
        {
          "internalType": "string",
          "name": "",
          "type": "string"
        }
      ],
      "stateMutability": "view",
      "type": "function"
    },
    {
      "inputs": [
        {
          "internalType": "uint256",
          "name": "tokenId",
          "type": "uint256"
        },
        {
          "internalType": "string",
          "name": "rank",
          "type": "string"
        },
        {
          "internalType": "string",
          "name": "bravoBoost",
          "type": "string"
        },
        {
          "internalType": "string",
          "name": "codeName",
          "type": "string"
        },
        {
          "internalType": "string",
          "name": "returnBalance",
          "type": "string"
        },
        {
          "internalType": "string",
          "name": "unitName",
          "type": "string"
        }
      ],
      "name": "renderMetadata",
      "outputs": [
        {
          "internalType": "string",
          "name": "",
          "type": "string"
        }
      ],
      "stateMutability": "view",
      "type": "function"
    }
  ],
  "bytecode": "0x612255610053600b82828239805160001a607314610046577f4e487b7100000000000000000000000000000000000000000000000000000000600052600060045260246000fd5b30600052607381538281f3fe73000000000000000000000000000000000000000030146080604052600436106100925760003560e01c80634dbfae9f116100655780634dbfae9f146101115780635f90f74814610124578063a239c2e314610137578063e67285b91461014a57600080fd5b806328294640146100975780632e0a95f4146100bd5780633693698c146100de57806349ff9db5146100fe575b600080fd5b6100aa6100a5366004610b06565b61015d565b6040519081526020015b60405180910390f35b6100d06100cb366004610b32565b6101d3565b6040516100b4929190610bb9565b6100f16100ec366004610ce2565b610491565b6040516100b49190610e18565b6100f161010c366004610e2b565b61050c565b6100f161011f366004610ce2565b610559565b6100f1610132366004610e72565b6105b5565b6100f1610145366004610f4c565b610670565b6100f1610158366004610ce2565b6106bc565b60408051426020808301919091523360601b7fffffffffffffffffffffffffffffffffffffffff000000000000000000000000168284015260548201849052607480830186905283518084039091018152609490920190925280519101206000906101c88582610fe8565b9150505b9392505050565b60608060006101ea670de0b6b3a76400008561102b565b11156102495761020a610205670de0b6b3a76400008561102b565b610766565b91506040518060400160405280600681526020017f524f554e445300000000000000000000000000000000000000000000000000008152509050915091565b600061025c662386f26fc100008561102b565b11156102b557610276610205662386f26fc100008561102b565b91506040518060400160405280600c81526020017f43454e54492d524f554e445300000000000000000000000000000000000000008152509050915091565b60006102c664e8d4a510008561102b565b111561031d576102de61020564e8d4a510008561102b565b91506040518060400160405280600c81526020017f4d4943524f2d524f554e445300000000000000000000000000000000000000008152509050915091565b600061032d633b9aca008561102b565b111561038357610344610205633b9aca008561102b565b91506040518060400160405280600b81526020017f4e414e4f2d524f554e44530000000000000000000000000000000000000000008152509050915091565b6000610392620f42408561102b565b11156103e7576103a8610205620f42408561102b565b91506040518060400160405280600b81526020017f5049434f2d524f554e44530000000000000000000000000000000000000000008152509050915091565b60006103f56103e88561102b565b11156104495761040a6102056103e88561102b565b91506040518060400160405280600c81526020017f46454d544f2d524f554e445300000000000000000000000000000000000000008152509050915091565b61045283610766565b91506040518060400160405280600b81526020017f4154544f2d524f554e44530000000000000000000000000000000000000000008152509050915091565b606061050682604001516104ad8460200151856040015161050c565b6104cc85600001516104c28760200151610766565b8760400151610670565b6104d5866106bc565b6104de87610559565b6040516020016104f295949392919061105b565b604051602081830303815290604052610824565b92915050565b60608161051d610205602286610fe8565b61052e61020560456002600761015d565b8460405160200161054294939291906112d2565b604051602081830303815290604052905092915050565b60606105688260200151610766565b8260a00151610581601585602001516102059190610fe8565b8460c001518560e0015160405160200161059f9594939291906115be565b6040516020818303038152906040529050919050565b606060006105c86101696003600461015d565b905060006105d8610205836109fe565b905060006040518061010001604052808b81526020018481526020018381526020018a81526020018981526020018881526020018781526020018681525090506106426106248b610766565b8a8a61062f85610491565b6040516020016104f29493929190611919565b6040516020016106529190611c18565b60405160208183030381529060405293505050509695505050505050565b60608360000361068f57506040805160208101909152600081526101cc565b818383856040516020016106a69493929190611c5d565b60405160208183030381529060405290506101cc565b606060006106cd8360000151610766565b835190915060000361072a57506040805160208082018352600082526060850182905260808501919091528151808301909252600182527f4f00000000000000000000000000000000000000000000000000000000000000908201525b60408084015160608501516080860151925161074f9385939291839190602001611f0c565b604051602081830303815290604052915050919050565b6060600061077383610a24565b600101905060008167ffffffffffffffff81111561079357610793610bde565b6040519080825280601f01601f1916602001820160405280156107bd576020820181803683370190505b5090508181016020015b7fffffffffffffffffffffffffffffffffffffffffffffffffffffffffffffffff017f3031323334353637383961626364656600000000000000000000000000000000600a86061a8153600a85049450846107c757509392505050565b6060815160000361084357505060408051602081019091526000815290565b60006040518060600160405280604081526020016121e0604091399050600060038451600261087291906121a2565b61087c919061102b565b6108879060046121b5565b905060006108968260206121a2565b67ffffffffffffffff8111156108ae576108ae610bde565b6040519080825280601f01601f1916602001820160405280156108d8576020820181803683370190505b509050818152600183018586518101602084015b818310156109465760039283018051603f601282901c811687015160f890811b8552600c83901c8216880151811b6001860152600683901c8216880151811b60028601529116860151901b938201939093526004016108ec565b60038951066001811461096057600281146109aa576109f0565b7f3d3d0000000000000000000000000000000000000000000000000000000000007ffffffffffffffffffffffffffffffffffffffffffffffffffffffffffffffffe8301526109f0565b7f3d000000000000000000000000000000000000000000000000000000000000007fffffffffffffffffffffffffffffffffffffffffffffffffffffffffffffffff8301525b509398975050505050505050565b600080610a0c8360b46121a2565b9050610168811115610506576101cc610168826121cc565b6000807a184f03e93ff9f4daa797ed6e38ed64bf6a1f0100000000000000008310610a6d577a184f03e93ff9f4daa797ed6e38ed64bf6a1f010000000000000000830492506040015b6d04ee2d6d415b85acef81000000008310610a99576d04ee2d6d415b85acef8100000000830492506020015b662386f26fc100008310610ab757662386f26fc10000830492506010015b6305f5e1008310610acf576305f5e100830492506008015b6127108310610ae357612710830492506004015b60648310610af5576064830492506002015b600a83106105065760010192915050565b600080600060608486031215610b1b57600080fd5b505081359360208301359350604090920135919050565b600060208284031215610b4457600080fd5b5035919050565b60005b83811015610b66578181015183820152602001610b4e565b50506000910152565b60008151808452610b87816020860160208601610b4b565b601f017fffffffffffffffffffffffffffffffffffffffffffffffffffffffffffffffe0169290920160200192915050565b604081526000610bcc6040830185610b6f565b82810360208401526101c88185610b6f565b7f4e487b7100000000000000000000000000000000000000000000000000000000600052604160045260246000fd5b604051610100810167ffffffffffffffff81118282101715610c3157610c31610bde565b60405290565b600082601f830112610c4857600080fd5b813567ffffffffffffffff80821115610c6357610c63610bde565b604051601f83017fffffffffffffffffffffffffffffffffffffffffffffffffffffffffffffffe0908116603f01168101908282118183101715610ca957610ca9610bde565b81604052838152866020858801011115610cc257600080fd5b836020870160208301376000602085830101528094505050505092915050565b600060208284031215610cf457600080fd5b813567ffffffffffffffff80821115610d0c57600080fd5b908301906101008286031215610d2157600080fd5b610d29610c0d565b8235815260208301356020820152604083013582811115610d4957600080fd5b610d5587828601610c37565b604083015250606083013582811115610d6d57600080fd5b610d7987828601610c37565b606083015250608083013582811115610d9157600080fd5b610d9d87828601610c37565b60808301525060a083013582811115610db557600080fd5b610dc187828601610c37565b60a08301525060c083013582811115610dd957600080fd5b610de587828601610c37565b60c08301525060e083013582811115610dfd57600080fd5b610e0987828601610c37565b60e08301525095945050505050565b6020815260006101cc6020830184610b6f565b60008060408385031215610e3e57600080fd5b82359150602083013567ffffffffffffffff811115610e5c57600080fd5b610e6885828601610c37565b9150509250929050565b60008060008060008060c08789031215610e8b57600080fd5b86359550602087013567ffffffffffffffff80821115610eaa57600080fd5b610eb68a838b01610c37565b96506040890135915080821115610ecc57600080fd5b610ed88a838b01610c37565b95506060890135915080821115610eee57600080fd5b610efa8a838b01610c37565b94506080890135915080821115610f1057600080fd5b610f1c8a838b01610c37565b935060a0890135915080821115610f3257600080fd5b50610f3f89828a01610c37565b9150509295509295509295565b600080600060608486031215610f6157600080fd5b83359250602084013567ffffffffffffffff80821115610f8057600080fd5b610f8c87838801610c37565b93506040860135915080821115610fa257600080fd5b50610faf86828701610c37565b9150509250925092565b7f4e487b7100000000000000000000000000000000000000000000000000000000600052601260045260246000fd5b600082610ff757610ff7610fb9565b500690565b7f4e487b7100000000000000000000000000000000000000000000000000000000600052601160045260246000fd5b60008261103a5761103a610fb9565b500490565b60008151611051818560208601610b4b565b9290920192915050565b7f3c7376672077696474683d2237373722206865696768743d223737372220786d81527f6c6e733d22687474703a2f2f7777772e77332e6f72672f323030302f7376672260208201527f3e0000000000000000000000000000000000000000000000000000000000000060408201527f3c636972636c65207374726f6b653d2268736c28000000000000000000000000604182015260008651611105816055850160208b01610b4b565b7f2c203639252c203535252922207374726f6b652d6461736861727261793d22356055918401918201527f2c322c322c322c322c3222207374726f6b652d77696474683d2234382220637860758201527f3d223338382e35222063793d223438382220723d22313334222066696c6c3d2260958201527f2330303030303022202f3e00000000000000000000000000000000000000000060b582015286516111b48160c0840160208b01610b4b565b6112c561129c61129661129061128a60c0868801017f3c746578742066696c6c3d22236666666666662220783d223530252220793d2281527f3131372220666f6e742d73697a653d223132322220666f6e742d66616d696c7960208201527f3d226675747572612220746578742d616e63686f723d226d6964646c6522206460408201527f6f6d696e616e742d626173656c696e653d226d6964646c65223e5a45524f204160608201527f524d593c2f746578743e000000000000000000000000000000000000000000006080820152608a0190565b8b61103f565b8961103f565b8761103f565b7f3c2f7376673e0000000000000000000000000000000000000000000000000000815260060190565b9998505050505050505050565b7f3c72656374207472616e73666f726d3d22726f74617465282d3435203338382e81527f352034322922207374726f6b652d77696474683d223232222066696c6c3d222360208201527f3030302220783d22302220793d222d3334362e35222077696474683d2237373760408201527f22206865696768743d2237373722202f3e00000000000000000000000000000060608201527f3c636972636c65207374726f6b653d2268736c280000000000000000000000006071820152600085516113a2816085850160208a01610b4b565b80830190507f2c203737252c203334252922207374726f6b652d6461736861727261793d223560858201527f2c000000000000000000000000000000000000000000000000000000000000008060a583015286516114078160a6850160208b01610b4b565b60a69201918201526115b36114f26114ec61149d61142860a786018a61103f565b7f22207374726f6b652d77696474683d223234222063783d223338382e3522206381527f793d223438382220723d22313334222066696c6c3d222330303030303022206f60208201527f7061636974793d2236392522202f3e00000000000000000000000000000000006040820152604f0190565b7f3c746578742066696c6c3d222330303030303022207374726f6b653d2268736c81527f2800000000000000000000000000000000000000000000000000000000000000602082015260210190565b8661103f565b7f2c203639252c20353025292220783d223530252220793d22323232222073747281527f6f6b652d77696474683d22322220666f6e742d73697a653d2236392220666f6e60208201527f742d66616d696c793d226675747572612220746578742d616e63686f723d226d60408201527f6964646c652220646f6d696e616e742d626173656c696e653d226d6964646c6560608201527f223e425241564f20434f4d50414e593c2f746578743e00000000000000000000608082015260960190565b979650505050505050565b60007f3c2f746578743e000000000000000000000000000000000000000000000000008083527f3c746578742066696c6c3d2268736c28000000000000000000000000000000006007840152875161161d816017860160208c01610b4b565b7f2c203639252c20363925292220783d223530252220793d223238382220666f6e6017918501918201527f742d73697a653d2234322220666f6e742d66616d696c793d226675747572612260378201527f20746578742d616e63686f723d226d6964646c652220646f6d696e616e742d6260578201527f6173656c696e653d226d6964646c65223e000000000000000000000000000000607782015287516116cc816088840160208c01610b4b565b01608881018290527f3c72656374207374726f6b653d222330303030303022207374726f6b652d6461608f8201527f736861727261793d22322c322c0000000000000000000000000000000000000060af8201526112c56118f06112966118c76118c16117da61173f60bc88018e61103f565b7f2c3722207374726f6b652d77696474683d2231372220783d2233342220793d2281527f363632222077696474683d2237313122206865696768743d2231303022206f7060208201527f61636974793d22383825222066696c6c3d2223303030303030222072783d223560408201527f30222072793d22353022202f3e000000000000000000000000000000000000006060820152606d0190565b7f3c74657874207374726f6b652d77696474683d223222207374726f6b653d222381527f666666666666222066696c6c3d22233030303030302220783d2235302522207960208201527f3d223731332220666f6e742d73697a653d2234392220666f6e742d66616d696c60408201527f793d22636f75726965722220746578742d616e63686f723d226d6964646c652260608201527f20646f6d696e616e742d626173656c696e653d226d6964646c65223e2441494d60808201527f303a20000000000000000000000000000000000000000000000000000000000060a082015260a30190565b8a61103f565b7f2000000000000000000000000000000000000000000000000000000000000000815260010190565b7f3c2f746578743e00000000000000000000000000000000000000000000000000815260070190565b7f7b226e616d65223a22000000000000000000000000000000000000000000000081527f427261766f433020230000000000000000000000000000000000000000000000600982015260008551611977816012850160208a01610b4b565b7f222c20226465736372697074696f6e223a2200000000000000000000000000006012918401918201527f427261766f20436f6d70616e79204e465420636f6c6c656374696f6e202d203160248201527f3030205a65726f2041726d7920666f756e6465727320736572696573204e465460448201527f732e00000000000000000000000000000000000000000000000000000000000060648201527f222c202265787465726e616c5f75726c223a220000000000000000000000000060668201527f68747470733a2f2f7a65726f61726d792e6f72672f627261766f00000000000060798201526115b3611bef6114ec611bc6611b9d611b7461128a611aff611ad6611ad060938b017f222c202261747472696275746573223a5b7b2274726169745f74797065223a2281527f52616e6b222c2276616c7565223a0000000000000000000000000000000000006020820152602e0190565b8f61103f565b7f7d2c000000000000000000000000000000000000000000000000000000000000815260020190565b7f7b22646973706c61795f74797065223a2022626f6f73745f6e756d626572222c81527f2274726169745f74797065223a22427261766f20426f6f7374222c2276616c7560208201527f65223a0000000000000000000000000000000000000000000000000000000000604082015260430190565b7f7d5d000000000000000000000000000000000000000000000000000000000000815260020190565b7f222c2022696d616765223a2200000000000000000000000000000000000000008152600c0190565b7f646174613a696d6167652f7376672b786d6c3b6261736536342c0000000000008152601a0190565b7f227d000000000000000000000000000000000000000000000000000000000000815260020190565b7f646174613a6170706c69636174696f6e2f6a736f6e3b6261736536342c000000815260008251611c5081601d850160208701610b4b565b91909101601d0192915050565b7f3c636972636c65207374726f6b653d2268736c28000000000000000000000000815260008551611c95816014850160208a01610b4b565b7f2c203639252c203535252922207374726f6b652d6461736861727261793d22326014918401918201527f2c3222207374726f6b652d77696474683d2237222063783d223130302220637960348201527f3d223439352220723d223639222066696c6c3d2268736c28000000000000000060548201528551611d1e81606c840160208a01610b4b565b7f2c203639252c203535252922206f7061636974793d2236392522202f3e0000009101606c8101919091527f3c7465787420746578742d616e63686f723d2273746172742220666f6e742d6660898201527f616d696c793d226675747572612220666f6e742d73697a653d2231382220793d60a98201527f223439302220783d223734223e52414e4b3c2f746578743e000000000000000060c98201527f3c636972636c65207374726f6b653d2268736c2800000000000000000000000060e18201526115b3611e97611e6e611296611df960f586016118c1565b7f2c203639252c203535252922207374726f6b652d6461736861727261793d223281527f2c3222207374726f6b652d77696474683d2237222063783d223637372220637960208201527f3d223439352220723d223639222066696c6c3d2268736c280000000000000000604082015260580190565b7f2c203639252c203535252922206f7061636974793d2236392522202f3e0000008152601d0190565b7f3c7465787420746578742d616e63686f723d22656e642220666f6e742d66616d81527f696c793d226675747572612220666f6e742d73697a653d2231382220793d223460208201527f39302220783d22373039223e424f4f53543c2f746578743e0000000000000000604082015260580190565b7f3c7465787420666f6e742d66616d696c793d226675747572612220666f6e742d81527f73697a653d223131312220746578742d616e63686f723d226d6964646c65222060208201527f646f6d696e616e742d626173656c696e653d226d6964646c652220793d22353060408201527f302220783d2235302522207374726f6b652d77696474683d223422207374726f60608201527f6b653d2223666666666666222066696c6c3d2223303030303030223e00000000608082015260008651611fdc81609c850160208b01610b4b565b7f3c2f746578743e00000000000000000000000000000000000000000000000000609c918401918201527f3c7465787420666f6e742d7765696768743d22626f6c642220746578742d616e60a38201527f63686f723d226d6964646c652220666f6e742d66616d696c793d22667574757260c38201527f612220666f6e742d73697a653d2232322220793d223531372220783d2231303060e38201527f222066696c6c3d2268736c2800000000000000000000000000000000000000006101038201526121966121906120c061218a6120ef6118f06120e98461010f89018f61103f565b7f2c203639252c2036392529223e000000000000000000000000000000000000008152600d0190565b8c61103f565b7f3c7465787420666f6e742d7765696768743d22626f6c642220746578742d616e81527f63686f723d226d6964646c652220666f6e742d66616d696c793d22667574757260208201527f612220666f6e742d73697a653d2232322220793d223531372220783d2236373860408201527f222066696c6c3d2268736c2800000000000000000000000000000000000000006060820152606c0190565b8861103f565b8561103f565b98975050505050505050565b8082018082111561050657610506610ffc565b808202811582820484141761050657610506610ffc565b8181038181111561050657610506610ffc56fe4142434445464748494a4b4c4d4e4f505152535455565758595a6162636465666768696a6b6c6d6e6f707172737475767778797a303132333435363738392b2fa264697066735822122003911fc3326c908da01e966ebabc2ae04b0b89ccf8e04d2a59080d9f57bf960c64736f6c63430008130033",
  "immutableReferences": {},
  "source": "// SPDX-License-Identifier: MIT\npragma solidity ^0.8.19;\n//...............................................................................................................\n//..ZZZZZZZZZ...EEEEEEEEE...RRRRR..........OOOOOO..............AAA.......RRRRR........MMM.....MMM...YY......YY...\n//.ZZZZZZZZZZZ.EEEEEEEEEEE.RRRRRRRRRR.....OOOOOOOOO...........AAAAA.....RRRRRRRRRR...MMMMM...MMMMM.YYYYY...YYYY..\n//.ZZZZZZZZZZZ.EEEEEEEEEEE.RRRRRRRRRRR...OOOOOOOOOO...........AAAAA.....RRRRRRRRRRR..MMMMM...MMMMM.YYYYY..YYYYY..\n//.ZZZZZZZZZZZ.EEEEEEEEEEE.RRRRRRRRRRR..OOOOOOOOOOOO.........AAAAAAA....RRRRRRRRRRR..MMMMMM..MMMMM..YYYY..YYYY...\n//......ZZZZZZ.EEEE........RRRR...RRRRR.OOOO....OOOO.........AAAAAAA....RRRR...RRRRR.MMMMMM.MMMMMM..YYYYYYYYYY...\n//.....ZZZZZZ..EEEEEEEEEE..RRRR...RRRRR.OOOO....OOOOO........AAAAAAA....RRRR...RRRRR.MMMMMM.MMMMMM...YYYYYYYY....\n//.....ZZZZZ...EEEEEEEEEE..RRRRRRRRRRR.OOOO......OOOO.......AAAAAAAAA...RRRRRRRRRRR..MMMMMM.MMMMMM...YYYYYYYY....\n//....ZZZZZ....EEEEEEEEEE..RRRRRRRRRRR.OOOO......OOOO.......AAAA.AAAA...RRRRRRRRRRR..MMMMMM.MMMMMM....YYYYYY.....\n//...ZZZZZ.....EEEEEEEEEE..RRRRRRRRRRR.OOOO......OOOO.......AAAAAAAAAA..RRRRRRRRRRR..MMMMMMMMMMMMM.....YYYYY.....\n//..ZZZZZ......EEEE........RRRR..RRRRR..OOOO....OOOOO......AAAAAAAAAAA..RRRR..RRRRR..MMM.MMMMMMMMM.....YYYY......\n//.ZZZZZZ......EEEE........RRRR...RRRR..OOOO....OOOO.......AAAAAAAAAAA..RRRR...RRRR..MMM.MMMMM.MMM.....YYYY......\n//.ZZZZZZZZZZZ.EEEEEEEEEEE.RRRR...RRRR..OOOOOOOOOOOO.......AAAAAAAAAAAA.RRRR...RRRR..MMM.MMMMM.MMM.....YYYY......\n//.ZZZZZZZZZZZ.EEEEEEEEEEE.RRRR...RRRR...OOOOOOOOOO....... AAAA....AAAA.RRRR...RRRR..MMM.MMMMM.MMM.....YYYY......\n//.ZZZZZZZZZZZ.EEEEEEEEEEE.RRRR...RRRRR...OOOOOOOOO....... AAA.....AAAA.RRRR...RRRRR.MMM.MMMMM.MMM.....YYYY......\n//.........................................OOOOOO................................................................\n//...............................................................................................................\n/// @author Simon G.Ionashku - find me on github: simon-masterclass\n\nimport \"@openzeppelin/contracts/utils/Strings.sol\";\nimport \"./Base64.sol\";\n\nlibrary BravoLibrary {\n    using Strings for uint256;\n    using Base64 for bytes;\n\n    //struct for cramming all the variables together to avoid stack too deep error\n    struct Stack2deep {\n        uint256 tokenId;\n        uint256 color1;\n        string comp2Color1;\n        string rank;\n        string bravoBoost;\n        string codeName;\n        string returnBalance;\n        string unitName;\n    }\n\n    function calculateUnits(\n        uint balance\n    )\n        public\n        pure\n        returns (string memory returnBalance, string memory unitName)\n    {\n        //calculate units\n        if (uint256(balance / (10 ** 18)) > 0) {\n            returnBalance = (balance / (10 ** 18)).toString();\n            unitName = \"ROUNDS\";\n        } else if (uint256(balance / (10 ** 16)) > 0) {\n            returnBalance = (balance / (10 ** 16)).toString();\n            unitName = \"CENTI-ROUNDS\";\n        } else if (uint256(balance / (10 ** 12)) > 0) {\n            returnBalance = (balance / (10 ** 12)).toString();\n            unitName = \"MICRO-ROUNDS\";\n        } else if (uint256(balance / (10 ** 9)) > 0) {\n            returnBalance = (balance / (10 ** 9)).toString();\n            unitName = \"NANO-ROUNDS\";\n        } else if (uint256(balance / (10 ** 6)) > 0) {\n            returnBalance = (balance / (10 ** 6)).toString();\n            unitName = \"PICO-ROUNDS\";\n        } else if (uint256(balance / (10 ** 3)) > 0) {\n            returnBalance = (balance / (10 ** 3)).toString();\n            unitName = \"FEMTO-ROUNDS\";\n        } else {\n            returnBalance = balance.toString();\n            unitName = \"ATTO-ROUNDS\";\n        }\n\n        return (returnBalance, unitName);\n    }\n\n    function randomNum(\n        uint256 _modulus,\n        uint256 _seed,\n        uint256 _salt\n    ) public view returns (uint256) {\n        uint256 randomNumber = uint256(\n            keccak256(\n                abi.encodePacked(block.timestamp, msg.sender, _salt, _seed)\n            )\n        );\n        return randomNumber % _modulus;\n    }\n\n    function calcComplimentColor(\n        uint256 compNum\n    ) internal pure returns (uint256) {\n        uint256 comp = compNum + 180;\n        if (comp > 360) {\n            comp = comp - 360;\n        }\n        return comp;\n    }\n\n    function renderHelper1(\n        uint256 color1,\n        string memory comp2Color1\n    ) public view returns (bytes memory) {\n        return\n            abi.encodePacked(\n                '<rect transform=\"rotate(-45 388.5 42)\" stroke-width=\"22\" fill=\"#000\" x=\"0\" y=\"-346.5\" width=\"777\" height=\"777\" />',\n                '<circle stroke=\"hsl(',\n                comp2Color1,\n                ', 77%, 34%)\" stroke-dasharray=\"5,',\n                (color1 % 34).toString(),\n                \",\",\n                randomNum(69, 2, 7).toString(),\n                '\" stroke-width=\"24\" cx=\"388.5\" cy=\"488\" r=\"134\" fill=\"#000000\" opacity=\"69%\" />',\n                '<text fill=\"#000000\" stroke=\"hsl(',\n                comp2Color1,\n                ', 69%, 50%)\" x=\"50%\" y=\"222\" stroke-width=\"2\" font-size=\"69\" font-family=\"futura\" text-anchor=\"middle\" dominant-baseline=\"middle\">BRAVO COMPANY</text>'\n            );\n    }\n\n    function renderHelper2(\n        uint256 tokenId,\n        string memory color1,\n        string memory comp2Color1\n    ) public pure returns (bytes memory) {\n        if (tokenId == 0) {\n            return \"\";\n        } else {\n            return\n                abi.encodePacked(\n                    '<circle stroke=\"hsl(',\n                    comp2Color1,\n                    ', 69%, 55%)\" stroke-dasharray=\"2,2\" stroke-width=\"7\" cx=\"100\" cy=\"495\" r=\"69\" fill=\"hsl(',\n                    color1,\n                    ', 69%, 55%)\" opacity=\"69%\" />',\n                    '<text text-anchor=\"start\" font-family=\"futura\" font-size=\"18\" y=\"490\" x=\"74\">RANK</text>',\n                    '<circle stroke=\"hsl(',\n                    comp2Color1,\n                    ', 69%, 55%)\" stroke-dasharray=\"2,2\" stroke-width=\"7\" cx=\"677\" cy=\"495\" r=\"69\" fill=\"hsl(',\n                    color1,\n                    ', 69%, 55%)\" opacity=\"69%\" />',\n                    '<text text-anchor=\"end\" font-family=\"futura\" font-size=\"18\" y=\"490\" x=\"709\">BOOST</text>'\n                );\n        }\n    }\n\n    function renderHelper3(\n        Stack2deep memory stack2deep\n    ) public pure returns (bytes memory) {\n        string memory tokenId = stack2deep.tokenId.toString();\n\n        if (stack2deep.tokenId == 0) {\n            stack2deep.bravoBoost = stack2deep.rank = \"\";\n            tokenId = \"O\";\n        }\n\n        return\n            abi.encodePacked(\n                '<text font-family=\"futura\" font-size=\"111\" text-anchor=\"middle\" dominant-baseline=\"middle\" y=\"500\" x=\"50%\" stroke-width=\"4\" stroke=\"#ffffff\" fill=\"#000000\">',\n                tokenId,\n                \"</text>\",\n                '<text font-weight=\"bold\" text-anchor=\"middle\" font-family=\"futura\" font-size=\"22\" y=\"517\" x=\"100\" fill=\"hsl(',\n                stack2deep.comp2Color1,\n                ', 69%, 69%)\">',\n                stack2deep.rank,\n                \"</text>\",\n                '<text font-weight=\"bold\" text-anchor=\"middle\" font-family=\"futura\" font-size=\"22\" y=\"517\" x=\"678\" fill=\"hsl(',\n                stack2deep.comp2Color1,\n                ', 69%, 69%)\">',\n                stack2deep.bravoBoost\n            );\n    }\n\n    function renderHelper4(\n        Stack2deep memory stack2deep\n    ) public pure returns (bytes memory) {\n        return\n            abi.encodePacked(\n                \"</text>\",\n                '<text fill=\"hsl(',\n                stack2deep.color1.toString(),\n                ', 69%, 69%)\" x=\"50%\" y=\"288\" font-size=\"42\" font-family=\"futura\" text-anchor=\"middle\" dominant-baseline=\"middle\">',\n                stack2deep.codeName,\n                \"</text>\",\n                '<rect stroke=\"#000000\" stroke-dasharray=\"2,2,',\n                (stack2deep.color1 % 21).toString(),\n                ',7\" stroke-width=\"17\" x=\"34\" y=\"662\" width=\"711\" height=\"100\" opacity=\"88%\" fill=\"#000000\" rx=\"50\" ry=\"50\" />',\n                '<text stroke-width=\"2\" stroke=\"#ffffff\" fill=\"#000000\" x=\"50%\" y=\"713\" font-size=\"49\" font-family=\"courier\" text-anchor=\"middle\" dominant-baseline=\"middle\">$AIM0: ',\n                stack2deep.returnBalance,\n                \" \",\n                stack2deep.unitName,\n                \"</text>\"\n            );\n    }\n\n    function renderSVG(\n        Stack2deep memory stack2deep\n    ) public view returns (string memory) {\n        return\n            Base64.encode(\n                bytes(\n                    abi.encodePacked(\n                        '<svg width=\"777\" height=\"777\" xmlns=\"http://www.w3.org/2000/svg\">',\n                        '<circle stroke=\"hsl(',\n                        stack2deep.comp2Color1,\n                        ', 69%, 55%)\" stroke-dasharray=\"5,2,2,2,2,2\" stroke-width=\"48\" cx=\"388.5\" cy=\"488\" r=\"134\" fill=\"#000000\" />',\n                        renderHelper1(\n                            stack2deep.color1,\n                            stack2deep.comp2Color1\n                        ),\n                        '<text fill=\"#ffffff\" x=\"50%\" y=\"117\" font-size=\"122\" font-family=\"futura\" text-anchor=\"middle\" dominant-baseline=\"middle\">ZERO ARMY</text>',\n                        renderHelper2(\n                            stack2deep.tokenId,\n                            stack2deep.color1.toString(),\n                            stack2deep.comp2Color1\n                        ),\n                        renderHelper3(stack2deep),\n                        renderHelper4(stack2deep),\n                        \"</svg>\"\n                    )\n                )\n            );\n    }\n\n    function renderMetadata(\n        uint256 tokenId,\n        string memory rank,\n        string memory bravoBoost,\n        string memory codeName,\n        string memory returnBalance,\n        string memory unitName\n    ) public view returns (string memory) {\n        uint256 color1 = randomNum(361, 3, 4);\n        string memory comp2Color1 = calcComplimentColor(color1).toString();\n\n        Stack2deep memory stack2deep = Stack2deep(\n            tokenId,\n            color1,\n            comp2Color1,\n            rank,\n            bravoBoost,\n            codeName,\n            returnBalance,\n            unitName\n        );\n\n        return\n            string(\n                abi.encodePacked(\n                    \"data:application/json;base64,\",\n                    Base64.encode(\n                        bytes(\n                            abi.encodePacked(\n                                '{\"name\":\"',\n                                \"BravoC0 #\",\n                                tokenId.toString(),\n                                '\", \"description\":\"',\n                                \"Bravo Company NFT collection - 100 Zero Army founders series NFTs.\",\n                                '\", \"external_url\":\"',\n                                \"https://zeroarmy.org/bravo\",\n                                '\", \"attributes\":[{\"trait_type\":\"Rank\",\"value\":',\n                                rank,\n                                \"},\",\n                                '{\"display_type\": \"boost_number\",\"trait_type\":\"Bravo Boost\",\"value\":',\n                                bravoBoost,\n                                \"}]\",\n                                '\", \"image\":\"',\n                                \"data:image/svg+xml;base64,\",\n                                renderSVG(stack2deep),\n                                '\"}'\n                            )\n                        )\n                    )\n                )\n            );\n    }\n}\n",
  "sourcePath": "/Users/c0/Documents/CODE/Zero_Army/Bravo/0xTruffleBravo/contracts/BravoLibrary.sol",
  "compiler": {
    "name": "solc",
    "version": "0.8.19+commit.7dd6d404.Emscripten.clang"
  },
  "schemaVersion": "3.4.14",
  "updatedAt": "2023-07-23T21:36:46.094Z",
  "devdoc": {
    "kind": "dev",
    "methods": {},
    "version": 1
  },
  "userdoc": {
    "kind": "user",
    "methods": {},
    "version": 1
  }
}