{
  "contractName": "OnchainBravoNFTs",
  "abi": [
    {
      "inputs": [],
      "stateMutability": "nonpayable",
      "type": "constructor"
    },
    {
      "anonymous": false,
      "inputs": [
        {
          "indexed": true,
          "internalType": "address",
          "name": "account",
          "type": "address"
        },
        {
          "indexed": true,
          "internalType": "address",
          "name": "operator",
          "type": "address"
        },
        {
          "indexed": false,
          "internalType": "bool",
          "name": "approved",
          "type": "bool"
        }
      ],
      "name": "ApprovalForAll",
      "type": "event"
    },
    {
      "anonymous": false,
      "inputs": [
        {
          "indexed": true,
          "internalType": "address",
          "name": "previousOwner",
          "type": "address"
        },
        {
          "indexed": true,
          "internalType": "address",
          "name": "newOwner",
          "type": "address"
        }
      ],
      "name": "OwnershipTransferred",
      "type": "event"
    },
    {
      "anonymous": false,
      "inputs": [
        {
          "indexed": true,
          "internalType": "address",
          "name": "operator",
          "type": "address"
        },
        {
          "indexed": true,
          "internalType": "address",
          "name": "from",
          "type": "address"
        },
        {
          "indexed": true,
          "internalType": "address",
          "name": "to",
          "type": "address"
        },
        {
          "indexed": false,
          "internalType": "uint256[]",
          "name": "ids",
          "type": "uint256[]"
        },
        {
          "indexed": false,
          "internalType": "uint256[]",
          "name": "values",
          "type": "uint256[]"
        }
      ],
      "name": "TransferBatch",
      "type": "event"
    },
    {
      "anonymous": false,
      "inputs": [
        {
          "indexed": true,
          "internalType": "address",
          "name": "operator",
          "type": "address"
        },
        {
          "indexed": true,
          "internalType": "address",
          "name": "from",
          "type": "address"
        },
        {
          "indexed": true,
          "internalType": "address",
          "name": "to",
          "type": "address"
        },
        {
          "indexed": false,
          "internalType": "uint256",
          "name": "id",
          "type": "uint256"
        },
        {
          "indexed": false,
          "internalType": "uint256",
          "name": "value",
          "type": "uint256"
        }
      ],
      "name": "TransferSingle",
      "type": "event"
    },
    {
      "anonymous": false,
      "inputs": [
        {
          "indexed": false,
          "internalType": "string",
          "name": "value",
          "type": "string"
        },
        {
          "indexed": true,
          "internalType": "uint256",
          "name": "id",
          "type": "uint256"
        }
      ],
      "name": "URI",
      "type": "event"
    },
    {
      "inputs": [
        {
          "internalType": "address",
          "name": "account",
          "type": "address"
        },
        {
          "internalType": "uint256",
          "name": "id",
          "type": "uint256"
        }
      ],
      "name": "balanceOf",
      "outputs": [
        {
          "internalType": "uint256",
          "name": "",
          "type": "uint256"
        }
      ],
      "stateMutability": "view",
      "type": "function"
    },
    {
      "inputs": [
        {
          "internalType": "address[]",
          "name": "accounts",
          "type": "address[]"
        },
        {
          "internalType": "uint256[]",
          "name": "ids",
          "type": "uint256[]"
        }
      ],
      "name": "balanceOfBatch",
      "outputs": [
        {
          "internalType": "uint256[]",
          "name": "",
          "type": "uint256[]"
        }
      ],
      "stateMutability": "view",
      "type": "function"
    },
    {
      "inputs": [
        {
          "internalType": "uint256",
          "name": "",
          "type": "uint256"
        }
      ],
      "name": "bravoNFT$",
      "outputs": [
        {
          "internalType": "address",
          "name": "bravOwner",
          "type": "address"
        },
        {
          "internalType": "string",
          "name": "codeName",
          "type": "string"
        },
        {
          "internalType": "uint256",
          "name": "missionCoinsEarned",
          "type": "uint256"
        },
        {
          "internalType": "uint256",
          "name": "rank",
          "type": "uint256"
        },
        {
          "internalType": "uint256",
          "name": "bravoBoost",
          "type": "uint256"
        }
      ],
      "stateMutability": "view",
      "type": "function"
    },
    {
      "inputs": [
        {
          "internalType": "address",
          "name": "account",
          "type": "address"
        },
        {
          "internalType": "uint256",
          "name": "id",
          "type": "uint256"
        },
        {
          "internalType": "uint256",
          "name": "value",
          "type": "uint256"
        }
      ],
      "name": "burn",
      "outputs": [],
      "stateMutability": "nonpayable",
      "type": "function"
    },
    {
      "inputs": [
        {
          "internalType": "address",
          "name": "account",
          "type": "address"
        },
        {
          "internalType": "uint256[]",
          "name": "ids",
          "type": "uint256[]"
        },
        {
          "internalType": "uint256[]",
          "name": "values",
          "type": "uint256[]"
        }
      ],
      "name": "burnBatch",
      "outputs": [],
      "stateMutability": "nonpayable",
      "type": "function"
    },
    {
      "inputs": [],
      "name": "decimals",
      "outputs": [
        {
          "internalType": "uint256",
          "name": "",
          "type": "uint256"
        }
      ],
      "stateMutability": "view",
      "type": "function"
    },
    {
      "inputs": [
        {
          "internalType": "uint256",
          "name": "id",
          "type": "uint256"
        }
      ],
      "name": "exists",
      "outputs": [
        {
          "internalType": "bool",
          "name": "",
          "type": "bool"
        }
      ],
      "stateMutability": "view",
      "type": "function"
    },
    {
      "inputs": [],
      "name": "fire$AIM0TF",
      "outputs": [
        {
          "internalType": "bool",
          "name": "",
          "type": "bool"
        }
      ],
      "stateMutability": "view",
      "type": "function"
    },
    {
      "inputs": [
        {
          "internalType": "address",
          "name": "account",
          "type": "address"
        },
        {
          "internalType": "address",
          "name": "operator",
          "type": "address"
        }
      ],
      "name": "isApprovedForAll",
      "outputs": [
        {
          "internalType": "bool",
          "name": "",
          "type": "bool"
        }
      ],
      "stateMutability": "view",
      "type": "function"
    },
    {
      "inputs": [],
      "name": "maxSupply",
      "outputs": [
        {
          "internalType": "uint256",
          "name": "",
          "type": "uint256"
        }
      ],
      "stateMutability": "view",
      "type": "function"
    },
    {
      "inputs": [],
      "name": "name",
      "outputs": [
        {
          "internalType": "string",
          "name": "",
          "type": "string"
        }
      ],
      "stateMutability": "view",
      "type": "function"
    },
    {
      "inputs": [],
      "name": "owner",
      "outputs": [
        {
          "internalType": "address",
          "name": "",
          "type": "address"
        }
      ],
      "stateMutability": "view",
      "type": "function"
    },
    {
      "inputs": [],
      "name": "renounceOwnership",
      "outputs": [],
      "stateMutability": "nonpayable",
      "type": "function"
    },
    {
      "inputs": [
        {
          "internalType": "address",
          "name": "operator",
          "type": "address"
        },
        {
          "internalType": "bool",
          "name": "approved",
          "type": "bool"
        }
      ],
      "name": "setApprovalForAll",
      "outputs": [],
      "stateMutability": "nonpayable",
      "type": "function"
    },
    {
      "inputs": [
        {
          "internalType": "bytes4",
          "name": "interfaceId",
          "type": "bytes4"
        }
      ],
      "name": "supportsInterface",
      "outputs": [
        {
          "internalType": "bool",
          "name": "",
          "type": "bool"
        }
      ],
      "stateMutability": "view",
      "type": "function"
    },
    {
      "inputs": [],
      "name": "symbol",
      "outputs": [
        {
          "internalType": "string",
          "name": "",
          "type": "string"
        }
      ],
      "stateMutability": "view",
      "type": "function"
    },
    {
      "inputs": [
        {
          "internalType": "uint256",
          "name": "id",
          "type": "uint256"
        }
      ],
      "name": "totalSupply",
      "outputs": [
        {
          "internalType": "uint256",
          "name": "",
          "type": "uint256"
        }
      ],
      "stateMutability": "view",
      "type": "function"
    },
    {
      "inputs": [
        {
          "internalType": "address",
          "name": "newOwner",
          "type": "address"
        }
      ],
      "name": "transferOwnership",
      "outputs": [],
      "stateMutability": "nonpayable",
      "type": "function"
    },
    {
      "inputs": [
        {
          "internalType": "string",
          "name": "codeName",
          "type": "string"
        }
      ],
      "name": "mint",
      "outputs": [],
      "stateMutability": "payable",
      "type": "function"
    },
    {
      "inputs": [
        {
          "internalType": "uint256",
          "name": "tokenId",
          "type": "uint256"
        },
        {
          "internalType": "string",
          "name": "_newCodeName",
          "type": "string"
        }
      ],
      "name": "changeBravoCodeName",
      "outputs": [],
      "stateMutability": "payable",
      "type": "function"
    },
    {
      "inputs": [
        {
          "internalType": "uint256",
          "name": "tokenId",
          "type": "uint256"
        }
      ],
      "name": "uri",
      "outputs": [
        {
          "internalType": "string",
          "name": "",
          "type": "string"
        }
      ],
      "stateMutability": "view",
      "type": "function"
    },
    {
      "inputs": [
        {
          "internalType": "address",
          "name": "bravoAddress",
          "type": "address"
        }
      ],
      "name": "enlistBravo",
      "outputs": [],
      "stateMutability": "payable",
      "type": "function"
    },
    {
      "inputs": [
        {
          "internalType": "uint256",
          "name": "tokenId",
          "type": "uint256"
        },
        {
          "internalType": "uint256",
          "name": "amount",
          "type": "uint256"
        },
        {
          "internalType": "bytes",
          "name": "data",
          "type": "bytes"
        }
      ],
      "name": "payBravo",
      "outputs": [],
      "stateMutability": "payable",
      "type": "function"
    },
    {
      "inputs": [],
      "name": "toggle$AIM0firing",
      "outputs": [],
      "stateMutability": "payable",
      "type": "function"
    },
    {
      "inputs": [
        {
          "internalType": "uint256",
          "name": "tokenId",
          "type": "uint256"
        },
        {
          "internalType": "uint256",
          "name": "amount",
          "type": "uint256"
        }
      ],
      "name": "fire$AIM0",
      "outputs": [],
      "stateMutability": "payable",
      "type": "function"
    },
    {
      "inputs": [
        {
          "internalType": "address",
          "name": "from",
          "type": "address"
        },
        {
          "internalType": "address",
          "name": "to",
          "type": "address"
        },
        {
          "internalType": "uint256",
          "name": "id",
          "type": "uint256"
        },
        {
          "internalType": "uint256",
          "name": "amount",
          "type": "uint256"
        },
        {
          "internalType": "bytes",
          "name": "data",
          "type": "bytes"
        }
      ],
      "name": "safeTransferFrom",
      "outputs": [],
      "stateMutability": "nonpayable",
      "type": "function"
    },
    {
      "inputs": [
        {
          "internalType": "address",
          "name": "from",
          "type": "address"
        },
        {
          "internalType": "address",
          "name": "to",
          "type": "address"
        },
        {
          "internalType": "uint256[]",
          "name": "ids",
          "type": "uint256[]"
        },
        {
          "internalType": "uint256[]",
          "name": "amounts",
          "type": "uint256[]"
        },
        {
          "internalType": "bytes",
          "name": "data",
          "type": "bytes"
        }
      ],
      "name": "safeBatchTransferFrom",
      "outputs": [],
      "stateMutability": "nonpayable",
      "type": "function"
    },
    {
      "inputs": [],
      "name": "withdraw",
      "outputs": [],
      "stateMutability": "payable",
      "type": "function"
    }
  ],
  "bytecode": "0x60806040526007805460ff191690553480156200001b57600080fd5b506040805160208101909152600081526200003681620001e2565b506200004233620001f4565b60006200005a670de0b6b3a76400006127106200087a565b62000071670de0b6b3a7640000620f42406200087a565b6200007d91906200089a565b9050620000b5620000966003546001600160a01b031690565b600083604051806020016040528060008152506200025560201b60201c565b60006040518060a00160405280620000d26200024660201b60201c565b6001600160a01b039081168252604080518082018252601681527f2441494d303a20554e4255524e454420535550504c5900000000000000000000602080830191909152808501919091526000918401829052606084018290526080909301819052600580546001810182559181905284517f036b6384b5eca791c62761152d0c79bb0604c104a5fb6f4eb0703f3154bb3db09290910291820180546001600160a01b0319169190931617825591830151929350839290917f036b6384b5eca791c62761152d0c79bb0604c104a5fb6f4eb0703f3154bb3db10190620001b9908262000983565b506040820151816002015560608201518160030155608082015181600401555050505062000c7a565b6002620001f0828262000983565b5050565b600380546001600160a01b038381166001600160a01b0319831681179093556040519116919082907f8be0079c531659141344cd1fd0a4f28419497f9722a3daafe3b4186f6b6457e090600090a35050565b6003546001600160a01b031690565b6001600160a01b038416620002f1576040517f08c379a000000000000000000000000000000000000000000000000000000000815260206004820152602160248201527f455243313135353a206d696e7420746f20746865207a65726f2061646472657360448201527f730000000000000000000000000000000000000000000000000000000000000060648201526084015b60405180910390fd5b336000620002ff85620003be565b905060006200030e85620003be565b905062000321836000898585896200040c565b6000868152602081815260408083206001600160a01b038b168452909152812080548792906200035390849062000a4f565b909155505060408051878152602081018790526001600160a01b03808a1692600092918716917fc3d58168c5ae7397731d063d5bbf3d657854427343f4c083240f7aacaa2d0f62910160405180910390a4620003b58360008989898962000424565b50505050505050565b60408051600180825281830190925260609160009190602080830190803683370190505090508281600081518110620003fb57620003fb62000a65565b602090810291909101015292915050565b6200041c86868686868662000689565b505050505050565b6001600160a01b0384163b156200041c576040517ff23a6e610000000000000000000000000000000000000000000000000000000081526001600160a01b0385169063f23a6e619062000484908990899088908890889060040162000adc565b6020604051808303816000875af1925050508015620004c2575060408051601f3d908101601f19168201909252620004bf9181019062000b23565b60015b620005b657620004d162000b6e565b806308c379a0036200052b5750620004e862000bba565b80620004f557506200052d565b806040517f08c379a0000000000000000000000000000000000000000000000000000000008152600401620002e8919062000c49565b505b6040517f08c379a000000000000000000000000000000000000000000000000000000000815260206004820152603460248201527f455243313135353a207472616e7366657220746f206e6f6e2d4552433131353560448201527f526563656976657220696d706c656d656e7465720000000000000000000000006064820152608401620002e8565b7fffffffff0000000000000000000000000000000000000000000000000000000081167ff23a6e610000000000000000000000000000000000000000000000000000000014620003b5576040517f08c379a000000000000000000000000000000000000000000000000000000000815260206004820152602860248201527f455243313135353a204552433131353552656365697665722072656a6563746560448201527f6420746f6b656e730000000000000000000000000000000000000000000000006064820152608401620002e8565b6001600160a01b0385166200071d5760005b83518110156200071b57828181518110620006ba57620006ba62000a65565b602002602001015160046000868481518110620006db57620006db62000a65565b60200260200101518152602001908152602001600020600082825462000702919062000a4f565b909155506200071390508162000c5e565b90506200069b565b505b6001600160a01b0384166200041c5760005b8351811015620003b557600084828151811062000750576200075062000a65565b60200260200101519050600084838151811062000771576200077162000a65565b602002602001015190506000600460008481526020019081526020016000205490508181101562000825576040517f08c379a000000000000000000000000000000000000000000000000000000000815260206004820152602860248201527f455243313135353a206275726e20616d6f756e74206578636565647320746f7460448201527f616c537570706c790000000000000000000000000000000000000000000000006064820152608401620002e8565b60009283526004602052604090922091039055620008438162000c5e565b90506200072f565b7f4e487b7100000000000000000000000000000000000000000000000000000000600052601160045260246000fd5b80820281158282048414176200089457620008946200084b565b92915050565b818103818111156200089457620008946200084b565b7f4e487b7100000000000000000000000000000000000000000000000000000000600052604160045260246000fd5b600181811c90821680620008f457607f821691505b6020821081036200092e577f4e487b7100000000000000000000000000000000000000000000000000000000600052602260045260246000fd5b50919050565b601f8211156200097e57600081815260208120601f850160051c810160208610156200095d5750805b601f850160051c820191505b818110156200041c5782815560010162000969565b505050565b81516001600160401b038111156200099f576200099f620008b0565b620009b781620009b08454620008df565b8462000934565b602080601f831160018114620009ef5760008415620009d65750858301515b600019600386901b1c1916600185901b1785556200041c565b600085815260208120601f198616915b8281101562000a2057888601518255948401946001909101908401620009ff565b508582101562000a3f5787850151600019600388901b60f8161c191681555b5050505050600190811b01905550565b808201808211156200089457620008946200084b565b7f4e487b7100000000000000000000000000000000000000000000000000000000600052603260045260246000fd5b6000815180845260005b8181101562000abc5760208185018101518683018201520162000a9e565b506000602082860101526020601f19601f83011685010191505092915050565b6001600160a01b03868116825285166020820152604081018490526060810183905260a06080820181905260009062000b189083018462000a94565b979650505050505050565b60006020828403121562000b3657600080fd5b81517fffffffff000000000000000000000000000000000000000000000000000000008116811462000b6757600080fd5b9392505050565b600060033d111562000b885760046000803e5060005160e01c5b90565b601f8201601f191681016001600160401b038111828210171562000bb35762000bb3620008b0565b6040525050565b600060443d101562000bc95790565b6040516003193d81016004833e81513d6001600160401b03808311602484018310171562000bf957505050505090565b828501915081518181111562000c125750505050505090565b843d870101602082850101111562000c2d5750505050505090565b62000c3e6020828601018762000b8b565b509095945050505050565b60208152600062000b67602083018462000a94565b60006001820162000c735762000c736200084b565b5060010190565b6131c98062000c8a6000396000f3fe6080604052600436106101b65760003560e01c8063715018a6116100ec578063d5abeb011161008a578063f242432a11610064578063f242432a1461050e578063f2fde38b1461052e578063f5298aca1461054e578063fae8501e1461056e57600080fd5b8063d5abeb011461049d578063d85d3d27146104b2578063e985e9c5146104c557600080fd5b806395d89b41116100c657806395d89b41146103ee578063a22cb4651461041f578063bd85b0391461043f578063d0ffc7e11461046c57600080fd5b8063715018a61461039e578063846eb7d0146103b35780638da5cb5b146103c657600080fd5b8063313ce567116101595780634f558e79116101335780634f558e791461032257806355162779146103515780636b20c4541461036b5780636e1955f41461038b57600080fd5b8063313ce567146102d15780633ccfd60b146102ed5780634e1273f4146102f557600080fd5b80630c84c131116101955780630c84c131146102695780630e89341c1461027e5780632afcd6851461029e5780632eb2c2d6146102b157600080fd5b8062fdd58e146101bb57806301ffc9a7146101ee57806306fdde031461021e575b600080fd5b3480156101c757600080fd5b506101db6101d6366004612331565b610576565b6040519081526020015b60405180910390f35b3480156101fa57600080fd5b5061020e610209366004612371565b61060f565b60405190151581526020016101e5565b34801561022a57600080fd5b5061025c60405180604001604052806012815260200171427261766f20436f6d70616e79204e46547360701b81525081565b6040516101e591906123e5565b61027c6102773660046123f8565b61065f565b005b34801561028a57600080fd5b5061025c610299366004612477565b6106e8565b61027c6102ac366004612490565b610988565b3480156102bd57600080fd5b5061027c6102cc366004612604565b6109b4565b3480156102dd57600080fd5b506101db670de0b6b3a764000081565b61027c610a07565b34801561030157600080fd5b506103156103103660046126ad565b610a3f565b6040516101e591906127b2565b34801561032e57600080fd5b5061020e61033d366004612477565b600090815260046020526040902054151590565b34801561035d57600080fd5b5060075461020e9060ff1681565b34801561037757600080fd5b5061027c6103863660046127c5565b610b68565b61027c610399366004612838565b610bb0565b3480156103aa57600080fd5b5061027c610cc3565b61027c6103c1366004612874565b610cd7565b3480156103d257600080fd5b506003546040516001600160a01b0390911681526020016101e5565b3480156103fa57600080fd5b5061025c60405180604001604052806005815260200164042524156360dc1b81525081565b34801561042b57600080fd5b5061027c61043a366004612896565b610e90565b34801561044b57600080fd5b506101db61045a366004612477565b60009081526004602052604090205490565b34801561047857600080fd5b5061048c610487366004612477565b610e9f565b6040516101e59594939291906128d2565b3480156104a957600080fd5b506101db60c881565b61027c6104c0366004612911565b610f73565b3480156104d157600080fd5b5061020e6104e036600461294d565b6001600160a01b03918216600090815260016020908152604080832093909416825291909152205460ff1690565b34801561051a57600080fd5b5061027c610529366004612980565b611294565b34801561053a57600080fd5b5061027c610549366004612490565b6114b5565b34801561055a57600080fd5b5061027c6105693660046129e4565b61152b565b61027c61156e565b60006001600160a01b0383166105e65760405162461bcd60e51b815260206004820152602a60248201527f455243313135353a2061646472657373207a65726f206973206e6f742061207660448201526930b634b21037bbb732b960b11b60648201526084015b60405180910390fd5b506000818152602081815260408083206001600160a01b03861684529091529020545b92915050565b60006001600160e01b03198216636cdb3d1360e11b148061064057506001600160e01b031982166303a24d0760e21b145b8061060957506301ffc9a760e01b6001600160e01b0319831614610609565b61066761158a565b6106e2336005868154811061067e5761067e612a17565b906000526020600020906005020160000160009054906101000a90046001600160a01b031660008686868080601f0160208091040260200160405190810160405280939291908181526020018383808284376000920191909152506115e492505050565b50505050565b60008181526004602052604090205460609061075f5760405162461bcd60e51b815260206004820152603060248201527f455243313135354d657461646174613a2055524920717565727920666f72206e60448201526f37b732bc34b9ba32b73a103a37b5b2b760811b60648201526084016105dd565b60008261079757506000805260046020527f17ef568e3e12ab5b9c7254a8d58478811de00f9e6eb34345acd53bf8fd09d3ec546107cf565b6107cc600584815481106107ad576107ad612a17565b600091825260208220600590910201546001600160a01b031690610576565b90505b604051630b82a57d60e21b815260048101829052600090819073__BravoLibrary__________________________90632e0a95f490602401600060405180830381865af4158015610824573d6000803e3d6000fd5b505050506040513d6000823e601f3d908101601f1916820160405261084c9190810190612a7c565b9150915073__BravoLibrary__________________________637a407315866108986005898154811061088157610881612a17565b90600052602060002090600502016003015461171c565b6108c560058a815481106108ae576108ae612a17565b90600052602060002090600502016004015461171c565b60058a815481106108d8576108d8612a17565b9060005260206000209060050201600101878761091860058e8154811061090157610901612a17565b90600052602060002090600502016002015461171c565b6040518863ffffffff1660e01b815260040161093a9796959493929190612b0f565b600060405180830381865af4158015610957573d6000803e3d6000fd5b505050506040513d6000823e601f3d908101601f1916820160405261097f9190810190612c03565b95945050505050565b61099061158a565b6001600160a01b03166000908152600660205260409020805460ff19166001179055565b60405162461bcd60e51b815260206004820152601760248201527f4261746368207472616e736665722064697361626c656400000000000000000060448201526001906064016105dd565b505050505050565b610a0f61158a565b6040513390303180156108fc02916000818181858888f19350505050158015610a3c573d6000803e3d6000fd5b50565b60608151835114610aa45760405162461bcd60e51b815260206004820152602960248201527f455243313135353a206163636f756e747320616e6420696473206c656e677468604482015268040dad2e6dac2e8c6d60bb1b60648201526084016105dd565b600083516001600160401b03811115610abf57610abf6124ab565b604051908082528060200260200182016040528015610ae8578160200160208202803683370190505b50905060005b8451811015610b6057610b33858281518110610b0c57610b0c612a17565b6020026020010151858381518110610b2657610b26612a17565b6020026020010151610576565b828281518110610b4557610b45612a17565b6020908102919091010152610b5981612c4d565b9050610aee565b509392505050565b6001600160a01b038316331480610b845750610b8483336104e0565b610ba05760405162461bcd60e51b81526004016105dd90612c66565b610bab838383611950565b505050565b336001600160a01b031660058381548110610bcd57610bcd612a17565b60009182526020909120600590910201546001600160a01b031614610c045760405162461bcd60e51b81526004016105dd90612cb4565b601481511115610c4b5760405162461bcd60e51b8152602060048201526012602482015271436f6465206e616d6520746f6f206c6f6e6760701b60448201526064016105dd565b6000815111610c925760405162461bcd60e51b815260206004820152601360248201527210dbd919481b985b59481d1bdbc81cda1bdc9d606a1b60448201526064016105dd565b8060058381548110610ca657610ca6612a17565b90600052602060002090600502016001019081610bab9190612d41565b610ccb61158a565b610cd56000611aec565b565b60075460ff161515600114610d2e5760405162461bcd60e51b815260206004820152601860248201527f666972696e67202441494d302069732064697361626c6564000000000000000060448201526064016105dd565b80610d3a336000610576565b1015610d885760405162461bcd60e51b815260206004820152601b60248201527f596f7520646f6e2774206861766520656e6f756768202441494d30000000000060448201526064016105dd565b336001600160a01b031660058381548110610da557610da5612a17565b60009182526020909120600590910201546001600160a01b031614610ddc5760405162461bcd60e51b81526004016105dd90612cb4565b610de833600083611b3e565b8060058381548110610dfc57610dfc612a17565b90600052602060002090600502016002016000828254610e1c9190612e00565b90915550610e359050670de0b6b3a76400006064612e13565b60058381548110610e4857610e48612a17565b906000526020600020906005020160020154610e649190612e2a565b60058381548110610e7757610e77612a17565b9060005260206000209060050201600301819055505050565b610e9b338383611c5b565b5050565b60058181548110610eaf57600080fd5b6000918252602090912060059091020180546001820180546001600160a01b03909216935090610ede90612ad5565b80601f0160208091040260200160405190810160405280929190818152602001828054610f0a90612ad5565b8015610f575780601f10610f2c57610100808354040283529160200191610f57565b820191906000526020600020905b815481529060010190602001808311610f3a57829003601f168201915b5050505050908060020154908060030154908060040154905085565b3360009081526006602052604090205460ff161515600114610fe25760405162461bcd60e51b815260206004820152602260248201527f596f7520617265206e6f74206f6e20427261766f204e4654206d696e74206c696044820152611cdd60f21b60648201526084016105dd565b6014815111156110295760405162461bcd60e51b8152602060048201526012602482015271436f6465206e616d6520746f6f206c6f6e6760701b60448201526064016105dd565b60008151116110705760405162461bcd60e51b815260206004820152601360248201527210dbd919481b985b59481d1bdbc81cda1bdc9d606a1b60448201526064016105dd565b60055460c88111156110d05760405162461bcd60e51b8152602060048201526024808201527f4d617820737570706c79206f662032303020427261766f204e4654732072656160448201526318da195960e21b60648201526084016105dd565b6040805160a08101825233815260208101849052600081830181905260608201819052915162a0a51960e61b81526103e860048201526024810184905260226044820152608082019073__BravoLibrary__________________________90632829464090606401602060405180830381865af4158015611155573d6000803e3d6000fd5b505050506040513d601f19601f820116820180604052508101906111799190612e4c565b61118490606f612e00565b9052600580546001810182556000829052825191027f036b6384b5eca791c62761152d0c79bb0604c104a5fb6f4eb0703f3154bb3db0810180546001600160a01b039093166001600160a01b0319909316929092178255602083015192935083927f036b6384b5eca791c62761152d0c79bb0604c104a5fb6f4eb0703f3154bb3db1909101906112149082612d41565b5060408281015160028301556060830151600383015560809092015160049091015533600081815260066020908152838220805460ff1916905583519081019093528252611266918490600190611d3b565b610bab33600061127f670de0b6b3a76400006064612e13565b60405180602001604052806000815250611d3b565b6001600160a01b0385163314806112b057506112b085336104e0565b6112cc5760405162461bcd60e51b81526004016105dd90612c66565b600083116113275760405162461bcd60e51b815260206004820152602260248201527f455243313135353a202441494d30206973206e6f74207472616e7366657261626044820152616c6560f01b60648201526084016105dd565b8160011461138c5760405162461bcd60e51b815260206004820152602c60248201527f455243313135353a204f6e6c79203120427261766f204e46542063616e20626560448201526b081d1c985b9cd9995c9c995960a21b60648201526084016105dd565b6040805160028082526060820183526000926020830190803683370190505090506000816000815181106113c2576113c2612a17565b60200260200101818152505083816001815181106113e2576113e2612a17565b60209081029190910101526040805160028082526060820190925260009181602001602082028036833701905050905061141d876000610576565b8160008151811061143057611430612a17565b60200260200101818152505060018160018151811061145157611451612a17565b60200260200101818152505061146a87878484876117ae565b856005868154811061147e5761147e612a17565b6000918252602090912060059091020180546001600160a01b0319166001600160a01b039290921691909117905550505050505050565b6114bd61158a565b6001600160a01b0381166115225760405162461bcd60e51b815260206004820152602660248201527f4f776e61626c653a206e6577206f776e657220697320746865207a65726f206160448201526564647265737360d01b60648201526084016105dd565b610a3c81611aec565b6001600160a01b038316331480611547575061154783336104e0565b6115635760405162461bcd60e51b81526004016105dd90612c66565b610bab838383611b3e565b61157661158a565b6007805460ff19811660ff90911615179055565b6003546001600160a01b03163314610cd55760405162461bcd60e51b815260206004820181905260248201527f4f776e61626c653a2063616c6c6572206973206e6f7420746865206f776e657260448201526064016105dd565b6001600160a01b03841661160a5760405162461bcd60e51b81526004016105dd90612e65565b33600061161685611e55565b9050600061162385611e55565b9050611633838989858589611ea0565b6000868152602081815260408083206001600160a01b038c168452909152902054858110156116745760405162461bcd60e51b81526004016105dd90612eaa565b6000878152602081815260408083206001600160a01b038d8116855292528083208985039055908a168252812080548892906116b1908490612e00565b909155505060408051888152602081018890526001600160a01b03808b16928c821692918816917fc3d58168c5ae7397731d063d5bbf3d657854427343f4c083240f7aacaa2d0f62910160405180910390a4611711848a8a8a8a8a611eae565b505050505050505050565b6060600061172983612009565b60010190506000816001600160401b03811115611748576117486124ab565b6040519080825280601f01601f191660200182016040528015611772576020820181803683370190505b5090508181016020015b600019016f181899199a1a9b1b9c1cb0b131b232b360811b600a86061a8153600a850494508461177c57509392505050565b81518351146117cf5760405162461bcd60e51b81526004016105dd90612ef4565b6001600160a01b0384166117f55760405162461bcd60e51b81526004016105dd90612e65565b33611804818787878787611ea0565b60005b84518110156118ea57600085828151811061182457611824612a17565b60200260200101519050600085838151811061184257611842612a17565b602090810291909101810151600084815280835260408082206001600160a01b038e1683529093529190912054909150818110156118925760405162461bcd60e51b81526004016105dd90612eaa565b6000838152602081815260408083206001600160a01b038e8116855292528083208585039055908b168252812080548492906118cf908490612e00565b92505081905550505050806118e390612c4d565b9050611807565b50846001600160a01b0316866001600160a01b0316826001600160a01b03167f4a39dc06d4c0dbc64b70af90fd698a233a518aa5d07e595d983b8c0526c8f7fb878760405161193a929190612f3c565b60405180910390a46109ff8187878787876120e1565b6001600160a01b0383166119765760405162461bcd60e51b81526004016105dd90612f61565b80518251146119975760405162461bcd60e51b81526004016105dd90612ef4565b60003390506119ba81856000868660405180602001604052806000815250611ea0565b60005b8351811015611a7f5760008482815181106119da576119da612a17565b6020026020010151905060008483815181106119f8576119f8612a17565b602090810291909101810151600084815280835260408082206001600160a01b038c168352909352919091205490915081811015611a485760405162461bcd60e51b81526004016105dd90612fa4565b6000928352602083815260408085206001600160a01b038b1686529091529092209103905580611a7781612c4d565b9150506119bd565b5060006001600160a01b0316846001600160a01b0316826001600160a01b03167f4a39dc06d4c0dbc64b70af90fd698a233a518aa5d07e595d983b8c0526c8f7fb8686604051611ad0929190612f3c565b60405180910390a46040805160208101909152600090526106e2565b600380546001600160a01b038381166001600160a01b0319831681179093556040519116919082907f8be0079c531659141344cd1fd0a4f28419497f9722a3daafe3b4186f6b6457e090600090a35050565b6001600160a01b038316611b645760405162461bcd60e51b81526004016105dd90612f61565b336000611b7084611e55565b90506000611b7d84611e55565b9050611b9d83876000858560405180602001604052806000815250611ea0565b6000858152602081815260408083206001600160a01b038a16845290915290205484811015611bde5760405162461bcd60e51b81526004016105dd90612fa4565b6000868152602081815260408083206001600160a01b038b81168086529184528285208a8703905582518b81529384018a90529092908816917fc3d58168c5ae7397731d063d5bbf3d657854427343f4c083240f7aacaa2d0f62910160405180910390a46040805160208101909152600090525b50505050505050565b816001600160a01b0316836001600160a01b031603611cce5760405162461bcd60e51b815260206004820152602960248201527f455243313135353a2073657474696e6720617070726f76616c20737461747573604482015268103337b91039b2b63360b91b60648201526084016105dd565b6001600160a01b03838116600081815260016020908152604080832094871680845294825291829020805460ff191686151590811790915591519182527f17307eab39ab6107e8899845ad3d59bd9653f200f220920489ca2b5937696c31910160405180910390a3505050565b6001600160a01b038416611d9b5760405162461bcd60e51b815260206004820152602160248201527f455243313135353a206d696e7420746f20746865207a65726f206164647265736044820152607360f81b60648201526084016105dd565b336000611da785611e55565b90506000611db485611e55565b9050611dc583600089858589611ea0565b6000868152602081815260408083206001600160a01b038b16845290915281208054879290611df5908490612e00565b909155505060408051878152602081018790526001600160a01b03808a1692600092918716917fc3d58168c5ae7397731d063d5bbf3d657854427343f4c083240f7aacaa2d0f62910160405180910390a4611c5283600089898989611eae565b60408051600180825281830190925260609160009190602080830190803683370190505090508281600081518110611e8f57611e8f612a17565b602090810291909101015292915050565b6109ff86868686868661219c565b6001600160a01b0384163b156109ff5760405163f23a6e6160e01b81526001600160a01b0385169063f23a6e6190611ef29089908990889088908890600401612fe8565b6020604051808303816000875af1925050508015611f2d575060408051601f3d908101601f19168201909252611f2a9181019061302b565b60015b611fd957611f39613048565b806308c379a003611f725750611f4d613064565b80611f585750611f74565b8060405162461bcd60e51b81526004016105dd91906123e5565b505b60405162461bcd60e51b815260206004820152603460248201527f455243313135353a207472616e7366657220746f206e6f6e2d455243313135356044820152732932b1b2b4bb32b91034b6b83632b6b2b73a32b960611b60648201526084016105dd565b6001600160e01b0319811663f23a6e6160e01b14611c525760405162461bcd60e51b81526004016105dd906130ed565b60008072184f03e93ff9f4daa797ed6e38ed64bf6a1f0160401b83106120485772184f03e93ff9f4daa797ed6e38ed64bf6a1f0160401b830492506040015b6d04ee2d6d415b85acef81000000008310612074576d04ee2d6d415b85acef8100000000830492506020015b662386f26fc10000831061209257662386f26fc10000830492506010015b6305f5e10083106120aa576305f5e100830492506008015b61271083106120be57612710830492506004015b606483106120d0576064830492506002015b600a83106106095760010192915050565b6001600160a01b0384163b156109ff5760405163bc197c8160e01b81526001600160a01b0385169063bc197c81906121259089908990889088908890600401613135565b6020604051808303816000875af1925050508015612160575060408051601f3d908101601f1916820190925261215d9181019061302b565b60015b61216c57611f39613048565b6001600160e01b0319811663bc197c8160e01b14611c525760405162461bcd60e51b81526004016105dd906130ed565b6001600160a01b0385166122235760005b8351811015612221578281815181106121c8576121c8612a17565b6020026020010151600460008684815181106121e6576121e6612a17565b60200260200101518152602001908152602001600020600082825461220b9190612e00565b9091555061221a905081612c4d565b90506121ad565b505b6001600160a01b0384166109ff5760005b8351811015611c5257600084828151811061225157612251612a17565b60200260200101519050600084838151811061226f5761226f612a17565b60200260200101519050600060046000848152602001908152602001600020549050818110156122f25760405162461bcd60e51b815260206004820152602860248201527f455243313135353a206275726e20616d6f756e74206578636565647320746f74604482015267616c537570706c7960c01b60648201526084016105dd565b6000928352600460205260409092209103905561230e81612c4d565b9050612234565b80356001600160a01b038116811461232c57600080fd5b919050565b6000806040838503121561234457600080fd5b61234d83612315565b946020939093013593505050565b6001600160e01b031981168114610a3c57600080fd5b60006020828403121561238357600080fd5b813561238e8161235b565b9392505050565b60005b838110156123b0578181015183820152602001612398565b50506000910152565b600081518084526123d1816020860160208601612395565b601f01601f19169290920160200192915050565b60208152600061238e60208301846123b9565b6000806000806060858703121561240e57600080fd5b843593506020850135925060408501356001600160401b038082111561243357600080fd5b818701915087601f83011261244757600080fd5b81358181111561245657600080fd5b88602082850101111561246857600080fd5b95989497505060200194505050565b60006020828403121561248957600080fd5b5035919050565b6000602082840312156124a257600080fd5b61238e82612315565b634e487b7160e01b600052604160045260246000fd5b601f8201601f191681016001600160401b03811182821017156124e6576124e66124ab565b6040525050565b60006001600160401b03821115612506576125066124ab565b5060051b60200190565b600082601f83011261252157600080fd5b8135602061252e826124ed565b60405161253b82826124c1565b83815260059390931b850182019282810191508684111561255b57600080fd5b8286015b84811015612576578035835291830191830161255f565b509695505050505050565b60006001600160401b0382111561259a5761259a6124ab565b50601f01601f191660200190565b600082601f8301126125b957600080fd5b81356125c481612581565b6040516125d182826124c1565b8281528560208487010111156125e657600080fd5b82602086016020830137600092810160200192909252509392505050565b600080600080600060a0868803121561261c57600080fd5b61262586612315565b945061263360208701612315565b935060408601356001600160401b038082111561264f57600080fd5b61265b89838a01612510565b9450606088013591508082111561267157600080fd5b61267d89838a01612510565b9350608088013591508082111561269357600080fd5b506126a0888289016125a8565b9150509295509295909350565b600080604083850312156126c057600080fd5b82356001600160401b03808211156126d757600080fd5b818501915085601f8301126126eb57600080fd5b813560206126f8826124ed565b60405161270582826124c1565b83815260059390931b850182019282810191508984111561272557600080fd5b948201945b8386101561274a5761273b86612315565b8252948201949082019061272a565b9650508601359250508082111561276057600080fd5b5061276d85828601612510565b9150509250929050565b600081518084526020808501945080840160005b838110156127a75781518752958201959082019060010161278b565b509495945050505050565b60208152600061238e6020830184612777565b6000806000606084860312156127da57600080fd5b6127e384612315565b925060208401356001600160401b03808211156127ff57600080fd5b61280b87838801612510565b9350604086013591508082111561282157600080fd5b5061282e86828701612510565b9150509250925092565b6000806040838503121561284b57600080fd5b8235915060208301356001600160401b0381111561286857600080fd5b61276d858286016125a8565b6000806040838503121561288757600080fd5b50508035926020909101359150565b600080604083850312156128a957600080fd5b6128b283612315565b9150602083013580151581146128c757600080fd5b809150509250929050565b6001600160a01b038616815260a0602082015260006128f460a08301876123b9565b604083019590955250606081019290925260809091015292915050565b60006020828403121561292357600080fd5b81356001600160401b0381111561293957600080fd5b612945848285016125a8565b949350505050565b6000806040838503121561296057600080fd5b61296983612315565b915061297760208401612315565b90509250929050565b600080600080600060a0868803121561299857600080fd5b6129a186612315565b94506129af60208701612315565b9350604086013592506060860135915060808601356001600160401b038111156129d857600080fd5b6126a0888289016125a8565b6000806000606084860312156129f957600080fd5b612a0284612315565b95602085013595506040909401359392505050565b634e487b7160e01b600052603260045260246000fd5b600082601f830112612a3e57600080fd5b8151612a4981612581565b604051612a5682826124c1565b828152856020848701011115612a6b57600080fd5b61097f836020830160208801612395565b60008060408385031215612a8f57600080fd5b82516001600160401b0380821115612aa657600080fd5b612ab286838701612a2d565b93506020850151915080821115612ac857600080fd5b5061276d85828601612a2d565b600181811c90821680612ae957607f821691505b602082108103612b0957634e487b7160e01b600052602260045260246000fd5b50919050565b8781526000602060e081840152612b2960e084018a6123b9565b8381036040850152612b3b818a6123b9565b9050838103606085015260008854612b5281612ad5565b80845260018281168015612b6d5760018114612b8757612bb5565b60ff1984168688015282151560051b860187019450612bb5565b8c6000528660002060005b84811015612bad5781548882018a0152908301908801612b92565b870188019550505b505050508481036080860152612bcb81896123b9565b9250505082810360a0840152612be181866123b9565b905082810360c0840152612bf581856123b9565b9a9950505050505050505050565b600060208284031215612c1557600080fd5b81516001600160401b03811115612c2b57600080fd5b61294584828501612a2d565b634e487b7160e01b600052601160045260246000fd5b600060018201612c5f57612c5f612c37565b5060010190565b6020808252602e908201527f455243313135353a2063616c6c6572206973206e6f7420746f6b656e206f776e60408201526d195c881bdc88185c1c1c9bdd995960921b606082015260800190565b60208082526027908201527f596f7520617265206e6f7420746865206f776e6572206f662074686973204272604082015266185d9bc813919560ca1b606082015260800190565b601f821115610bab57600081815260208120601f850160051c81016020861015612d225750805b601f850160051c820191505b818110156109ff57828155600101612d2e565b81516001600160401b03811115612d5a57612d5a6124ab565b612d6e81612d688454612ad5565b84612cfb565b602080601f831160018114612da35760008415612d8b5750858301515b600019600386901b1c1916600185901b1785556109ff565b600085815260208120601f198616915b82811015612dd257888601518255948401946001909101908401612db3565b5085821015612df05787850151600019600388901b60f8161c191681555b5050505050600190811b01905550565b8082018082111561060957610609612c37565b808202811582820484141761060957610609612c37565b600082612e4757634e487b7160e01b600052601260045260246000fd5b500490565b600060208284031215612e5e57600080fd5b5051919050565b60208082526025908201527f455243313135353a207472616e7366657220746f20746865207a65726f206164604082015264647265737360d81b606082015260800190565b6020808252602a908201527f455243313135353a20696e73756666696369656e742062616c616e636520666f60408201526939103a3930b739b332b960b11b606082015260800190565b60208082526028908201527f455243313135353a2069647320616e6420616d6f756e7473206c656e677468206040820152670dad2e6dac2e8c6d60c31b606082015260800190565b604081526000612f4f6040830185612777565b828103602084015261097f8185612777565b60208082526023908201527f455243313135353a206275726e2066726f6d20746865207a65726f206164647260408201526265737360e81b606082015260800190565b60208082526024908201527f455243313135353a206275726e20616d6f756e7420657863656564732062616c604082015263616e636560e01b606082015260800190565b60006001600160a01b03808816835280871660208401525084604083015283606083015260a0608083015261302060a08301846123b9565b979650505050505050565b60006020828403121561303d57600080fd5b815161238e8161235b565b600060033d11156130615760046000803e5060005160e01c5b90565b600060443d10156130725790565b6040516003193d81016004833e81513d6001600160401b0381602484011181841117156130a157505050505090565b82850191508151818111156130b95750505050505090565b843d87010160208285010111156130d35750505050505090565b6130e2602082860101876124c1565b509095945050505050565b60208082526028908201527f455243313135353a204552433131353552656365697665722072656a656374656040820152676420746f6b656e7360c01b606082015260800190565b60006001600160a01b03808816835280871660208401525060a0604083015261316160a0830186612777565b82810360608401526131738186612777565b9050828103608084015261318781856123b9565b9897505050505050505056fea26469706673582212208906e92d4ec30a4b40eb31135e3ce267405ea3d028dc0a3c32c142659c94572264736f6c63430008130033",
  "immutableReferences": {},
  "source": "// SPDX-License-Identifier: MIT\npragma solidity ^0.8.19;\n//...............................................................................................................\n//..ZZZZZZZZZ...EEEEEEEEE...RRRRR..........OOOOOO..............AAA.......RRRRR........MMM.....MMM...YY......YY...\n//.ZZZZZZZZZZZ.EEEEEEEEEEE.RRRRRRRRRR.....OOOOOOOOO...........AAAAA.....RRRRRRRRRR...MMMMM...MMMMM.YYYYY...YYYY..\n//.ZZZZZZZZZZZ.EEEEEEEEEEE.RRRRRRRRRRR...OOOOOOOOOO...........AAAAA.....RRRRRRRRRRR..MMMMM...MMMMM.YYYYY..YYYYY..\n//.ZZZZZZZZZZZ.EEEEEEEEEEE.RRRRRRRRRRR..OOOOOOOOOOOO.........AAAAAAA....RRRRRRRRRRR..MMMMMM..MMMMM..YYYY..YYYY...\n//......ZZZZZZ.EEEE........RRRR...RRRRR.OOOO....OOOO.........AAAAAAA....RRRR...RRRRR.MMMMMM.MMMMMM..YYYYYYYYYY...\n//.....ZZZZZZ..EEEEEEEEEE..RRRR...RRRRR.OOOO....OOOOO........AAAAAAA....RRRR...RRRRR.MMMMMM.MMMMMM...YYYYYYYY....\n//.....ZZZZZ...EEEEEEEEEE..RRRRRRRRRRR.OOOO......OOOO.......AAAAAAAAA...RRRRRRRRRRR..MMMMMM.MMMMMM...YYYYYYYY....\n//....ZZZZZ....EEEEEEEEEE..RRRRRRRRRRR.OOOO......OOOO.......AAAA.AAAA...RRRRRRRRRRR..MMMMMM.MMMMMM....YYYYYY.....\n//...ZZZZZ.....EEEEEEEEEE..RRRRRRRRRRR.OOOO......OOOO.......AAAAAAAAAA..RRRRRRRRRRR..MMMMMMMMMMMMM.....YYYYY.....\n//..ZZZZZ......EEEE........RRRR..RRRRR..OOOO....OOOOO......AAAAAAAAAAA..RRRR..RRRRR..MMM.MMMMMMMMM.....YYYY......\n//.ZZZZZZ......EEEE........RRRR...RRRR..OOOO....OOOO.......AAAAAAAAAAA..RRRR...RRRR..MMM.MMMMM.MMM.....YYYY......\n//.ZZZZZZZZZZZ.EEEEEEEEEEE.RRRR...RRRR..OOOOOOOOOOOO.......AAAAAAAAAAAA.RRRR...RRRR..MMM.MMMMM.MMM.....YYYY......\n//.ZZZZZZZZZZZ.EEEEEEEEEEE.RRRR...RRRR...OOOOOOOOOO....... AAAA....AAAA.RRRR...RRRR..MMM.MMMMM.MMM.....YYYY......\n//.ZZZZZZZZZZZ.EEEEEEEEEEE.RRRR...RRRRR...OOOOOOOOO....... AAA.....AAAA.RRRR...RRRRR.MMM.MMMMM.MMM.....YYYY......\n//.........................................OOOOOO................................................................\n//...............................................................................................................\n/// @author Simon G.Ionashku - find me on github: simon-masterclass\n// This Bravo Company NFT collection is designed to incentives the first 100 volunteers/employees\n// to enlist and claim their NFTs with $AIM0 rewards built in. Additional $AIM0 payments for work also possible.\n// This ERC-1155 contract is designed to contain both fungible and non-fungible tokens in a novel way\n// Each NFT contains fungible tokens $AIM0 and these fungible $AIM0 tokens are soulbound to the NFT\n// Every time a Bravo Company Commander Zero (AKA: C0) burns thier $AIM0 by using the\n// fire$AIM0 function they earn Mission Coins (to be minted seperately using the records in this contract)\n// in addition, every time a Bravo Company C0 burns 100 rounds of $AIM0 (ideally within the MetaSERVE), their NFT ranks up.\n// The attributes that these NFTs contain will be useful with the Zero Army's MetaSERVE\n\nimport \"@openzeppelin/contracts/token/ERC1155/ERC1155.sol\";\nimport \"@openzeppelin/contracts/token/ERC1155/extensions/ERC1155Burnable.sol\";\nimport \"@openzeppelin/contracts/access/Ownable.sol\";\nimport \"@openzeppelin/contracts/token/ERC1155/extensions/ERC1155Supply.sol\";\nimport \"@openzeppelin/contracts/utils/Strings.sol\";\nimport {BravoLibrary} from \"./BravoLibrary.sol\";\n\ncontract OnchainBravoNFTs is ERC1155, ERC1155Burnable, Ownable, ERC1155Supply {\n    using Strings for uint256;\n    using BravoLibrary for uint256;\n\n    //$AIM0 (fungible) token variables\n    //NOTE: max supply of $AIM0 (fungible) tokens for this Bravo Company collection is 1 million\n    uint256 private constant $AIM0 = 0; //token ID for $AIM0 (fungible) token\n    uint256 public constant maxSupply = 200; //max supply of Bravo NFTs + 1 for $AIM0 (fungible) tokens = 201\n\n    string public constant symbol = \"BRAV0\";\n    string public constant name = \"Bravo Company NFTs\";\n    //decimals = 10 ** 18 for $AIM0 & Mission Coins (fungible) tokens\n    uint256 public constant decimals = 10 ** 18;\n\n\n    //Bravo Company NFT variables & attrtibutes\n    //NOTE: max supply of NFTs for this Bravo Company collection is 100\n    struct BravoNFT {\n        address bravOwner;\n        string codeName;\n        uint256 missionCoinsEarned;\n        uint256 rank;\n        uint256 bravoBoost;\n    }\n\n    BravoNFT[] public bravoNFT$;\n\n    //enlistment whitelist\n    mapping(address => bool) private bravoAddressTF;\n\n    //enable burning of $AIM0 tokens for mission coins\n    bool public fire$AIM0TF = false;\n\n    constructor() ERC1155(\"\") {\n        //mint 1 million rounds of $AIM0 minus 10000 to be minted by recruits later (for gas efficiency)\n        uint256 mintAIM0 = ((10 ** 6) * decimals) - (10000 * decimals);\n        _mint(owner(), $AIM0, mintAIM0, \"\");\n\n        //first BravoNFT is the unburned $AIM0 supply\n        BravoNFT memory newBravoNFT = BravoNFT({\n            bravOwner: owner(),\n            codeName: \"$AIM0: UNBURNED SUPPLY\",\n            missionCoinsEarned: 0,\n            rank: 0,\n            bravoBoost: 0\n        });\n\n        bravoNFT$.push(newBravoNFT);\n    }\n\n    function mint(string memory codeName) public payable {\n        require(\n            bravoAddressTF[msg.sender] == true,\n            \"You are not on Bravo NFT mint list\"\n        );\n        require(bytes(codeName).length <= 20, \"Code name too long\");\n        require(bytes(codeName).length > 0, \"Code name too short\");\n        uint256 newID = bravoNFT$.length;\n        require(newID <= maxSupply, \"Max supply of 200 Bravo NFTs reached\");\n\n        //Bravo NFT variables - add new Bravo NFT to the collection\n        BravoNFT memory newBravoNFT = BravoNFT({\n            bravOwner: msg.sender,\n            codeName: codeName,\n            missionCoinsEarned: 0,\n            rank: 0,\n            bravoBoost: 111 + BravoLibrary.randomNum(1000, newID, 34)\n        });\n\n        bravoNFT$.push(newBravoNFT);\n\n        bravoAddressTF[msg.sender] = false;\n\n        //mint new NFT for Bravo company recruit with code name\n        _mint(msg.sender, newID, 1, \"\");\n\n        //mint 100 rounds of $AIM0 to the new recruit as enlistment bonus\n        _mint(msg.sender, $AIM0, 100 * decimals, \"\");\n    }\n\n    function changeBravoCodeName(\n        uint256 tokenId,\n        string memory _newCodeName\n    ) public payable {\n        require(\n            bravoNFT$[tokenId].bravOwner == msg.sender,\n            \"You are not the owner of this Bravo NFT\"\n        );\n        require(bytes(_newCodeName).length <= 20, \"Code name too long\");\n        require(bytes(_newCodeName).length > 0, \"Code name too short\");\n\n        bravoNFT$[tokenId].codeName = _newCodeName;\n    }\n\n    function uri(uint256 tokenId) public view override returns (string memory) {\n        require(\n            exists(tokenId),\n            \"ERC1155Metadata: URI query for nonexistent token\"\n        );\n\n        //calculate balance\n        uint balance = 0;\n        if (tokenId == $AIM0) {\n            balance = totalSupply($AIM0);\n        } else {\n            balance = balanceOf(bravoNFT$[tokenId].bravOwner, $AIM0);\n        }\n\n        (string memory returnBalance, string memory unitName) = BravoLibrary\n            .calculateUnits(balance);\n\n        return\n            BravoLibrary.returnMetadata(\n                tokenId,\n                bravoNFT$[tokenId].rank.toString(),\n                bravoNFT$[tokenId].bravoBoost.toString(),\n                bravoNFT$[tokenId].codeName,\n                returnBalance,\n                unitName,\n                bravoNFT$[tokenId].missionCoinsEarned.toString()\n            );\n    }\n\n    function enlistBravo(address bravoAddress) public payable onlyOwner {\n        bravoAddressTF[bravoAddress] = true;\n    }\n\n    function payBravo(\n        uint256 tokenId,\n        uint256 amount,\n        bytes calldata data\n    ) public payable onlyOwner {\n        //pay Bravo NFT owner $AIM0\n        _safeTransferFrom(\n            msg.sender,\n            bravoNFT$[tokenId].bravOwner,\n            $AIM0,\n            amount,\n            data\n        );\n    }\n\n    function toggle$AIM0firing() public payable onlyOwner {\n        fire$AIM0TF = !fire$AIM0TF;\n    }\n\n    function fire$AIM0(uint256 tokenId, uint256 amount) public payable {\n        require(fire$AIM0TF == true, \"firing $AIM0 is disabled\");\n        require(\n            balanceOf(msg.sender, $AIM0) >= amount,\n            \"You don't have enough $AIM0\"\n        );\n        require(\n            bravoNFT$[tokenId].bravOwner == msg.sender,\n            \"You are not the owner of this Bravo NFT\"\n        );\n\n        _burn(msg.sender, $AIM0, amount);\n        // Mission coins earned after burning - to be minted later when system is fully operational\n        bravoNFT$[tokenId].missionCoinsEarned += amount;\n        //rank up after burning 100 $AIM0\n        bravoNFT$[tokenId].rank = uint256(\n            bravoNFT$[tokenId].missionCoinsEarned / (100 * decimals)\n        );\n    }\n\n    function safeTransferFrom(\n        address from,\n        address to,\n        uint256 id,\n        uint256 amount,\n        bytes memory data\n    ) public override {\n        require(\n            from == _msgSender() || isApprovedForAll(from, _msgSender()),\n            \"ERC1155: caller is not token owner or approved\"\n        );\n        require(id > 0, \"ERC1155: $AIM0 is not transferable\");\n        require(amount == 1, \"ERC1155: Only 1 Bravo NFT can be transferred\");\n\n        //transfer Bravo NFT along with all $AIM0 to new owner\n        uint256[] memory ids = new uint256[](2);\n        ids[0] = $AIM0;\n        ids[1] = id;\n\n        uint256[] memory amounts = new uint256[](2);\n        amounts[0] = balanceOf(from, $AIM0);\n        amounts[1] = 1;\n\n        _safeBatchTransferFrom(from, to, ids, amounts, data);\n        bravoNFT$[id].bravOwner = to;\n    }\n\n    function safeBatchTransferFrom(\n        address from,\n        address to,\n        uint256[] memory ids,\n        uint256[] memory amounts,\n        bytes memory data\n    ) public override {\n        //disabled batch transfer for this contract\n        bool disableBatchTransfer = true;\n        require(disableBatchTransfer == false, \"Batch transfer disabled\");\n        // require(\n        //     from == _msgSender() || isApprovedForAll(from, _msgSender()),\n        //     \"ERC1155: caller is not token owner or approved\"\n        // );\n        _safeBatchTransferFrom(from, to, ids, amounts, data);\n    }\n\n    function withdraw() public payable onlyOwner {\n        payable(msg.sender).transfer(address(this).balance);\n    }\n\n    // The following functions are overrides required by Solidity.\n\n    function _beforeTokenTransfer(\n        address operator,\n        address from,\n        address to,\n        uint256[] memory ids,\n        uint256[] memory amounts,\n        bytes memory data\n    ) internal override(ERC1155, ERC1155Supply) {\n        super._beforeTokenTransfer(operator, from, to, ids, amounts, data);\n    }\n}\n",
  "sourcePath": "/Users/c0/Documents/CODE/Zero_Army/Bravo/0xTruffleBravo/contracts/OnchainBravoNFTs.sol",
  "compiler": {
    "name": "solc",
    "version": "0.8.19+commit.7dd6d404.Emscripten.clang"
  },
  "schemaVersion": "3.4.14",
  "updatedAt": "2023-07-25T19:12:53.907Z",
  "devdoc": {
    "events": {
      "ApprovalForAll(address,address,bool)": {
        "details": "Emitted when `account` grants or revokes permission to `operator` to transfer their tokens, according to `approved`."
      },
      "TransferBatch(address,address,address,uint256[],uint256[])": {
        "details": "Equivalent to multiple {TransferSingle} events, where `operator`, `from` and `to` are the same for all transfers."
      },
      "TransferSingle(address,address,address,uint256,uint256)": {
        "details": "Emitted when `value` tokens of token type `id` are transferred from `from` to `to` by `operator`."
      },
      "URI(string,uint256)": {
        "details": "Emitted when the URI for token type `id` changes to `value`, if it is a non-programmatic URI. If an {URI} event was emitted for `id`, the standard https://eips.ethereum.org/EIPS/eip-1155#metadata-extensions[guarantees] that `value` will equal the value returned by {IERC1155MetadataURI-uri}."
      }
    },
    "kind": "dev",
    "methods": {
      "balanceOf(address,uint256)": {
        "details": "See {IERC1155-balanceOf}. Requirements: - `account` cannot be the zero address."
      },
      "balanceOfBatch(address[],uint256[])": {
        "details": "See {IERC1155-balanceOfBatch}. Requirements: - `accounts` and `ids` must have the same length."
      },
      "exists(uint256)": {
        "details": "Indicates whether any token exist with a given id, or not."
      },
      "isApprovedForAll(address,address)": {
        "details": "See {IERC1155-isApprovedForAll}."
      },
      "owner()": {
        "details": "Returns the address of the current owner."
      },
      "renounceOwnership()": {
        "details": "Leaves the contract without owner. It will not be possible to call `onlyOwner` functions. Can only be called by the current owner. NOTE: Renouncing ownership will leave the contract without an owner, thereby disabling any functionality that is only available to the owner."
      },
      "safeBatchTransferFrom(address,address,uint256[],uint256[],bytes)": {
        "details": "See {IERC1155-safeBatchTransferFrom}."
      },
      "safeTransferFrom(address,address,uint256,uint256,bytes)": {
        "details": "See {IERC1155-safeTransferFrom}."
      },
      "setApprovalForAll(address,bool)": {
        "details": "See {IERC1155-setApprovalForAll}."
      },
      "supportsInterface(bytes4)": {
        "details": "See {IERC165-supportsInterface}."
      },
      "totalSupply(uint256)": {
        "details": "Total amount of tokens in with a given id."
      },
      "transferOwnership(address)": {
        "details": "Transfers ownership of the contract to a new account (`newOwner`). Can only be called by the current owner."
      }
    },
    "version": 1
  },
  "userdoc": {
    "kind": "user",
    "methods": {},
    "version": 1
  }
}