{
  "contractName": "OnchainBravoNFTs",
  "abi": [
    {
      "inputs": [],
      "stateMutability": "nonpayable",
      "type": "constructor"
    },
    {
      "anonymous": false,
      "inputs": [
        {
          "indexed": true,
          "internalType": "address",
          "name": "account",
          "type": "address"
        },
        {
          "indexed": true,
          "internalType": "address",
          "name": "operator",
          "type": "address"
        },
        {
          "indexed": false,
          "internalType": "bool",
          "name": "approved",
          "type": "bool"
        }
      ],
      "name": "ApprovalForAll",
      "type": "event"
    },
    {
      "anonymous": false,
      "inputs": [
        {
          "indexed": true,
          "internalType": "address",
          "name": "previousOwner",
          "type": "address"
        },
        {
          "indexed": true,
          "internalType": "address",
          "name": "newOwner",
          "type": "address"
        }
      ],
      "name": "OwnershipTransferred",
      "type": "event"
    },
    {
      "anonymous": false,
      "inputs": [
        {
          "indexed": true,
          "internalType": "address",
          "name": "operator",
          "type": "address"
        },
        {
          "indexed": true,
          "internalType": "address",
          "name": "from",
          "type": "address"
        },
        {
          "indexed": true,
          "internalType": "address",
          "name": "to",
          "type": "address"
        },
        {
          "indexed": false,
          "internalType": "uint256[]",
          "name": "ids",
          "type": "uint256[]"
        },
        {
          "indexed": false,
          "internalType": "uint256[]",
          "name": "values",
          "type": "uint256[]"
        }
      ],
      "name": "TransferBatch",
      "type": "event"
    },
    {
      "anonymous": false,
      "inputs": [
        {
          "indexed": true,
          "internalType": "address",
          "name": "operator",
          "type": "address"
        },
        {
          "indexed": true,
          "internalType": "address",
          "name": "from",
          "type": "address"
        },
        {
          "indexed": true,
          "internalType": "address",
          "name": "to",
          "type": "address"
        },
        {
          "indexed": false,
          "internalType": "uint256",
          "name": "id",
          "type": "uint256"
        },
        {
          "indexed": false,
          "internalType": "uint256",
          "name": "value",
          "type": "uint256"
        }
      ],
      "name": "TransferSingle",
      "type": "event"
    },
    {
      "anonymous": false,
      "inputs": [
        {
          "indexed": false,
          "internalType": "string",
          "name": "value",
          "type": "string"
        },
        {
          "indexed": true,
          "internalType": "uint256",
          "name": "id",
          "type": "uint256"
        }
      ],
      "name": "URI",
      "type": "event"
    },
    {
      "inputs": [
        {
          "internalType": "address",
          "name": "account",
          "type": "address"
        },
        {
          "internalType": "uint256",
          "name": "id",
          "type": "uint256"
        }
      ],
      "name": "balanceOf",
      "outputs": [
        {
          "internalType": "uint256",
          "name": "",
          "type": "uint256"
        }
      ],
      "stateMutability": "view",
      "type": "function"
    },
    {
      "inputs": [
        {
          "internalType": "address[]",
          "name": "accounts",
          "type": "address[]"
        },
        {
          "internalType": "uint256[]",
          "name": "ids",
          "type": "uint256[]"
        }
      ],
      "name": "balanceOfBatch",
      "outputs": [
        {
          "internalType": "uint256[]",
          "name": "",
          "type": "uint256[]"
        }
      ],
      "stateMutability": "view",
      "type": "function"
    },
    {
      "inputs": [
        {
          "internalType": "uint256",
          "name": "",
          "type": "uint256"
        }
      ],
      "name": "bravoNFT$",
      "outputs": [
        {
          "internalType": "address",
          "name": "bravOwner",
          "type": "address"
        },
        {
          "internalType": "string",
          "name": "codeName",
          "type": "string"
        },
        {
          "internalType": "uint256",
          "name": "missionCoinsEarned",
          "type": "uint256"
        },
        {
          "internalType": "uint256",
          "name": "rank",
          "type": "uint256"
        },
        {
          "internalType": "uint256",
          "name": "bravoBoost",
          "type": "uint256"
        }
      ],
      "stateMutability": "view",
      "type": "function"
    },
    {
      "inputs": [
        {
          "internalType": "address",
          "name": "account",
          "type": "address"
        },
        {
          "internalType": "uint256",
          "name": "id",
          "type": "uint256"
        },
        {
          "internalType": "uint256",
          "name": "value",
          "type": "uint256"
        }
      ],
      "name": "burn",
      "outputs": [],
      "stateMutability": "nonpayable",
      "type": "function"
    },
    {
      "inputs": [
        {
          "internalType": "address",
          "name": "account",
          "type": "address"
        },
        {
          "internalType": "uint256[]",
          "name": "ids",
          "type": "uint256[]"
        },
        {
          "internalType": "uint256[]",
          "name": "values",
          "type": "uint256[]"
        }
      ],
      "name": "burnBatch",
      "outputs": [],
      "stateMutability": "nonpayable",
      "type": "function"
    },
    {
      "inputs": [
        {
          "internalType": "uint256",
          "name": "id",
          "type": "uint256"
        }
      ],
      "name": "exists",
      "outputs": [
        {
          "internalType": "bool",
          "name": "",
          "type": "bool"
        }
      ],
      "stateMutability": "view",
      "type": "function"
    },
    {
      "inputs": [],
      "name": "fire$AIM0TF",
      "outputs": [
        {
          "internalType": "bool",
          "name": "",
          "type": "bool"
        }
      ],
      "stateMutability": "view",
      "type": "function"
    },
    {
      "inputs": [
        {
          "internalType": "address",
          "name": "account",
          "type": "address"
        },
        {
          "internalType": "address",
          "name": "operator",
          "type": "address"
        }
      ],
      "name": "isApprovedForAll",
      "outputs": [
        {
          "internalType": "bool",
          "name": "",
          "type": "bool"
        }
      ],
      "stateMutability": "view",
      "type": "function"
    },
    {
      "inputs": [],
      "name": "owner",
      "outputs": [
        {
          "internalType": "address",
          "name": "",
          "type": "address"
        }
      ],
      "stateMutability": "view",
      "type": "function"
    },
    {
      "inputs": [],
      "name": "renounceOwnership",
      "outputs": [],
      "stateMutability": "nonpayable",
      "type": "function"
    },
    {
      "inputs": [
        {
          "internalType": "address",
          "name": "operator",
          "type": "address"
        },
        {
          "internalType": "bool",
          "name": "approved",
          "type": "bool"
        }
      ],
      "name": "setApprovalForAll",
      "outputs": [],
      "stateMutability": "nonpayable",
      "type": "function"
    },
    {
      "inputs": [
        {
          "internalType": "bytes4",
          "name": "interfaceId",
          "type": "bytes4"
        }
      ],
      "name": "supportsInterface",
      "outputs": [
        {
          "internalType": "bool",
          "name": "",
          "type": "bool"
        }
      ],
      "stateMutability": "view",
      "type": "function"
    },
    {
      "inputs": [
        {
          "internalType": "uint256",
          "name": "id",
          "type": "uint256"
        }
      ],
      "name": "totalSupply",
      "outputs": [
        {
          "internalType": "uint256",
          "name": "",
          "type": "uint256"
        }
      ],
      "stateMutability": "view",
      "type": "function"
    },
    {
      "inputs": [
        {
          "internalType": "address",
          "name": "newOwner",
          "type": "address"
        }
      ],
      "name": "transferOwnership",
      "outputs": [],
      "stateMutability": "nonpayable",
      "type": "function"
    },
    {
      "inputs": [
        {
          "internalType": "string",
          "name": "codeName",
          "type": "string"
        }
      ],
      "name": "mint",
      "outputs": [],
      "stateMutability": "payable",
      "type": "function"
    },
    {
      "inputs": [
        {
          "internalType": "uint256",
          "name": "tokenId",
          "type": "uint256"
        },
        {
          "internalType": "string",
          "name": "_newCodeName",
          "type": "string"
        }
      ],
      "name": "changeBravoCodeName",
      "outputs": [],
      "stateMutability": "payable",
      "type": "function"
    },
    {
      "inputs": [
        {
          "internalType": "uint256",
          "name": "tokenId",
          "type": "uint256"
        }
      ],
      "name": "uri",
      "outputs": [
        {
          "internalType": "string",
          "name": "",
          "type": "string"
        }
      ],
      "stateMutability": "view",
      "type": "function"
    },
    {
      "inputs": [
        {
          "internalType": "address",
          "name": "bravoAddress",
          "type": "address"
        }
      ],
      "name": "enlistBravo",
      "outputs": [],
      "stateMutability": "payable",
      "type": "function"
    },
    {
      "inputs": [
        {
          "internalType": "uint256",
          "name": "tokenId",
          "type": "uint256"
        },
        {
          "internalType": "uint256",
          "name": "amount",
          "type": "uint256"
        },
        {
          "internalType": "bytes",
          "name": "data",
          "type": "bytes"
        }
      ],
      "name": "payBravo",
      "outputs": [],
      "stateMutability": "payable",
      "type": "function"
    },
    {
      "inputs": [],
      "name": "toggle$AIM0firing",
      "outputs": [],
      "stateMutability": "payable",
      "type": "function"
    },
    {
      "inputs": [
        {
          "internalType": "uint256",
          "name": "tokenId",
          "type": "uint256"
        },
        {
          "internalType": "uint256",
          "name": "amount",
          "type": "uint256"
        }
      ],
      "name": "fire$AIM0",
      "outputs": [],
      "stateMutability": "payable",
      "type": "function"
    },
    {
      "inputs": [
        {
          "internalType": "address",
          "name": "from",
          "type": "address"
        },
        {
          "internalType": "address",
          "name": "to",
          "type": "address"
        },
        {
          "internalType": "uint256",
          "name": "id",
          "type": "uint256"
        },
        {
          "internalType": "uint256",
          "name": "amount",
          "type": "uint256"
        },
        {
          "internalType": "bytes",
          "name": "data",
          "type": "bytes"
        }
      ],
      "name": "safeTransferFrom",
      "outputs": [],
      "stateMutability": "nonpayable",
      "type": "function"
    },
    {
      "inputs": [
        {
          "internalType": "address",
          "name": "from",
          "type": "address"
        },
        {
          "internalType": "address",
          "name": "to",
          "type": "address"
        },
        {
          "internalType": "uint256[]",
          "name": "ids",
          "type": "uint256[]"
        },
        {
          "internalType": "uint256[]",
          "name": "amounts",
          "type": "uint256[]"
        },
        {
          "internalType": "bytes",
          "name": "data",
          "type": "bytes"
        }
      ],
      "name": "safeBatchTransferFrom",
      "outputs": [],
      "stateMutability": "nonpayable",
      "type": "function"
    },
    {
      "inputs": [],
      "name": "withdraw",
      "outputs": [],
      "stateMutability": "payable",
      "type": "function"
    }
  ],
  "bytecode": "0x60806040526007805460ff191690553480156200001b57600080fd5b506040805160208101909152600081526200003681620001b0565b506200004233620001c2565b69d1a401ee0332eec0000062000083620000646003546001600160a01b031690565b600083604051806020016040528060008152506200022360201b60201c565b60006040518060a00160405280620000a06200021460201b60201c565b6001600160a01b039081168252604080518082018252601681527f2441494d303a20554e4255524e454420535550504c5900000000000000000000602080830191909152808501919091526000918401829052606084018290526080909301819052600580546001810182559181905284517f036b6384b5eca791c62761152d0c79bb0604c104a5fb6f4eb0703f3154bb3db09290910291820180546001600160a01b0319169190931617825591830151929350839290917f036b6384b5eca791c62761152d0c79bb0604c104a5fb6f4eb0703f3154bb3db10190620001879082620008ec565b506040820151816002015560608201518160030155608082015181600401555050505062000c18565b6002620001be8282620008ec565b5050565b600380546001600160a01b038381166001600160a01b0319831681179093556040519116919082907f8be0079c531659141344cd1fd0a4f28419497f9722a3daafe3b4186f6b6457e090600090a35050565b6003546001600160a01b031690565b6001600160a01b038416620002bf576040517f08c379a000000000000000000000000000000000000000000000000000000000815260206004820152602160248201527f455243313135353a206d696e7420746f20746865207a65726f2061646472657360448201527f730000000000000000000000000000000000000000000000000000000000000060648201526084015b60405180910390fd5b336000620002cd856200038c565b90506000620002dc856200038c565b9050620002ef83600089858589620003da565b6000868152602081815260408083206001600160a01b038b1684529091528120805487929062000321908490620009e7565b909155505060408051878152602081018790526001600160a01b03808a1692600092918716917fc3d58168c5ae7397731d063d5bbf3d657854427343f4c083240f7aacaa2d0f62910160405180910390a46200038383600089898989620003f2565b50505050505050565b60408051600180825281830190925260609160009190602080830190803683370190505090508281600081518110620003c957620003c962000a03565b602090810291909101015292915050565b620003ea86868686868662000657565b505050505050565b6001600160a01b0384163b15620003ea576040517ff23a6e610000000000000000000000000000000000000000000000000000000081526001600160a01b0385169063f23a6e619062000452908990899088908890889060040162000a7a565b6020604051808303816000875af192505050801562000490575060408051601f3d908101601f191682019092526200048d9181019062000ac1565b60015b62000584576200049f62000b0c565b806308c379a003620004f95750620004b662000b58565b80620004c35750620004fb565b806040517f08c379a0000000000000000000000000000000000000000000000000000000008152600401620002b6919062000be7565b505b6040517f08c379a000000000000000000000000000000000000000000000000000000000815260206004820152603460248201527f455243313135353a207472616e7366657220746f206e6f6e2d4552433131353560448201527f526563656976657220696d706c656d656e7465720000000000000000000000006064820152608401620002b6565b7fffffffff0000000000000000000000000000000000000000000000000000000081167ff23a6e61000000000000000000000000000000000000000000000000000000001462000383576040517f08c379a000000000000000000000000000000000000000000000000000000000815260206004820152602860248201527f455243313135353a204552433131353552656365697665722072656a6563746560448201527f6420746f6b656e730000000000000000000000000000000000000000000000006064820152608401620002b6565b6001600160a01b038516620006eb5760005b8351811015620006e95782818151811062000688576200068862000a03565b602002602001015160046000868481518110620006a957620006a962000a03565b602002602001015181526020019081526020016000206000828254620006d09190620009e7565b90915550620006e190508162000bfc565b905062000669565b505b6001600160a01b038416620003ea5760005b8351811015620003835760008482815181106200071e576200071e62000a03565b6020026020010151905060008483815181106200073f576200073f62000a03565b6020026020010151905060006004600084815260200190815260200160002054905081811015620007f3576040517f08c379a000000000000000000000000000000000000000000000000000000000815260206004820152602860248201527f455243313135353a206275726e20616d6f756e74206578636565647320746f7460448201527f616c537570706c790000000000000000000000000000000000000000000000006064820152608401620002b6565b60009283526004602052604090922091039055620008118162000bfc565b9050620006fd565b7f4e487b7100000000000000000000000000000000000000000000000000000000600052604160045260246000fd5b600181811c908216806200085d57607f821691505b60208210810362000897577f4e487b7100000000000000000000000000000000000000000000000000000000600052602260045260246000fd5b50919050565b601f821115620008e757600081815260208120601f850160051c81016020861015620008c65750805b601f850160051c820191505b81811015620003ea57828155600101620008d2565b505050565b81516001600160401b0381111562000908576200090862000819565b620009208162000919845462000848565b846200089d565b602080601f8311600181146200095857600084156200093f5750858301515b600019600386901b1c1916600185901b178555620003ea565b600085815260208120601f198616915b82811015620009895788860151825594840194600190910190840162000968565b5085821015620009a85787850151600019600388901b60f8161c191681555b5050505050600190811b01905550565b7f4e487b7100000000000000000000000000000000000000000000000000000000600052601160045260246000fd5b80820180821115620009fd57620009fd620009b8565b92915050565b7f4e487b7100000000000000000000000000000000000000000000000000000000600052603260045260246000fd5b6000815180845260005b8181101562000a5a5760208185018101518683018201520162000a3c565b506000602082860101526020601f19601f83011685010191505092915050565b6001600160a01b03868116825285166020820152604081018490526060810183905260a06080820181905260009062000ab69083018462000a32565b979650505050505050565b60006020828403121562000ad457600080fd5b81517fffffffff000000000000000000000000000000000000000000000000000000008116811462000b0557600080fd5b9392505050565b600060033d111562000b265760046000803e5060005160e01c5b90565b601f8201601f191681016001600160401b038111828210171562000b515762000b5162000819565b6040525050565b600060443d101562000b675790565b6040516003193d81016004833e81513d6001600160401b03808311602484018310171562000b9757505050505090565b828501915081518181111562000bb05750505050505090565b843d870101602082850101111562000bcb5750505050505090565b62000bdc6020828601018762000b29565b509095945050505050565b60208152600062000b05602083018462000a32565b60006001820162000c115762000c11620009b8565b5060010190565b6137ab8062000c286000396000f3fe60806040526004361061018a5760003560e01c8063715018a6116100d6578063d85d3d271161007f578063f2fde38b11610059578063f2fde38b14610462578063f5298aca14610482578063fae8501e146104a257600080fd5b8063d85d3d27146103e6578063e985e9c5146103f9578063f242432a1461044257600080fd5b8063a22cb465116100b0578063a22cb46514610368578063bd85b03914610388578063d0ffc7e1146103b557600080fd5b8063715018a614610318578063846eb7d01461032d5780638da5cb5b1461034057600080fd5b80633ccfd60b11610138578063551627791161011257806355162779146102cb5780636b20c454146102e55780636e1955f41461030557600080fd5b80633ccfd60b146102675780634e1273f41461026f5780634f558e791461029c57600080fd5b80630e89341c116101695780630e89341c146102075780632afcd685146102345780632eb2c2d61461024757600080fd5b8062fdd58e1461018f57806301ffc9a7146101c25780630c84c131146101f2575b600080fd5b34801561019b57600080fd5b506101af6101aa366004612ab8565b6104aa565b6040519081526020015b60405180910390f35b3480156101ce57600080fd5b506101e26101dd366004612b10565b610556565b60405190151581526020016101b9565b610205610200366004612b34565b610639565b005b34801561021357600080fd5b50610227610222366004612bb4565b6106c2565b6040516101b99190612c1d565b610205610242366004612c30565b61095a565b34801561025357600080fd5b50610205610262366004612dc0565b610986565b6102056109d9565b34801561027b57600080fd5b5061028f61028a366004612e6a565b610a11565b6040516101b99190612f70565b3480156102a857600080fd5b506101e26102b7366004612bb4565b600090815260046020526040902054151590565b3480156102d757600080fd5b506007546101e29060ff1681565b3480156102f157600080fd5b50610205610300366004612f83565b610b4f565b610205610313366004612ff7565b610bed565b34801561032457600080fd5b50610205610d6b565b61020561033b366004613034565b610d7f565b34801561034c57600080fd5b506003546040516001600160a01b0390911681526020016101b9565b34801561037457600080fd5b50610205610383366004613056565b610f86565b34801561039457600080fd5b506101af6103a3366004612bb4565b60009081526004602052604090205490565b3480156103c157600080fd5b506103d56103d0366004612bb4565b610f95565b6040516101b9959493929190613092565b6102056103f43660046130d1565b611069565b34801561040557600080fd5b506101e261041436600461310e565b6001600160a01b03918216600090815260016020908152604080832093909416825291909152205460ff1690565b34801561044e57600080fd5b5061020561045d366004613141565b6113fc565b34801561046e57600080fd5b5061020561047d366004612c30565b6116b7565b34801561048e57600080fd5b5061020561049d3660046131a6565b611744565b6102056117dd565b60006001600160a01b03831661052d5760405162461bcd60e51b815260206004820152602a60248201527f455243313135353a2061646472657373207a65726f206973206e6f742061207660448201527f616c6964206f776e65720000000000000000000000000000000000000000000060648201526084015b60405180910390fd5b506000818152602081815260408083206001600160a01b03861684529091529020545b92915050565b60007fffffffff0000000000000000000000000000000000000000000000000000000082167fd9b67a260000000000000000000000000000000000000000000000000000000014806105e957507fffffffff0000000000000000000000000000000000000000000000000000000082167f0e89341c00000000000000000000000000000000000000000000000000000000145b8061055057507f01ffc9a7000000000000000000000000000000000000000000000000000000007fffffffff00000000000000000000000000000000000000000000000000000000831614610550565b6106416117f9565b6106bc3360058681548110610658576106586131d9565b906000526020600020906005020160000160009054906101000a90046001600160a01b031660008686868080601f01602080910402602001604051908101604052809392919081815260200183838082843760009201919091525061185392505050565b50505050565b6000818152600460205260409020546060906107465760405162461bcd60e51b815260206004820152602f60248201527f4552433732314d657461646174613a2055524920717565727920666f72206e6f60448201527f6e6578697374656e7420746f6b656e00000000000000000000000000000000006064820152608401610524565b60008261077e57506000805260046020527f17ef568e3e12ab5b9c7254a8d58478811de00f9e6eb34345acd53bf8fd09d3ec546107b6565b6107b360058481548110610794576107946131d9565b600091825260208220600590910201546001600160a01b0316906104aa565b90505b6040517f2e0a95f400000000000000000000000000000000000000000000000000000000815260048101829052600090819073__BravoLibrary__________________________90632e0a95f490602401600060405180830381865af4158015610824573d6000803e3d6000fd5b505050506040513d6000823e601f3d908101601f1916820160405261084c9190810190613257565b9150915073__BravoLibrary__________________________635f90f7488661089860058981548110610881576108816131d9565b906000526020600020906005020160030154611a37565b6108c560058a815481106108ae576108ae6131d9565b906000526020600020906005020160040154611a37565b60058a815481106108d8576108d86131d9565b906000526020600020906005020160010187876040518763ffffffff1660e01b815260040161090c96959493929190613304565b600060405180830381865af4158015610929573d6000803e3d6000fd5b505050506040513d6000823e601f3d908101601f1916820160405261095191908101906133e3565b95945050505050565b6109626117f9565b6001600160a01b03166000908152600660205260409020805460ff19166001179055565b60405162461bcd60e51b815260206004820152601760248201527f4261746368207472616e736665722064697361626c65640000000000000000006044820152600190606401610524565b505050505050565b6109e16117f9565b6040513390303180156108fc02916000818181858888f19350505050158015610a0e573d6000803e3d6000fd5b50565b60608151835114610a8a5760405162461bcd60e51b815260206004820152602960248201527f455243313135353a206163636f756e747320616e6420696473206c656e67746860448201527f206d69736d6174636800000000000000000000000000000000000000000000006064820152608401610524565b6000835167ffffffffffffffff811115610aa657610aa6612c4b565b604051908082528060200260200182016040528015610acf578160200160208202803683370190505b50905060005b8451811015610b4757610b1a858281518110610af357610af36131d9565b6020026020010151858381518110610b0d57610b0d6131d9565b60200260200101516104aa565b828281518110610b2c57610b2c6131d9565b6020908102919091010152610b4081613447565b9050610ad5565b509392505050565b6001600160a01b038316331480610b6b5750610b6b8333610414565b610bdd5760405162461bcd60e51b815260206004820152602e60248201527f455243313135353a2063616c6c6572206973206e6f7420746f6b656e206f776e60448201527f6572206f7220617070726f7665640000000000000000000000000000000000006064820152608401610524565b610be8838383611d7b565b505050565b336001600160a01b031660058381548110610c0a57610c0a6131d9565b60009182526020909120600590910201546001600160a01b031614610c975760405162461bcd60e51b815260206004820152602760248201527f596f7520617265206e6f7420746865206f776e6572206f66207468697320427260448201527f61766f204e4654000000000000000000000000000000000000000000000000006064820152608401610524565b601481511115610ce95760405162461bcd60e51b815260206004820152601260248201527f436f6465206e616d6520746f6f206c6f6e6700000000000000000000000000006044820152606401610524565b6000815111610d3a5760405162461bcd60e51b815260206004820152601360248201527f436f6465206e616d6520746f6f2073686f7274000000000000000000000000006044820152606401610524565b8060058381548110610d4e57610d4e6131d9565b90600052602060002090600502016001019081610be891906134a7565b610d736117f9565b610d7d6000612018565b565b60075460ff161515600114610dd65760405162461bcd60e51b815260206004820152601860248201527f666972696e67202441494d302069732064697361626c656400000000000000006044820152606401610524565b80610de23360006104aa565b1015610e305760405162461bcd60e51b815260206004820152601b60248201527f596f7520646f6e2774206861766520656e6f756768202441494d3000000000006044820152606401610524565b336001600160a01b031660058381548110610e4d57610e4d6131d9565b60009182526020909120600590910201546001600160a01b031614610eda5760405162461bcd60e51b815260206004820152602760248201527f596f7520617265206e6f7420746865206f776e6572206f66207468697320427260448201527f61766f204e4654000000000000000000000000000000000000000000000000006064820152608401610524565b610ee633600083612082565b8060058381548110610efa57610efa6131d9565b90600052602060002090600502016002016000828254610f1a9190613567565b9250508190555068056bc75e2d6310000060058381548110610f3e57610f3e6131d9565b906000526020600020906005020160020154610f5a919061357a565b60058381548110610f6d57610f6d6131d9565b9060005260206000209060050201600301819055505050565b610f9133838361224a565b5050565b60058181548110610fa557600080fd5b6000918252602090912060059091020180546001820180546001600160a01b03909216935090610fd4906132b1565b80601f0160208091040260200160405190810160405280929190818152602001828054611000906132b1565b801561104d5780601f106110225761010080835404028352916020019161104d565b820191906000526020600020905b81548152906001019060200180831161103057829003601f168201915b5050505050908060020154908060030154908060040154905085565b3360009081526006602052604090205460ff1615156001146110f35760405162461bcd60e51b815260206004820152602260248201527f596f7520617265206e6f74206f6e20427261766f204e4654206d696e74206c6960448201527f73740000000000000000000000000000000000000000000000000000000000006064820152608401610524565b6014815111156111455760405162461bcd60e51b815260206004820152601260248201527f436f6465206e616d6520746f6f206c6f6e6700000000000000000000000000006044820152606401610524565b60008151116111965760405162461bcd60e51b815260206004820152601360248201527f436f6465206e616d6520746f6f2073686f7274000000000000000000000000006044820152606401610524565b600554606481111561120f5760405162461bcd60e51b8152602060048201526024808201527f4d617820737570706c79206f662031303020427261766f204e4654732072656160448201527f63686564000000000000000000000000000000000000000000000000000000006064820152608401610524565b6040805160a0810182523381526020810184905260008183018190526060820181905291517f282946400000000000000000000000000000000000000000000000000000000081526103e860048201526024810184905260226044820152608082019073__BravoLibrary__________________________90632829464090606401602060405180830381865af41580156112ae573d6000803e3d6000fd5b505050506040513d601f19601f820116820180604052508101906112d291906135b5565b6112dd90606f613567565b9052600580546001810182556000829052825191027f036b6384b5eca791c62761152d0c79bb0604c104a5fb6f4eb0703f3154bb3db0810180546001600160a01b039093167fffffffffffffffffffffffff0000000000000000000000000000000000000000909316929092178255602083015192935083927f036b6384b5eca791c62761152d0c79bb0604c104a5fb6f4eb0703f3154bb3db19091019061138590826134a7565b5060408281015160028301556060830151600383015560809092015160049091015533600081815260066020908152838220805460ff19169055835190810190935282526113d791849060019061233e565b610be833600068056bc75e2d631000006040518060200160405280600081525061233e565b6001600160a01b03851633148061141857506114188533610414565b61148a5760405162461bcd60e51b815260206004820152602e60248201527f455243313135353a2063616c6c6572206973206e6f7420746f6b656e206f776e60448201527f6572206f7220617070726f7665640000000000000000000000000000000000006064820152608401610524565b600083116115005760405162461bcd60e51b815260206004820152602260248201527f455243313135353a202441494d30206973206e6f74207472616e73666572616260448201527f6c650000000000000000000000000000000000000000000000000000000000006064820152608401610524565b816001146115765760405162461bcd60e51b815260206004820152602c60248201527f455243313135353a204f6e6c79203120427261766f204e46542063616e20626560448201527f207472616e7366657272656400000000000000000000000000000000000000006064820152608401610524565b6040805160028082526060820183526000926020830190803683370190505090506000816000815181106115ac576115ac6131d9565b60200260200101818152505083816001815181106115cc576115cc6131d9565b6020908102919091010152604080516002808252606082019092526000918160200160208202803683370190505090506116078760006104aa565b8160008151811061161a5761161a6131d9565b60200260200101818152505060018160018151811061163b5761163b6131d9565b6020026020010181815250506116548787848487611ad7565b8560058681548110611668576116686131d9565b6000918252602090912060059091020180547fffffffffffffffffffffffff0000000000000000000000000000000000000000166001600160a01b039290921691909117905550505050505050565b6116bf6117f9565b6001600160a01b03811661173b5760405162461bcd60e51b815260206004820152602660248201527f4f776e61626c653a206e6577206f776e657220697320746865207a65726f206160448201527f64647265737300000000000000000000000000000000000000000000000000006064820152608401610524565b610a0e81612018565b6001600160a01b03831633148061176057506117608333610414565b6117d25760405162461bcd60e51b815260206004820152602e60248201527f455243313135353a2063616c6c6572206973206e6f7420746f6b656e206f776e60448201527f6572206f7220617070726f7665640000000000000000000000000000000000006064820152608401610524565b610be8838383612082565b6117e56117f9565b6007805460ff19811660ff90911615179055565b6003546001600160a01b03163314610d7d5760405162461bcd60e51b815260206004820181905260248201527f4f776e61626c653a2063616c6c6572206973206e6f7420746865206f776e65726044820152606401610524565b6001600160a01b0384166118cf5760405162461bcd60e51b815260206004820152602560248201527f455243313135353a207472616e7366657220746f20746865207a65726f20616460448201527f64726573730000000000000000000000000000000000000000000000000000006064820152608401610524565b3360006118db85612474565b905060006118e885612474565b90506118f88389898585896124bf565b6000868152602081815260408083206001600160a01b038c1684529091529020548581101561198f5760405162461bcd60e51b815260206004820152602a60248201527f455243313135353a20696e73756666696369656e742062616c616e636520666f60448201527f72207472616e73666572000000000000000000000000000000000000000000006064820152608401610524565b6000878152602081815260408083206001600160a01b038d8116855292528083208985039055908a168252812080548892906119cc908490613567565b909155505060408051888152602081018890526001600160a01b03808b16928c821692918816917fc3d58168c5ae7397731d063d5bbf3d657854427343f4c083240f7aacaa2d0f62910160405180910390a4611a2c848a8a8a8a8a6124cd565b505050505050505050565b60606000611a44836126d1565b600101905060008167ffffffffffffffff811115611a6457611a64612c4b565b6040519080825280601f01601f191660200182016040528015611a8e576020820181803683370190505b5090508181016020015b600019017f3031323334353637383961626364656600000000000000000000000000000000600a86061a8153600a8504945084611a9857509392505050565b8151835114611b4e5760405162461bcd60e51b815260206004820152602860248201527f455243313135353a2069647320616e6420616d6f756e7473206c656e6774682060448201527f6d69736d617463680000000000000000000000000000000000000000000000006064820152608401610524565b6001600160a01b038416611bca5760405162461bcd60e51b815260206004820152602560248201527f455243313135353a207472616e7366657220746f20746865207a65726f20616460448201527f64726573730000000000000000000000000000000000000000000000000000006064820152608401610524565b33611bd98187878787876124bf565b60005b8451811015611d15576000858281518110611bf957611bf96131d9565b602002602001015190506000858381518110611c1757611c176131d9565b602090810291909101810151600084815280835260408082206001600160a01b038e168352909352919091205490915081811015611cbd5760405162461bcd60e51b815260206004820152602a60248201527f455243313135353a20696e73756666696369656e742062616c616e636520666f60448201527f72207472616e73666572000000000000000000000000000000000000000000006064820152608401610524565b6000838152602081815260408083206001600160a01b038e8116855292528083208585039055908b16825281208054849290611cfa908490613567565b9250508190555050505080611d0e90613447565b9050611bdc565b50846001600160a01b0316866001600160a01b0316826001600160a01b03167f4a39dc06d4c0dbc64b70af90fd698a233a518aa5d07e595d983b8c0526c8f7fb8787604051611d659291906135ce565b60405180910390a46109d18187878787876127b3565b6001600160a01b038316611df75760405162461bcd60e51b815260206004820152602360248201527f455243313135353a206275726e2066726f6d20746865207a65726f206164647260448201527f65737300000000000000000000000000000000000000000000000000000000006064820152608401610524565b8051825114611e6e5760405162461bcd60e51b815260206004820152602860248201527f455243313135353a2069647320616e6420616d6f756e7473206c656e6774682060448201527f6d69736d617463680000000000000000000000000000000000000000000000006064820152608401610524565b6000339050611e91818560008686604051806020016040528060008152506124bf565b60005b8351811015611fab576000848281518110611eb157611eb16131d9565b602002602001015190506000848381518110611ecf57611ecf6131d9565b602090810291909101810151600084815280835260408082206001600160a01b038c168352909352919091205490915081811015611f745760405162461bcd60e51b8152602060048201526024808201527f455243313135353a206275726e20616d6f756e7420657863656564732062616c60448201527f616e6365000000000000000000000000000000000000000000000000000000006064820152608401610524565b6000928352602083815260408085206001600160a01b038b1686529091529092209103905580611fa381613447565b915050611e94565b5060006001600160a01b0316846001600160a01b0316826001600160a01b03167f4a39dc06d4c0dbc64b70af90fd698a233a518aa5d07e595d983b8c0526c8f7fb8686604051611ffc9291906135ce565b60405180910390a46040805160208101909152600090526106bc565b600380546001600160a01b038381167fffffffffffffffffffffffff0000000000000000000000000000000000000000831681179093556040519116919082907f8be0079c531659141344cd1fd0a4f28419497f9722a3daafe3b4186f6b6457e090600090a35050565b6001600160a01b0383166120fe5760405162461bcd60e51b815260206004820152602360248201527f455243313135353a206275726e2066726f6d20746865207a65726f206164647260448201527f65737300000000000000000000000000000000000000000000000000000000006064820152608401610524565b33600061210a84612474565b9050600061211784612474565b9050612137838760008585604051806020016040528060008152506124bf565b6000858152602081815260408083206001600160a01b038a168452909152902054848110156121cd5760405162461bcd60e51b8152602060048201526024808201527f455243313135353a206275726e20616d6f756e7420657863656564732062616c60448201527f616e6365000000000000000000000000000000000000000000000000000000006064820152608401610524565b6000868152602081815260408083206001600160a01b038b81168086529184528285208a8703905582518b81529384018a90529092908816917fc3d58168c5ae7397731d063d5bbf3d657854427343f4c083240f7aacaa2d0f62910160405180910390a46040805160208101909152600090525b50505050505050565b816001600160a01b0316836001600160a01b0316036122d15760405162461bcd60e51b815260206004820152602960248201527f455243313135353a2073657474696e6720617070726f76616c2073746174757360448201527f20666f722073656c6600000000000000000000000000000000000000000000006064820152608401610524565b6001600160a01b03838116600081815260016020908152604080832094871680845294825291829020805460ff191686151590811790915591519182527f17307eab39ab6107e8899845ad3d59bd9653f200f220920489ca2b5937696c31910160405180910390a3505050565b6001600160a01b0384166123ba5760405162461bcd60e51b815260206004820152602160248201527f455243313135353a206d696e7420746f20746865207a65726f2061646472657360448201527f73000000000000000000000000000000000000000000000000000000000000006064820152608401610524565b3360006123c685612474565b905060006123d385612474565b90506123e4836000898585896124bf565b6000868152602081815260408083206001600160a01b038b16845290915281208054879290612414908490613567565b909155505060408051878152602081018790526001600160a01b03808a1692600092918716917fc3d58168c5ae7397731d063d5bbf3d657854427343f4c083240f7aacaa2d0f62910160405180910390a4612241836000898989896124cd565b604080516001808252818301909252606091600091906020808301908036833701905050905082816000815181106124ae576124ae6131d9565b602090810291909101015292915050565b6109d186868686868661290e565b6001600160a01b0384163b156109d1576040517ff23a6e610000000000000000000000000000000000000000000000000000000081526001600160a01b0385169063f23a6e619061252a90899089908890889088906004016135f3565b6020604051808303816000875af1925050508015612565575060408051601f3d908101601f1916820190925261256291810190613636565b60015b61261a57612571613653565b806308c379a0036125aa575061258561366f565b8061259057506125ac565b8060405162461bcd60e51b81526004016105249190612c1d565b505b60405162461bcd60e51b815260206004820152603460248201527f455243313135353a207472616e7366657220746f206e6f6e2d4552433131353560448201527f526563656976657220696d706c656d656e7465720000000000000000000000006064820152608401610524565b7fffffffff0000000000000000000000000000000000000000000000000000000081167ff23a6e6100000000000000000000000000000000000000000000000000000000146122415760405162461bcd60e51b815260206004820152602860248201527f455243313135353a204552433131353552656365697665722072656a6563746560448201527f6420746f6b656e730000000000000000000000000000000000000000000000006064820152608401610524565b6000807a184f03e93ff9f4daa797ed6e38ed64bf6a1f010000000000000000831061271a577a184f03e93ff9f4daa797ed6e38ed64bf6a1f010000000000000000830492506040015b6d04ee2d6d415b85acef81000000008310612746576d04ee2d6d415b85acef8100000000830492506020015b662386f26fc10000831061276457662386f26fc10000830492506010015b6305f5e100831061277c576305f5e100830492506008015b612710831061279057612710830492506004015b606483106127a2576064830492506002015b600a83106105505760010192915050565b6001600160a01b0384163b156109d1576040517fbc197c810000000000000000000000000000000000000000000000000000000081526001600160a01b0385169063bc197c81906128109089908990889088908890600401613717565b6020604051808303816000875af192505050801561284b575060408051601f3d908101601f1916820190925261284891810190613636565b60015b61285757612571613653565b7fffffffff0000000000000000000000000000000000000000000000000000000081167fbc197c8100000000000000000000000000000000000000000000000000000000146122415760405162461bcd60e51b815260206004820152602860248201527f455243313135353a204552433131353552656365697665722072656a6563746560448201527f6420746f6b656e730000000000000000000000000000000000000000000000006064820152608401610524565b6001600160a01b0385166129955760005b83518110156129935782818151811061293a5761293a6131d9565b602002602001015160046000868481518110612958576129586131d9565b60200260200101518152602001908152602001600020600082825461297d9190613567565b9091555061298c905081613447565b905061291f565b505b6001600160a01b0384166109d15760005b83518110156122415760008482815181106129c3576129c36131d9565b6020026020010151905060008483815181106129e1576129e16131d9565b6020026020010151905060006004600084815260200190815260200160002054905081811015612a795760405162461bcd60e51b815260206004820152602860248201527f455243313135353a206275726e20616d6f756e74206578636565647320746f7460448201527f616c537570706c790000000000000000000000000000000000000000000000006064820152608401610524565b60009283526004602052604090922091039055612a9581613447565b90506129a6565b80356001600160a01b0381168114612ab357600080fd5b919050565b60008060408385031215612acb57600080fd5b612ad483612a9c565b946020939093013593505050565b7fffffffff0000000000000000000000000000000000000000000000000000000081168114610a0e57600080fd5b600060208284031215612b2257600080fd5b8135612b2d81612ae2565b9392505050565b60008060008060608587031215612b4a57600080fd5b8435935060208501359250604085013567ffffffffffffffff80821115612b7057600080fd5b818701915087601f830112612b8457600080fd5b813581811115612b9357600080fd5b886020828501011115612ba557600080fd5b95989497505060200194505050565b600060208284031215612bc657600080fd5b5035919050565b60005b83811015612be8578181015183820152602001612bd0565b50506000910152565b60008151808452612c09816020860160208601612bcd565b601f01601f19169290920160200192915050565b602081526000612b2d6020830184612bf1565b600060208284031215612c4257600080fd5b612b2d82612a9c565b7f4e487b7100000000000000000000000000000000000000000000000000000000600052604160045260246000fd5b601f19601f830116810181811067ffffffffffffffff82111715612ca057612ca0612c4b565b6040525050565b600067ffffffffffffffff821115612cc157612cc1612c4b565b5060051b60200190565b600082601f830112612cdc57600080fd5b81356020612ce982612ca7565b604051612cf68282612c7a565b83815260059390931b8501820192828101915086841115612d1657600080fd5b8286015b84811015612d315780358352918301918301612d1a565b509695505050505050565b600067ffffffffffffffff821115612d5657612d56612c4b565b50601f01601f191660200190565b600082601f830112612d7557600080fd5b8135612d8081612d3c565b604051612d8d8282612c7a565b828152856020848701011115612da257600080fd5b82602086016020830137600092810160200192909252509392505050565b600080600080600060a08688031215612dd857600080fd5b612de186612a9c565b9450612def60208701612a9c565b9350604086013567ffffffffffffffff80821115612e0c57600080fd5b612e1889838a01612ccb565b94506060880135915080821115612e2e57600080fd5b612e3a89838a01612ccb565b93506080880135915080821115612e5057600080fd5b50612e5d88828901612d64565b9150509295509295909350565b60008060408385031215612e7d57600080fd5b823567ffffffffffffffff80821115612e9557600080fd5b818501915085601f830112612ea957600080fd5b81356020612eb682612ca7565b604051612ec38282612c7a565b83815260059390931b8501820192828101915089841115612ee357600080fd5b948201945b83861015612f0857612ef986612a9c565b82529482019490820190612ee8565b96505086013592505080821115612f1e57600080fd5b50612f2b85828601612ccb565b9150509250929050565b600081518084526020808501945080840160005b83811015612f6557815187529582019590820190600101612f49565b509495945050505050565b602081526000612b2d6020830184612f35565b600080600060608486031215612f9857600080fd5b612fa184612a9c565b9250602084013567ffffffffffffffff80821115612fbe57600080fd5b612fca87838801612ccb565b93506040860135915080821115612fe057600080fd5b50612fed86828701612ccb565b9150509250925092565b6000806040838503121561300a57600080fd5b82359150602083013567ffffffffffffffff81111561302857600080fd5b612f2b85828601612d64565b6000806040838503121561304757600080fd5b50508035926020909101359150565b6000806040838503121561306957600080fd5b61307283612a9c565b91506020830135801515811461308757600080fd5b809150509250929050565b6001600160a01b038616815260a0602082015260006130b460a0830187612bf1565b604083019590955250606081019290925260809091015292915050565b6000602082840312156130e357600080fd5b813567ffffffffffffffff8111156130fa57600080fd5b61310684828501612d64565b949350505050565b6000806040838503121561312157600080fd5b61312a83612a9c565b915061313860208401612a9c565b90509250929050565b600080600080600060a0868803121561315957600080fd5b61316286612a9c565b945061317060208701612a9c565b93506040860135925060608601359150608086013567ffffffffffffffff81111561319a57600080fd5b612e5d88828901612d64565b6000806000606084860312156131bb57600080fd5b6131c484612a9c565b95602085013595506040909401359392505050565b7f4e487b7100000000000000000000000000000000000000000000000000000000600052603260045260246000fd5b600082601f83011261321957600080fd5b815161322481612d3c565b6040516132318282612c7a565b82815285602084870101111561324657600080fd5b610951836020830160208801612bcd565b6000806040838503121561326a57600080fd5b825167ffffffffffffffff8082111561328257600080fd5b61328e86838701613208565b935060208501519150808211156132a457600080fd5b50612f2b85828601613208565b600181811c908216806132c557607f821691505b6020821081036132fe577f4e487b7100000000000000000000000000000000000000000000000000000000600052602260045260246000fd5b50919050565b8681526000602060c08184015261331e60c0840189612bf1565b83810360408501526133308189612bf1565b9050838103606085015260008754613347816132b1565b80845260018281168015613362576001811461337c576133aa565b60ff198416878701528683151560051b87010194506133aa565b8b6000528660002060005b848110156133a25781548882018a0152908301908801613387565b870188019550505b5050505084810360808601526133c08188612bf1565b9250505082810360a08401526133d68185612bf1565b9998505050505050505050565b6000602082840312156133f557600080fd5b815167ffffffffffffffff81111561340c57600080fd5b61310684828501613208565b7f4e487b7100000000000000000000000000000000000000000000000000000000600052601160045260246000fd5b6000600019820361345a5761345a613418565b5060010190565b601f821115610be857600081815260208120601f850160051c810160208610156134885750805b601f850160051c820191505b818110156109d157828155600101613494565b815167ffffffffffffffff8111156134c1576134c1612c4b565b6134d5816134cf84546132b1565b84613461565b602080601f83116001811461350a57600084156134f25750858301515b600019600386901b1c1916600185901b1785556109d1565b600085815260208120601f198616915b828110156135395788860151825594840194600190910190840161351a565b50858210156135575787850151600019600388901b60f8161c191681555b5050505050600190811b01905550565b8082018082111561055057610550613418565b6000826135b0577f4e487b7100000000000000000000000000000000000000000000000000000000600052601260045260246000fd5b500490565b6000602082840312156135c757600080fd5b5051919050565b6040815260006135e16040830185612f35565b82810360208401526109518185612f35565b60006001600160a01b03808816835280871660208401525084604083015283606083015260a0608083015261362b60a0830184612bf1565b979650505050505050565b60006020828403121561364857600080fd5b8151612b2d81612ae2565b600060033d111561366c5760046000803e5060005160e01c5b90565b600060443d101561367d5790565b6040517ffffffffffffffffffffffffffffffffffffffffffffffffffffffffffffffffc803d016004833e81513d67ffffffffffffffff81602484011181841117156136cb57505050505090565b82850191508151818111156136e35750505050505090565b843d87010160208285010111156136fd5750505050505090565b61370c60208286010187612c7a565b509095945050505050565b60006001600160a01b03808816835280871660208401525060a0604083015261374360a0830186612f35565b82810360608401526137558186612f35565b905082810360808401526137698185612bf1565b9897505050505050505056fea26469706673582212209e32b250a4c4362890c37d703fd864d30e42b0499e35d0eba900b1ffcc32e48564736f6c63430008130033",
  "immutableReferences": {},
  "source": "// SPDX-License-Identifier: MIT\npragma solidity ^0.8.19;\n//...............................................................................................................\n//..ZZZZZZZZZ...EEEEEEEEE...RRRRR..........OOOOOO..............AAA.......RRRRR........MMM.....MMM...YY......YY...\n//.ZZZZZZZZZZZ.EEEEEEEEEEE.RRRRRRRRRR.....OOOOOOOOO...........AAAAA.....RRRRRRRRRR...MMMMM...MMMMM.YYYYY...YYYY..\n//.ZZZZZZZZZZZ.EEEEEEEEEEE.RRRRRRRRRRR...OOOOOOOOOO...........AAAAA.....RRRRRRRRRRR..MMMMM...MMMMM.YYYYY..YYYYY..\n//.ZZZZZZZZZZZ.EEEEEEEEEEE.RRRRRRRRRRR..OOOOOOOOOOOO.........AAAAAAA....RRRRRRRRRRR..MMMMMM..MMMMM..YYYY..YYYY...\n//......ZZZZZZ.EEEE........RRRR...RRRRR.OOOO....OOOO.........AAAAAAA....RRRR...RRRRR.MMMMMM.MMMMMM..YYYYYYYYYY...\n//.....ZZZZZZ..EEEEEEEEEE..RRRR...RRRRR.OOOO....OOOOO........AAAAAAA....RRRR...RRRRR.MMMMMM.MMMMMM...YYYYYYYY....\n//.....ZZZZZ...EEEEEEEEEE..RRRRRRRRRRR.OOOO......OOOO.......AAAAAAAAA...RRRRRRRRRRR..MMMMMM.MMMMMM...YYYYYYYY....\n//....ZZZZZ....EEEEEEEEEE..RRRRRRRRRRR.OOOO......OOOO.......AAAA.AAAA...RRRRRRRRRRR..MMMMMM.MMMMMM....YYYYYY.....\n//...ZZZZZ.....EEEEEEEEEE..RRRRRRRRRRR.OOOO......OOOO.......AAAAAAAAAA..RRRRRRRRRRR..MMMMMMMMMMMMM.....YYYYY.....\n//..ZZZZZ......EEEE........RRRR..RRRRR..OOOO....OOOOO......AAAAAAAAAAA..RRRR..RRRRR..MMM.MMMMMMMMM.....YYYY......\n//.ZZZZZZ......EEEE........RRRR...RRRR..OOOO....OOOO.......AAAAAAAAAAA..RRRR...RRRR..MMM.MMMMM.MMM.....YYYY......\n//.ZZZZZZZZZZZ.EEEEEEEEEEE.RRRR...RRRR..OOOOOOOOOOOO.......AAAAAAAAAAAA.RRRR...RRRR..MMM.MMMMM.MMM.....YYYY......\n//.ZZZZZZZZZZZ.EEEEEEEEEEE.RRRR...RRRR...OOOOOOOOOO....... AAAA....AAAA.RRRR...RRRR..MMM.MMMMM.MMM.....YYYY......\n//.ZZZZZZZZZZZ.EEEEEEEEEEE.RRRR...RRRRR...OOOOOOOOO....... AAA.....AAAA.RRRR...RRRRR.MMM.MMMMM.MMM.....YYYY......\n//.........................................OOOOOO................................................................\n//...............................................................................................................\n/// @author Simon G.Ionashku - find me on github: simon-masterclass\n// This Bravo Company NFT collection is designed to incentives the first 100 volunteers/employees\n// to enlist and claim their NFTs with $AIM0 rewards built in. Additional $AIM0 payments for work also possible.\n// This ERC-1155 contract is designed to contain both fungible and non-fungible tokens in a novel way\n// Each NFT contains fungible tokens $AIM0 and these fungible $AIM0 tokens are soulbound to the NFT\n// Every time a Bravo Company Commander Zero (AKA: C0) burns thier $AIM0 by using the\n// fire$AIM0 function they earn Mission Coins (to be minted seperately using the records in this contract)\n// in addition, every time a Bravo Company C0 burns 100 rounds of $AIM0 (ideally within the MetaSERVE), their NFT ranks up.\n// The attributes that these NFTs contain will be useful with the Zero Army's MetaSERVE\n\nimport \"@openzeppelin/contracts/token/ERC1155/ERC1155.sol\";\nimport \"@openzeppelin/contracts/token/ERC1155/extensions/ERC1155Burnable.sol\";\nimport \"@openzeppelin/contracts/access/Ownable.sol\";\nimport \"@openzeppelin/contracts/token/ERC1155/extensions/ERC1155Supply.sol\";\nimport \"@openzeppelin/contracts/utils/Strings.sol\";\nimport {BravoLibrary} from \"./BravoLibrary.sol\";\n\ncontract OnchainBravoNFTs is ERC1155, ERC1155Burnable, Ownable, ERC1155Supply {\n    using Strings for uint256;\n    using BravoLibrary for uint256;\n\n    //$AIM0 (fungible) token variables\n    //NOTE: max supply of $AIM0 (fungible) tokens for this Bravo Company collection is 1 million\n    //decimals = 10 ** 18 for $AIM0 & Mission Coins (fungible) tokens\n    uint256 private constant $AIM0 = 0; //token ID for $AIM0 (fungible) token\n\n    //Bravo Company NFT variables & attrtibutes\n    //NOTE: max supply of NFTs for this Bravo Company collection is 100\n    struct BravoNFT {\n        address bravOwner;\n        string codeName;\n        uint256 missionCoinsEarned;\n        uint256 rank;\n        uint256 bravoBoost;\n    }\n\n    BravoNFT[] public bravoNFT$;\n\n    //enlistment whitelist\n    mapping(address => bool) private bravoAddressTF;\n\n    //enable burning of $AIM0 tokens for mission coins\n    bool public fire$AIM0TF = false;\n\n    constructor() ERC1155(\"\") {\n        //mint 1 million rounds of $AIM0 minus 10000 to be minted by recruits later (for gas efficiency)\n        uint256 mintAIM0 = ((10 ** 6) * (10 ** 18)) - (10000 * (10 ** 18));\n        _mint(owner(), $AIM0, mintAIM0, \"\");\n\n        //first BravoNFT is the unburned $AIM0 supply\n        BravoNFT memory newBravoNFT = BravoNFT({\n            bravOwner: owner(),\n            codeName: \"$AIM0: UNBURNED SUPPLY\",\n            missionCoinsEarned: 0,\n            rank: 0,\n            bravoBoost: 0\n        });\n\n        bravoNFT$.push(newBravoNFT);\n    }\n\n    function mint(string memory codeName) public payable {\n        require(\n            bravoAddressTF[msg.sender] == true,\n            \"You are not on Bravo NFT mint list\"\n        );\n        require(bytes(codeName).length <= 20, \"Code name too long\");\n        require(bytes(codeName).length > 0, \"Code name too short\");\n        uint256 newID = bravoNFT$.length;\n        require(newID <= 100, \"Max supply of 100 Bravo NFTs reached\");\n\n        //Bravo NFT variables - add new Bravo NFT to the collection\n        BravoNFT memory newBravoNFT = BravoNFT({\n            bravOwner: msg.sender,\n            codeName: codeName,\n            missionCoinsEarned: 0,\n            rank: 0,\n            bravoBoost: 111 + BravoLibrary.randomNum(1000, newID, 34)\n        });\n\n        bravoNFT$.push(newBravoNFT);\n\n        bravoAddressTF[msg.sender] = false;\n\n        //mint new NFT for Bravo company recruit with code name\n        _mint(msg.sender, newID, 1, \"\");\n\n        //mint 100 rounds of $AIM0 to the new recruit as enlistment bonus\n        _mint(msg.sender, $AIM0, 100 * (10 ** 18), \"\");\n    }\n\n    function changeBravoCodeName(\n        uint256 tokenId,\n        string memory _newCodeName\n    ) public payable {\n        require(\n            bravoNFT$[tokenId].bravOwner == msg.sender,\n            \"You are not the owner of this Bravo NFT\"\n        );\n        require(bytes(_newCodeName).length <= 20, \"Code name too long\");\n        require(bytes(_newCodeName).length > 0, \"Code name too short\");\n\n        bravoNFT$[tokenId].codeName = _newCodeName;\n    }\n\n    function uri(uint256 tokenId) public view override returns (string memory) {\n        require(\n            exists(tokenId),\n            \"ERC721Metadata: URI query for nonexistent token\"\n        );\n\n        //calculate balance\n        uint balance = 0;\n        if (tokenId == $AIM0) {\n            balance = totalSupply($AIM0);\n        } else {\n            balance = balanceOf(bravoNFT$[tokenId].bravOwner, $AIM0);\n        }\n\n        (string memory returnBalance, string memory unitName) = BravoLibrary\n            .calculateUnits(balance);\n\n        return\n            BravoLibrary.renderMetadata(\n                tokenId,\n                bravoNFT$[tokenId].rank.toString(),\n                bravoNFT$[tokenId].bravoBoost.toString(),\n                bravoNFT$[tokenId].codeName,\n                returnBalance,\n                unitName\n            );\n    }\n\n    function enlistBravo(address bravoAddress) public payable onlyOwner {\n        bravoAddressTF[bravoAddress] = true;\n    }\n\n    function payBravo(\n        uint256 tokenId,\n        uint256 amount,\n        bytes calldata data\n    ) public payable onlyOwner {\n        //pay Bravo NFT owner $AIM0\n        _safeTransferFrom(\n            msg.sender,\n            bravoNFT$[tokenId].bravOwner,\n            $AIM0,\n            amount,\n            data\n        );\n    }\n\n    function toggle$AIM0firing() public payable onlyOwner {\n        fire$AIM0TF = !fire$AIM0TF;\n    }\n\n    function fire$AIM0(uint256 tokenId, uint256 amount) public payable {\n        require(fire$AIM0TF == true, \"firing $AIM0 is disabled\");\n        require(\n            balanceOf(msg.sender, $AIM0) >= amount,\n            \"You don't have enough $AIM0\"\n        );\n        require(\n            bravoNFT$[tokenId].bravOwner == msg.sender,\n            \"You are not the owner of this Bravo NFT\"\n        );\n\n        _burn(msg.sender, $AIM0, amount);\n        // Mission coins earned after burning - to be minted later when system is fully operational\n        bravoNFT$[tokenId].missionCoinsEarned += amount;\n        //rank up after burning 100 $AIM0\n        bravoNFT$[tokenId].rank = uint256(\n            bravoNFT$[tokenId].missionCoinsEarned / (100 * (10 ** 18))\n        );\n    }\n\n    function safeTransferFrom(\n        address from,\n        address to,\n        uint256 id,\n        uint256 amount,\n        bytes memory data\n    ) public override {\n        require(\n            from == _msgSender() || isApprovedForAll(from, _msgSender()),\n            \"ERC1155: caller is not token owner or approved\"\n        );\n        require(id > 0, \"ERC1155: $AIM0 is not transferable\");\n        require(amount == 1, \"ERC1155: Only 1 Bravo NFT can be transferred\");\n\n        //transfer Bravo NFT along with all $AIM0 to new owner\n        uint256[] memory ids = new uint256[](2);\n        ids[0] = $AIM0;\n        ids[1] = id;\n\n        uint256[] memory amounts = new uint256[](2);\n        amounts[0] = balanceOf(from, $AIM0);\n        amounts[1] = 1;\n\n        _safeBatchTransferFrom(from, to, ids, amounts, data);\n        bravoNFT$[id].bravOwner = to;\n    }\n\n    function safeBatchTransferFrom(\n        address from,\n        address to,\n        uint256[] memory ids,\n        uint256[] memory amounts,\n        bytes memory data\n    ) public override {\n        //disabled batch transfer for this contract\n        bool disableBatchTransfer = true;\n        require(disableBatchTransfer == false, \"Batch transfer disabled\");\n        // require(\n        //     from == _msgSender() || isApprovedForAll(from, _msgSender()),\n        //     \"ERC1155: caller is not token owner or approved\"\n        // );\n        _safeBatchTransferFrom(from, to, ids, amounts, data);\n    }\n\n    function withdraw() public payable onlyOwner {\n        payable(msg.sender).transfer(address(this).balance);\n    }\n\n    // The following functions are overrides required by Solidity.\n\n    function _beforeTokenTransfer(\n        address operator,\n        address from,\n        address to,\n        uint256[] memory ids,\n        uint256[] memory amounts,\n        bytes memory data\n    ) internal override(ERC1155, ERC1155Supply) {\n        super._beforeTokenTransfer(operator, from, to, ids, amounts, data);\n    }\n}\n",
  "sourcePath": "/Users/c0/Documents/CODE/Zero_Army/Bravo/0xTruffleBravo/contracts/OnchainBravoNFTs.sol",
  "compiler": {
    "name": "solc",
    "version": "0.8.19+commit.7dd6d404.Emscripten.clang"
  },
  "schemaVersion": "3.4.14",
  "updatedAt": "2023-07-23T21:53:55.342Z",
  "devdoc": {
    "events": {
      "ApprovalForAll(address,address,bool)": {
        "details": "Emitted when `account` grants or revokes permission to `operator` to transfer their tokens, according to `approved`."
      },
      "TransferBatch(address,address,address,uint256[],uint256[])": {
        "details": "Equivalent to multiple {TransferSingle} events, where `operator`, `from` and `to` are the same for all transfers."
      },
      "TransferSingle(address,address,address,uint256,uint256)": {
        "details": "Emitted when `value` tokens of token type `id` are transferred from `from` to `to` by `operator`."
      },
      "URI(string,uint256)": {
        "details": "Emitted when the URI for token type `id` changes to `value`, if it is a non-programmatic URI. If an {URI} event was emitted for `id`, the standard https://eips.ethereum.org/EIPS/eip-1155#metadata-extensions[guarantees] that `value` will equal the value returned by {IERC1155MetadataURI-uri}."
      }
    },
    "kind": "dev",
    "methods": {
      "balanceOf(address,uint256)": {
        "details": "See {IERC1155-balanceOf}. Requirements: - `account` cannot be the zero address."
      },
      "balanceOfBatch(address[],uint256[])": {
        "details": "See {IERC1155-balanceOfBatch}. Requirements: - `accounts` and `ids` must have the same length."
      },
      "exists(uint256)": {
        "details": "Indicates whether any token exist with a given id, or not."
      },
      "isApprovedForAll(address,address)": {
        "details": "See {IERC1155-isApprovedForAll}."
      },
      "owner()": {
        "details": "Returns the address of the current owner."
      },
      "renounceOwnership()": {
        "details": "Leaves the contract without owner. It will not be possible to call `onlyOwner` functions. Can only be called by the current owner. NOTE: Renouncing ownership will leave the contract without an owner, thereby disabling any functionality that is only available to the owner."
      },
      "safeBatchTransferFrom(address,address,uint256[],uint256[],bytes)": {
        "details": "See {IERC1155-safeBatchTransferFrom}."
      },
      "safeTransferFrom(address,address,uint256,uint256,bytes)": {
        "details": "See {IERC1155-safeTransferFrom}."
      },
      "setApprovalForAll(address,bool)": {
        "details": "See {IERC1155-setApprovalForAll}."
      },
      "supportsInterface(bytes4)": {
        "details": "See {IERC165-supportsInterface}."
      },
      "totalSupply(uint256)": {
        "details": "Total amount of tokens in with a given id."
      },
      "transferOwnership(address)": {
        "details": "Transfers ownership of the contract to a new account (`newOwner`). Can only be called by the current owner."
      }
    },
    "version": 1
  },
  "userdoc": {
    "kind": "user",
    "methods": {},
    "version": 1
  }
}