{
  "contractName": "OnchainBravoNFTs",
  "abi": [
    {
      "inputs": [],
      "stateMutability": "nonpayable",
      "type": "constructor"
    },
    {
      "anonymous": false,
      "inputs": [
        {
          "indexed": true,
          "internalType": "address",
          "name": "account",
          "type": "address"
        },
        {
          "indexed": true,
          "internalType": "address",
          "name": "operator",
          "type": "address"
        },
        {
          "indexed": false,
          "internalType": "bool",
          "name": "approved",
          "type": "bool"
        }
      ],
      "name": "ApprovalForAll",
      "type": "event"
    },
    {
      "anonymous": false,
      "inputs": [
        {
          "indexed": true,
          "internalType": "address",
          "name": "previousOwner",
          "type": "address"
        },
        {
          "indexed": true,
          "internalType": "address",
          "name": "newOwner",
          "type": "address"
        }
      ],
      "name": "OwnershipTransferred",
      "type": "event"
    },
    {
      "anonymous": false,
      "inputs": [
        {
          "indexed": true,
          "internalType": "address",
          "name": "operator",
          "type": "address"
        },
        {
          "indexed": true,
          "internalType": "address",
          "name": "from",
          "type": "address"
        },
        {
          "indexed": true,
          "internalType": "address",
          "name": "to",
          "type": "address"
        },
        {
          "indexed": false,
          "internalType": "uint256[]",
          "name": "ids",
          "type": "uint256[]"
        },
        {
          "indexed": false,
          "internalType": "uint256[]",
          "name": "values",
          "type": "uint256[]"
        }
      ],
      "name": "TransferBatch",
      "type": "event"
    },
    {
      "anonymous": false,
      "inputs": [
        {
          "indexed": true,
          "internalType": "address",
          "name": "operator",
          "type": "address"
        },
        {
          "indexed": true,
          "internalType": "address",
          "name": "from",
          "type": "address"
        },
        {
          "indexed": true,
          "internalType": "address",
          "name": "to",
          "type": "address"
        },
        {
          "indexed": false,
          "internalType": "uint256",
          "name": "id",
          "type": "uint256"
        },
        {
          "indexed": false,
          "internalType": "uint256",
          "name": "value",
          "type": "uint256"
        }
      ],
      "name": "TransferSingle",
      "type": "event"
    },
    {
      "anonymous": false,
      "inputs": [
        {
          "indexed": false,
          "internalType": "string",
          "name": "value",
          "type": "string"
        },
        {
          "indexed": true,
          "internalType": "uint256",
          "name": "id",
          "type": "uint256"
        }
      ],
      "name": "URI",
      "type": "event"
    },
    {
      "inputs": [
        {
          "internalType": "address",
          "name": "account",
          "type": "address"
        },
        {
          "internalType": "uint256",
          "name": "id",
          "type": "uint256"
        }
      ],
      "name": "balanceOf",
      "outputs": [
        {
          "internalType": "uint256",
          "name": "",
          "type": "uint256"
        }
      ],
      "stateMutability": "view",
      "type": "function",
      "constant": true
    },
    {
      "inputs": [
        {
          "internalType": "address[]",
          "name": "accounts",
          "type": "address[]"
        },
        {
          "internalType": "uint256[]",
          "name": "ids",
          "type": "uint256[]"
        }
      ],
      "name": "balanceOfBatch",
      "outputs": [
        {
          "internalType": "uint256[]",
          "name": "",
          "type": "uint256[]"
        }
      ],
      "stateMutability": "view",
      "type": "function",
      "constant": true
    },
    {
      "inputs": [
        {
          "internalType": "uint256",
          "name": "",
          "type": "uint256"
        }
      ],
      "name": "bravoNFT$",
      "outputs": [
        {
          "internalType": "address",
          "name": "bravOwner",
          "type": "address"
        },
        {
          "internalType": "string",
          "name": "codeName",
          "type": "string"
        },
        {
          "internalType": "uint256",
          "name": "missionCoinsEarned",
          "type": "uint256"
        },
        {
          "internalType": "uint256",
          "name": "rank",
          "type": "uint256"
        },
        {
          "internalType": "uint256",
          "name": "bravoBoost",
          "type": "uint256"
        }
      ],
      "stateMutability": "view",
      "type": "function",
      "constant": true
    },
    {
      "inputs": [
        {
          "internalType": "address",
          "name": "account",
          "type": "address"
        },
        {
          "internalType": "uint256",
          "name": "id",
          "type": "uint256"
        },
        {
          "internalType": "uint256",
          "name": "value",
          "type": "uint256"
        }
      ],
      "name": "burn",
      "outputs": [],
      "stateMutability": "nonpayable",
      "type": "function"
    },
    {
      "inputs": [
        {
          "internalType": "address",
          "name": "account",
          "type": "address"
        },
        {
          "internalType": "uint256[]",
          "name": "ids",
          "type": "uint256[]"
        },
        {
          "internalType": "uint256[]",
          "name": "values",
          "type": "uint256[]"
        }
      ],
      "name": "burnBatch",
      "outputs": [],
      "stateMutability": "nonpayable",
      "type": "function"
    },
    {
      "inputs": [],
      "name": "decimals",
      "outputs": [
        {
          "internalType": "uint256",
          "name": "",
          "type": "uint256"
        }
      ],
      "stateMutability": "view",
      "type": "function",
      "constant": true
    },
    {
      "inputs": [
        {
          "internalType": "uint256",
          "name": "id",
          "type": "uint256"
        }
      ],
      "name": "exists",
      "outputs": [
        {
          "internalType": "bool",
          "name": "",
          "type": "bool"
        }
      ],
      "stateMutability": "view",
      "type": "function",
      "constant": true
    },
    {
      "inputs": [],
      "name": "fire$AIM0TF",
      "outputs": [
        {
          "internalType": "bool",
          "name": "",
          "type": "bool"
        }
      ],
      "stateMutability": "view",
      "type": "function",
      "constant": true
    },
    {
      "inputs": [
        {
          "internalType": "address",
          "name": "account",
          "type": "address"
        },
        {
          "internalType": "address",
          "name": "operator",
          "type": "address"
        }
      ],
      "name": "isApprovedForAll",
      "outputs": [
        {
          "internalType": "bool",
          "name": "",
          "type": "bool"
        }
      ],
      "stateMutability": "view",
      "type": "function",
      "constant": true
    },
    {
      "inputs": [],
      "name": "maxSupply",
      "outputs": [
        {
          "internalType": "uint256",
          "name": "",
          "type": "uint256"
        }
      ],
      "stateMutability": "view",
      "type": "function",
      "constant": true
    },
    {
      "inputs": [],
      "name": "name",
      "outputs": [
        {
          "internalType": "string",
          "name": "",
          "type": "string"
        }
      ],
      "stateMutability": "view",
      "type": "function",
      "constant": true
    },
    {
      "inputs": [],
      "name": "owner",
      "outputs": [
        {
          "internalType": "address",
          "name": "",
          "type": "address"
        }
      ],
      "stateMutability": "view",
      "type": "function",
      "constant": true
    },
    {
      "inputs": [],
      "name": "renounceOwnership",
      "outputs": [],
      "stateMutability": "nonpayable",
      "type": "function"
    },
    {
      "inputs": [
        {
          "internalType": "address",
          "name": "operator",
          "type": "address"
        },
        {
          "internalType": "bool",
          "name": "approved",
          "type": "bool"
        }
      ],
      "name": "setApprovalForAll",
      "outputs": [],
      "stateMutability": "nonpayable",
      "type": "function"
    },
    {
      "inputs": [
        {
          "internalType": "bytes4",
          "name": "interfaceId",
          "type": "bytes4"
        }
      ],
      "name": "supportsInterface",
      "outputs": [
        {
          "internalType": "bool",
          "name": "",
          "type": "bool"
        }
      ],
      "stateMutability": "view",
      "type": "function",
      "constant": true
    },
    {
      "inputs": [],
      "name": "symbol",
      "outputs": [
        {
          "internalType": "string",
          "name": "",
          "type": "string"
        }
      ],
      "stateMutability": "view",
      "type": "function",
      "constant": true
    },
    {
      "inputs": [
        {
          "internalType": "uint256",
          "name": "id",
          "type": "uint256"
        }
      ],
      "name": "totalSupply",
      "outputs": [
        {
          "internalType": "uint256",
          "name": "",
          "type": "uint256"
        }
      ],
      "stateMutability": "view",
      "type": "function",
      "constant": true
    },
    {
      "inputs": [
        {
          "internalType": "address",
          "name": "newOwner",
          "type": "address"
        }
      ],
      "name": "transferOwnership",
      "outputs": [],
      "stateMutability": "nonpayable",
      "type": "function"
    },
    {
      "inputs": [
        {
          "internalType": "string",
          "name": "codeName",
          "type": "string"
        }
      ],
      "name": "mint",
      "outputs": [],
      "stateMutability": "payable",
      "type": "function",
      "payable": true
    },
    {
      "inputs": [
        {
          "internalType": "uint256",
          "name": "tokenId",
          "type": "uint256"
        },
        {
          "internalType": "string",
          "name": "_newCodeName",
          "type": "string"
        }
      ],
      "name": "changeBravoCodeName",
      "outputs": [],
      "stateMutability": "payable",
      "type": "function",
      "payable": true
    },
    {
      "inputs": [
        {
          "internalType": "uint256",
          "name": "tokenId",
          "type": "uint256"
        }
      ],
      "name": "uri",
      "outputs": [
        {
          "internalType": "string",
          "name": "",
          "type": "string"
        }
      ],
      "stateMutability": "view",
      "type": "function",
      "constant": true
    },
    {
      "inputs": [
        {
          "internalType": "address",
          "name": "bravoAddress",
          "type": "address"
        }
      ],
      "name": "enlistBravo",
      "outputs": [],
      "stateMutability": "payable",
      "type": "function",
      "payable": true
    },
    {
      "inputs": [
        {
          "internalType": "uint256",
          "name": "tokenId",
          "type": "uint256"
        },
        {
          "internalType": "uint256",
          "name": "amount",
          "type": "uint256"
        },
        {
          "internalType": "bytes",
          "name": "data",
          "type": "bytes"
        }
      ],
      "name": "payBravo",
      "outputs": [],
      "stateMutability": "payable",
      "type": "function",
      "payable": true
    },
    {
      "inputs": [],
      "name": "toggle$AIM0firing",
      "outputs": [],
      "stateMutability": "payable",
      "type": "function",
      "payable": true
    },
    {
      "inputs": [
        {
          "internalType": "uint256",
          "name": "tokenId",
          "type": "uint256"
        },
        {
          "internalType": "uint256",
          "name": "amount",
          "type": "uint256"
        }
      ],
      "name": "fire$AIM0",
      "outputs": [],
      "stateMutability": "payable",
      "type": "function",
      "payable": true
    },
    {
      "inputs": [
        {
          "internalType": "address",
          "name": "from",
          "type": "address"
        },
        {
          "internalType": "address",
          "name": "to",
          "type": "address"
        },
        {
          "internalType": "uint256",
          "name": "id",
          "type": "uint256"
        },
        {
          "internalType": "uint256",
          "name": "amount",
          "type": "uint256"
        },
        {
          "internalType": "bytes",
          "name": "data",
          "type": "bytes"
        }
      ],
      "name": "safeTransferFrom",
      "outputs": [],
      "stateMutability": "nonpayable",
      "type": "function"
    },
    {
      "inputs": [
        {
          "internalType": "address",
          "name": "from",
          "type": "address"
        },
        {
          "internalType": "address",
          "name": "to",
          "type": "address"
        },
        {
          "internalType": "uint256[]",
          "name": "ids",
          "type": "uint256[]"
        },
        {
          "internalType": "uint256[]",
          "name": "amounts",
          "type": "uint256[]"
        },
        {
          "internalType": "bytes",
          "name": "data",
          "type": "bytes"
        }
      ],
      "name": "safeBatchTransferFrom",
      "outputs": [],
      "stateMutability": "nonpayable",
      "type": "function"
    },
    {
      "inputs": [],
      "name": "withdraw",
      "outputs": [],
      "stateMutability": "payable",
      "type": "function",
      "payable": true
    }
  ],
  "bytecode": "0x60806040526007805460ff191690553480156200001b57600080fd5b506040805160208101909152600081526200003681620001e2565b506200004233620001f4565b60006200005a670de0b6b3a76400006127106200087a565b62000071670de0b6b3a7640000620f42406200087a565b6200007d91906200089a565b9050620000b5620000966003546001600160a01b031690565b600083604051806020016040528060008152506200025560201b60201c565b60006040518060a00160405280620000d26200024660201b60201c565b6001600160a01b039081168252604080518082018252601681527f2441494d303a20554e4255524e454420535550504c5900000000000000000000602080830191909152808501919091526000918401829052606084018290526080909301819052600580546001810182559181905284517f036b6384b5eca791c62761152d0c79bb0604c104a5fb6f4eb0703f3154bb3db09290910291820180546001600160a01b0319169190931617825591830151929350839290917f036b6384b5eca791c62761152d0c79bb0604c104a5fb6f4eb0703f3154bb3db10190620001b9908262000983565b506040820151816002015560608201518160030155608082015181600401555050505062000c7a565b6002620001f0828262000983565b5050565b600380546001600160a01b038381166001600160a01b0319831681179093556040519116919082907f8be0079c531659141344cd1fd0a4f28419497f9722a3daafe3b4186f6b6457e090600090a35050565b6003546001600160a01b031690565b6001600160a01b038416620002f1576040517f08c379a000000000000000000000000000000000000000000000000000000000815260206004820152602160248201527f455243313135353a206d696e7420746f20746865207a65726f2061646472657360448201527f730000000000000000000000000000000000000000000000000000000000000060648201526084015b60405180910390fd5b336000620002ff85620003be565b905060006200030e85620003be565b905062000321836000898585896200040c565b6000868152602081815260408083206001600160a01b038b168452909152812080548792906200035390849062000a4f565b909155505060408051878152602081018790526001600160a01b03808a1692600092918716917fc3d58168c5ae7397731d063d5bbf3d657854427343f4c083240f7aacaa2d0f62910160405180910390a4620003b58360008989898962000424565b50505050505050565b60408051600180825281830190925260609160009190602080830190803683370190505090508281600081518110620003fb57620003fb62000a65565b602090810291909101015292915050565b6200041c86868686868662000689565b505050505050565b6001600160a01b0384163b156200041c576040517ff23a6e610000000000000000000000000000000000000000000000000000000081526001600160a01b0385169063f23a6e619062000484908990899088908890889060040162000adc565b6020604051808303816000875af1925050508015620004c2575060408051601f3d908101601f19168201909252620004bf9181019062000b23565b60015b620005b657620004d162000b6e565b806308c379a0036200052b5750620004e862000bba565b80620004f557506200052d565b806040517f08c379a0000000000000000000000000000000000000000000000000000000008152600401620002e8919062000c49565b505b6040517f08c379a000000000000000000000000000000000000000000000000000000000815260206004820152603460248201527f455243313135353a207472616e7366657220746f206e6f6e2d4552433131353560448201527f526563656976657220696d706c656d656e7465720000000000000000000000006064820152608401620002e8565b7fffffffff0000000000000000000000000000000000000000000000000000000081167ff23a6e610000000000000000000000000000000000000000000000000000000014620003b5576040517f08c379a000000000000000000000000000000000000000000000000000000000815260206004820152602860248201527f455243313135353a204552433131353552656365697665722072656a6563746560448201527f6420746f6b656e730000000000000000000000000000000000000000000000006064820152608401620002e8565b6001600160a01b0385166200071d5760005b83518110156200071b57828181518110620006ba57620006ba62000a65565b602002602001015160046000868481518110620006db57620006db62000a65565b60200260200101518152602001908152602001600020600082825462000702919062000a4f565b909155506200071390508162000c5e565b90506200069b565b505b6001600160a01b0384166200041c5760005b8351811015620003b557600084828151811062000750576200075062000a65565b60200260200101519050600084838151811062000771576200077162000a65565b602002602001015190506000600460008481526020019081526020016000205490508181101562000825576040517f08c379a000000000000000000000000000000000000000000000000000000000815260206004820152602860248201527f455243313135353a206275726e20616d6f756e74206578636565647320746f7460448201527f616c537570706c790000000000000000000000000000000000000000000000006064820152608401620002e8565b60009283526004602052604090922091039055620008438162000c5e565b90506200072f565b7f4e487b7100000000000000000000000000000000000000000000000000000000600052601160045260246000fd5b80820281158282048414176200089457620008946200084b565b92915050565b818103818111156200089457620008946200084b565b7f4e487b7100000000000000000000000000000000000000000000000000000000600052604160045260246000fd5b600181811c90821680620008f457607f821691505b6020821081036200092e577f4e487b7100000000000000000000000000000000000000000000000000000000600052602260045260246000fd5b50919050565b601f8211156200097e57600081815260208120601f850160051c810160208610156200095d5750805b601f850160051c820191505b818110156200041c5782815560010162000969565b505050565b81516001600160401b038111156200099f576200099f620008b0565b620009b781620009b08454620008df565b8462000934565b602080601f831160018114620009ef5760008415620009d65750858301515b600019600386901b1c1916600185901b1785556200041c565b600085815260208120601f198616915b8281101562000a2057888601518255948401946001909101908401620009ff565b508582101562000a3f5787850151600019600388901b60f8161c191681555b5050505050600190811b01905550565b808201808211156200089457620008946200084b565b7f4e487b7100000000000000000000000000000000000000000000000000000000600052603260045260246000fd5b6000815180845260005b8181101562000abc5760208185018101518683018201520162000a9e565b506000602082860101526020601f19601f83011685010191505092915050565b6001600160a01b03868116825285166020820152604081018490526060810183905260a06080820181905260009062000b189083018462000a94565b979650505050505050565b60006020828403121562000b3657600080fd5b81517fffffffff000000000000000000000000000000000000000000000000000000008116811462000b6757600080fd5b9392505050565b600060033d111562000b885760046000803e5060005160e01c5b90565b601f8201601f191681016001600160401b038111828210171562000bb35762000bb3620008b0565b6040525050565b600060443d101562000bc95790565b6040516003193d81016004833e81513d6001600160401b03808311602484018310171562000bf957505050505090565b828501915081518181111562000c125750505050505090565b843d870101602082850101111562000c2d5750505050505090565b62000c3e6020828601018762000b8b565b509095945050505050565b60208152600062000b67602083018462000a94565b60006001820162000c735762000c736200084b565b5060010190565b6138c28062000c8a6000396000f3fe6080604052600436106101b65760003560e01c8063715018a6116100ec578063d5abeb011161008a578063f242432a11610064578063f242432a14610531578063f2fde38b14610551578063f5298aca14610571578063fae8501e1461059157600080fd5b8063d5abeb01146104c0578063d85d3d27146104d5578063e985e9c5146104e857600080fd5b806395d89b41116100c657806395d89b41146103f9578063a22cb46514610442578063bd85b03914610462578063d0ffc7e11461048f57600080fd5b8063715018a6146103a9578063846eb7d0146103be5780638da5cb5b146103d157600080fd5b8063313ce567116101595780634f558e79116101335780634f558e791461032d578063551627791461035c5780636b20c454146103765780636e1955f41461039657600080fd5b8063313ce567146102dc5780633ccfd60b146102f85780634e1273f41461030057600080fd5b80630c84c131116101955780630c84c131146102745780630e89341c146102895780632afcd685146102a95780632eb2c2d6146102bc57600080fd5b8062fdd58e146101bb57806301ffc9a7146101ee57806306fdde031461021e575b600080fd5b3480156101c757600080fd5b506101db6101d6366004612bb8565b610599565b6040519081526020015b60405180910390f35b3480156101fa57600080fd5b5061020e610209366004612c10565b610645565b60405190151581526020016101e5565b34801561022a57600080fd5b506102676040518060400160405280601281526020017f427261766f20436f6d70616e79204e465473000000000000000000000000000081525081565b6040516101e59190612c84565b610287610282366004612c97565b610728565b005b34801561029557600080fd5b506102676102a4366004612d17565b6107b1565b6102876102b7366004612d30565b610a49565b3480156102c857600080fd5b506102876102d7366004612ec0565b610a75565b3480156102e857600080fd5b506101db670de0b6b3a764000081565b610287610ac8565b34801561030c57600080fd5b5061032061031b366004612f6a565b610b00565b6040516101e59190613070565b34801561033957600080fd5b5061020e610348366004612d17565b600090815260046020526040902054151590565b34801561036857600080fd5b5060075461020e9060ff1681565b34801561038257600080fd5b50610287610391366004613083565b610c3e565b6102876103a43660046130f7565b610cdc565b3480156103b557600080fd5b50610287610e5a565b6102876103cc366004613134565b610e6e565b3480156103dd57600080fd5b506003546040516001600160a01b0390911681526020016101e5565b34801561040557600080fd5b506102676040518060400160405280600581526020017f425241563000000000000000000000000000000000000000000000000000000081525081565b34801561044e57600080fd5b5061028761045d366004613156565b61107d565b34801561046e57600080fd5b506101db61047d366004612d17565b60009081526004602052604090205490565b34801561049b57600080fd5b506104af6104aa366004612d17565b61108c565b6040516101e5959493929190613192565b3480156104cc57600080fd5b506101db60c881565b6102876104e33660046131d1565b611160565b3480156104f457600080fd5b5061020e61050336600461320e565b6001600160a01b03918216600090815260016020908152604080832093909416825291909152205460ff1690565b34801561053d57600080fd5b5061028761054c366004613241565b6114fc565b34801561055d57600080fd5b5061028761056c366004612d30565b6117b7565b34801561057d57600080fd5b5061028761058c3660046132a6565b611844565b6102876118dd565b60006001600160a01b03831661061c5760405162461bcd60e51b815260206004820152602a60248201527f455243313135353a2061646472657373207a65726f206973206e6f742061207660448201527f616c6964206f776e65720000000000000000000000000000000000000000000060648201526084015b60405180910390fd5b506000818152602081815260408083206001600160a01b03861684529091529020545b92915050565b60007fffffffff0000000000000000000000000000000000000000000000000000000082167fd9b67a260000000000000000000000000000000000000000000000000000000014806106d857507fffffffff0000000000000000000000000000000000000000000000000000000082167f0e89341c00000000000000000000000000000000000000000000000000000000145b8061063f57507f01ffc9a7000000000000000000000000000000000000000000000000000000007fffffffff0000000000000000000000000000000000000000000000000000000083161461063f565b6107306118f9565b6107ab3360058681548110610747576107476132d9565b906000526020600020906005020160000160009054906101000a90046001600160a01b031660008686868080601f01602080910402602001604051908101604052809392919081815260200183838082843760009201919091525061195392505050565b50505050565b6000818152600460205260409020546060906108355760405162461bcd60e51b815260206004820152602f60248201527f4552433732314d657461646174613a2055524920717565727920666f72206e6f60448201527f6e6578697374656e7420746f6b656e00000000000000000000000000000000006064820152608401610613565b60008261086d57506000805260046020527f17ef568e3e12ab5b9c7254a8d58478811de00f9e6eb34345acd53bf8fd09d3ec546108a5565b6108a260058481548110610883576108836132d9565b600091825260208220600590910201546001600160a01b031690610599565b90505b6040517f2e0a95f400000000000000000000000000000000000000000000000000000000815260048101829052600090819073__BravoLibrary__________________________90632e0a95f490602401600060405180830381865af4158015610913573d6000803e3d6000fd5b505050506040513d6000823e601f3d908101601f1916820160405261093b9190810190613357565b9150915073__BravoLibrary__________________________635f90f7488661098760058981548110610970576109706132d9565b906000526020600020906005020160030154611b37565b6109b460058a8154811061099d5761099d6132d9565b906000526020600020906005020160040154611b37565b60058a815481106109c7576109c76132d9565b906000526020600020906005020160010187876040518763ffffffff1660e01b81526004016109fb96959493929190613404565b600060405180830381865af4158015610a18573d6000803e3d6000fd5b505050506040513d6000823e601f3d908101601f19168201604052610a4091908101906134e3565b95945050505050565b610a516118f9565b6001600160a01b03166000908152600660205260409020805460ff19166001179055565b60405162461bcd60e51b815260206004820152601760248201527f4261746368207472616e736665722064697361626c65640000000000000000006044820152600190606401610613565b505050505050565b610ad06118f9565b6040513390303180156108fc02916000818181858888f19350505050158015610afd573d6000803e3d6000fd5b50565b60608151835114610b795760405162461bcd60e51b815260206004820152602960248201527f455243313135353a206163636f756e747320616e6420696473206c656e67746860448201527f206d69736d6174636800000000000000000000000000000000000000000000006064820152608401610613565b6000835167ffffffffffffffff811115610b9557610b95612d4b565b604051908082528060200260200182016040528015610bbe578160200160208202803683370190505b50905060005b8451811015610c3657610c09858281518110610be257610be26132d9565b6020026020010151858381518110610bfc57610bfc6132d9565b6020026020010151610599565b828281518110610c1b57610c1b6132d9565b6020908102919091010152610c2f81613547565b9050610bc4565b509392505050565b6001600160a01b038316331480610c5a5750610c5a8333610503565b610ccc5760405162461bcd60e51b815260206004820152602e60248201527f455243313135353a2063616c6c6572206973206e6f7420746f6b656e206f776e60448201527f6572206f7220617070726f7665640000000000000000000000000000000000006064820152608401610613565b610cd7838383611e7b565b505050565b336001600160a01b031660058381548110610cf957610cf96132d9565b60009182526020909120600590910201546001600160a01b031614610d865760405162461bcd60e51b815260206004820152602760248201527f596f7520617265206e6f7420746865206f776e6572206f66207468697320427260448201527f61766f204e4654000000000000000000000000000000000000000000000000006064820152608401610613565b601481511115610dd85760405162461bcd60e51b815260206004820152601260248201527f436f6465206e616d6520746f6f206c6f6e6700000000000000000000000000006044820152606401610613565b6000815111610e295760405162461bcd60e51b815260206004820152601360248201527f436f6465206e616d6520746f6f2073686f7274000000000000000000000000006044820152606401610613565b8060058381548110610e3d57610e3d6132d9565b90600052602060002090600502016001019081610cd791906135a7565b610e626118f9565b610e6c6000612118565b565b60075460ff161515600114610ec55760405162461bcd60e51b815260206004820152601860248201527f666972696e67202441494d302069732064697361626c656400000000000000006044820152606401610613565b80610ed1336000610599565b1015610f1f5760405162461bcd60e51b815260206004820152601b60248201527f596f7520646f6e2774206861766520656e6f756768202441494d3000000000006044820152606401610613565b336001600160a01b031660058381548110610f3c57610f3c6132d9565b60009182526020909120600590910201546001600160a01b031614610fc95760405162461bcd60e51b815260206004820152602760248201527f596f7520617265206e6f7420746865206f776e6572206f66207468697320427260448201527f61766f204e4654000000000000000000000000000000000000000000000000006064820152608401610613565b610fd533600083612182565b8060058381548110610fe957610fe96132d9565b906000526020600020906005020160020160008282546110099190613667565b909155506110229050670de0b6b3a7640000606461367a565b60058381548110611035576110356132d9565b9060005260206000209060050201600201546110519190613691565b60058381548110611064576110646132d9565b9060005260206000209060050201600301819055505050565b61108833838361234a565b5050565b6005818154811061109c57600080fd5b6000918252602090912060059091020180546001820180546001600160a01b039092169350906110cb906133b1565b80601f01602080910402602001604051908101604052809291908181526020018280546110f7906133b1565b80156111445780601f1061111957610100808354040283529160200191611144565b820191906000526020600020905b81548152906001019060200180831161112757829003601f168201915b5050505050908060020154908060030154908060040154905085565b3360009081526006602052604090205460ff1615156001146111ea5760405162461bcd60e51b815260206004820152602260248201527f596f7520617265206e6f74206f6e20427261766f204e4654206d696e74206c6960448201527f73740000000000000000000000000000000000000000000000000000000000006064820152608401610613565b60148151111561123c5760405162461bcd60e51b815260206004820152601260248201527f436f6465206e616d6520746f6f206c6f6e6700000000000000000000000000006044820152606401610613565b600081511161128d5760405162461bcd60e51b815260206004820152601360248201527f436f6465206e616d6520746f6f2073686f7274000000000000000000000000006044820152606401610613565b60055460c88111156113065760405162461bcd60e51b8152602060048201526024808201527f4d617820737570706c79206f662032303020427261766f204e4654732072656160448201527f63686564000000000000000000000000000000000000000000000000000000006064820152608401610613565b6040805160a0810182523381526020810184905260008183018190526060820181905291517f282946400000000000000000000000000000000000000000000000000000000081526103e860048201526024810184905260226044820152608082019073__BravoLibrary__________________________90632829464090606401602060405180830381865af41580156113a5573d6000803e3d6000fd5b505050506040513d601f19601f820116820180604052508101906113c991906136cc565b6113d490606f613667565b9052600580546001810182556000829052825191027f036b6384b5eca791c62761152d0c79bb0604c104a5fb6f4eb0703f3154bb3db0810180546001600160a01b039093167fffffffffffffffffffffffff0000000000000000000000000000000000000000909316929092178255602083015192935083927f036b6384b5eca791c62761152d0c79bb0604c104a5fb6f4eb0703f3154bb3db19091019061147c90826135a7565b5060408281015160028301556060830151600383015560809092015160049091015533600081815260066020908152838220805460ff19169055835190810190935282526114ce91849060019061243e565b610cd73360006114e7670de0b6b3a7640000606461367a565b6040518060200160405280600081525061243e565b6001600160a01b03851633148061151857506115188533610503565b61158a5760405162461bcd60e51b815260206004820152602e60248201527f455243313135353a2063616c6c6572206973206e6f7420746f6b656e206f776e60448201527f6572206f7220617070726f7665640000000000000000000000000000000000006064820152608401610613565b600083116116005760405162461bcd60e51b815260206004820152602260248201527f455243313135353a202441494d30206973206e6f74207472616e73666572616260448201527f6c650000000000000000000000000000000000000000000000000000000000006064820152608401610613565b816001146116765760405162461bcd60e51b815260206004820152602c60248201527f455243313135353a204f6e6c79203120427261766f204e46542063616e20626560448201527f207472616e7366657272656400000000000000000000000000000000000000006064820152608401610613565b6040805160028082526060820183526000926020830190803683370190505090506000816000815181106116ac576116ac6132d9565b60200260200101818152505083816001815181106116cc576116cc6132d9565b602090810291909101015260408051600280825260608201909252600091816020016020820280368337019050509050611707876000610599565b8160008151811061171a5761171a6132d9565b60200260200101818152505060018160018151811061173b5761173b6132d9565b6020026020010181815250506117548787848487611bd7565b8560058681548110611768576117686132d9565b6000918252602090912060059091020180547fffffffffffffffffffffffff0000000000000000000000000000000000000000166001600160a01b039290921691909117905550505050505050565b6117bf6118f9565b6001600160a01b03811661183b5760405162461bcd60e51b815260206004820152602660248201527f4f776e61626c653a206e6577206f776e657220697320746865207a65726f206160448201527f64647265737300000000000000000000000000000000000000000000000000006064820152608401610613565b610afd81612118565b6001600160a01b03831633148061186057506118608333610503565b6118d25760405162461bcd60e51b815260206004820152602e60248201527f455243313135353a2063616c6c6572206973206e6f7420746f6b656e206f776e60448201527f6572206f7220617070726f7665640000000000000000000000000000000000006064820152608401610613565b610cd7838383612182565b6118e56118f9565b6007805460ff19811660ff90911615179055565b6003546001600160a01b03163314610e6c5760405162461bcd60e51b815260206004820181905260248201527f4f776e61626c653a2063616c6c6572206973206e6f7420746865206f776e65726044820152606401610613565b6001600160a01b0384166119cf5760405162461bcd60e51b815260206004820152602560248201527f455243313135353a207472616e7366657220746f20746865207a65726f20616460448201527f64726573730000000000000000000000000000000000000000000000000000006064820152608401610613565b3360006119db85612574565b905060006119e885612574565b90506119f88389898585896125bf565b6000868152602081815260408083206001600160a01b038c16845290915290205485811015611a8f5760405162461bcd60e51b815260206004820152602a60248201527f455243313135353a20696e73756666696369656e742062616c616e636520666f60448201527f72207472616e73666572000000000000000000000000000000000000000000006064820152608401610613565b6000878152602081815260408083206001600160a01b038d8116855292528083208985039055908a16825281208054889290611acc908490613667565b909155505060408051888152602081018890526001600160a01b03808b16928c821692918816917fc3d58168c5ae7397731d063d5bbf3d657854427343f4c083240f7aacaa2d0f62910160405180910390a4611b2c848a8a8a8a8a6125cd565b505050505050505050565b60606000611b44836127d1565b600101905060008167ffffffffffffffff811115611b6457611b64612d4b565b6040519080825280601f01601f191660200182016040528015611b8e576020820181803683370190505b5090508181016020015b600019017f3031323334353637383961626364656600000000000000000000000000000000600a86061a8153600a8504945084611b9857509392505050565b8151835114611c4e5760405162461bcd60e51b815260206004820152602860248201527f455243313135353a2069647320616e6420616d6f756e7473206c656e6774682060448201527f6d69736d617463680000000000000000000000000000000000000000000000006064820152608401610613565b6001600160a01b038416611cca5760405162461bcd60e51b815260206004820152602560248201527f455243313135353a207472616e7366657220746f20746865207a65726f20616460448201527f64726573730000000000000000000000000000000000000000000000000000006064820152608401610613565b33611cd98187878787876125bf565b60005b8451811015611e15576000858281518110611cf957611cf96132d9565b602002602001015190506000858381518110611d1757611d176132d9565b602090810291909101810151600084815280835260408082206001600160a01b038e168352909352919091205490915081811015611dbd5760405162461bcd60e51b815260206004820152602a60248201527f455243313135353a20696e73756666696369656e742062616c616e636520666f60448201527f72207472616e73666572000000000000000000000000000000000000000000006064820152608401610613565b6000838152602081815260408083206001600160a01b038e8116855292528083208585039055908b16825281208054849290611dfa908490613667565b9250508190555050505080611e0e90613547565b9050611cdc565b50846001600160a01b0316866001600160a01b0316826001600160a01b03167f4a39dc06d4c0dbc64b70af90fd698a233a518aa5d07e595d983b8c0526c8f7fb8787604051611e659291906136e5565b60405180910390a4610ac08187878787876128b3565b6001600160a01b038316611ef75760405162461bcd60e51b815260206004820152602360248201527f455243313135353a206275726e2066726f6d20746865207a65726f206164647260448201527f65737300000000000000000000000000000000000000000000000000000000006064820152608401610613565b8051825114611f6e5760405162461bcd60e51b815260206004820152602860248201527f455243313135353a2069647320616e6420616d6f756e7473206c656e6774682060448201527f6d69736d617463680000000000000000000000000000000000000000000000006064820152608401610613565b6000339050611f91818560008686604051806020016040528060008152506125bf565b60005b83518110156120ab576000848281518110611fb157611fb16132d9565b602002602001015190506000848381518110611fcf57611fcf6132d9565b602090810291909101810151600084815280835260408082206001600160a01b038c1683529093529190912054909150818110156120745760405162461bcd60e51b8152602060048201526024808201527f455243313135353a206275726e20616d6f756e7420657863656564732062616c60448201527f616e6365000000000000000000000000000000000000000000000000000000006064820152608401610613565b6000928352602083815260408085206001600160a01b038b16865290915290922091039055806120a381613547565b915050611f94565b5060006001600160a01b0316846001600160a01b0316826001600160a01b03167f4a39dc06d4c0dbc64b70af90fd698a233a518aa5d07e595d983b8c0526c8f7fb86866040516120fc9291906136e5565b60405180910390a46040805160208101909152600090526107ab565b600380546001600160a01b038381167fffffffffffffffffffffffff0000000000000000000000000000000000000000831681179093556040519116919082907f8be0079c531659141344cd1fd0a4f28419497f9722a3daafe3b4186f6b6457e090600090a35050565b6001600160a01b0383166121fe5760405162461bcd60e51b815260206004820152602360248201527f455243313135353a206275726e2066726f6d20746865207a65726f206164647260448201527f65737300000000000000000000000000000000000000000000000000000000006064820152608401610613565b33600061220a84612574565b9050600061221784612574565b9050612237838760008585604051806020016040528060008152506125bf565b6000858152602081815260408083206001600160a01b038a168452909152902054848110156122cd5760405162461bcd60e51b8152602060048201526024808201527f455243313135353a206275726e20616d6f756e7420657863656564732062616c60448201527f616e6365000000000000000000000000000000000000000000000000000000006064820152608401610613565b6000868152602081815260408083206001600160a01b038b81168086529184528285208a8703905582518b81529384018a90529092908816917fc3d58168c5ae7397731d063d5bbf3d657854427343f4c083240f7aacaa2d0f62910160405180910390a46040805160208101909152600090525b50505050505050565b816001600160a01b0316836001600160a01b0316036123d15760405162461bcd60e51b815260206004820152602960248201527f455243313135353a2073657474696e6720617070726f76616c2073746174757360448201527f20666f722073656c6600000000000000000000000000000000000000000000006064820152608401610613565b6001600160a01b03838116600081815260016020908152604080832094871680845294825291829020805460ff191686151590811790915591519182527f17307eab39ab6107e8899845ad3d59bd9653f200f220920489ca2b5937696c31910160405180910390a3505050565b6001600160a01b0384166124ba5760405162461bcd60e51b815260206004820152602160248201527f455243313135353a206d696e7420746f20746865207a65726f2061646472657360448201527f73000000000000000000000000000000000000000000000000000000000000006064820152608401610613565b3360006124c685612574565b905060006124d385612574565b90506124e4836000898585896125bf565b6000868152602081815260408083206001600160a01b038b16845290915281208054879290612514908490613667565b909155505060408051878152602081018790526001600160a01b03808a1692600092918716917fc3d58168c5ae7397731d063d5bbf3d657854427343f4c083240f7aacaa2d0f62910160405180910390a4612341836000898989896125cd565b604080516001808252818301909252606091600091906020808301908036833701905050905082816000815181106125ae576125ae6132d9565b602090810291909101015292915050565b610ac0868686868686612a0e565b6001600160a01b0384163b15610ac0576040517ff23a6e610000000000000000000000000000000000000000000000000000000081526001600160a01b0385169063f23a6e619061262a908990899088908890889060040161370a565b6020604051808303816000875af1925050508015612665575060408051601f3d908101601f191682019092526126629181019061374d565b60015b61271a5761267161376a565b806308c379a0036126aa5750612685613786565b8061269057506126ac565b8060405162461bcd60e51b81526004016106139190612c84565b505b60405162461bcd60e51b815260206004820152603460248201527f455243313135353a207472616e7366657220746f206e6f6e2d4552433131353560448201527f526563656976657220696d706c656d656e7465720000000000000000000000006064820152608401610613565b7fffffffff0000000000000000000000000000000000000000000000000000000081167ff23a6e6100000000000000000000000000000000000000000000000000000000146123415760405162461bcd60e51b815260206004820152602860248201527f455243313135353a204552433131353552656365697665722072656a6563746560448201527f6420746f6b656e730000000000000000000000000000000000000000000000006064820152608401610613565b6000807a184f03e93ff9f4daa797ed6e38ed64bf6a1f010000000000000000831061281a577a184f03e93ff9f4daa797ed6e38ed64bf6a1f010000000000000000830492506040015b6d04ee2d6d415b85acef81000000008310612846576d04ee2d6d415b85acef8100000000830492506020015b662386f26fc10000831061286457662386f26fc10000830492506010015b6305f5e100831061287c576305f5e100830492506008015b612710831061289057612710830492506004015b606483106128a2576064830492506002015b600a831061063f5760010192915050565b6001600160a01b0384163b15610ac0576040517fbc197c810000000000000000000000000000000000000000000000000000000081526001600160a01b0385169063bc197c8190612910908990899088908890889060040161382e565b6020604051808303816000875af192505050801561294b575060408051601f3d908101601f191682019092526129489181019061374d565b60015b6129575761267161376a565b7fffffffff0000000000000000000000000000000000000000000000000000000081167fbc197c8100000000000000000000000000000000000000000000000000000000146123415760405162461bcd60e51b815260206004820152602860248201527f455243313135353a204552433131353552656365697665722072656a6563746560448201527f6420746f6b656e730000000000000000000000000000000000000000000000006064820152608401610613565b6001600160a01b038516612a955760005b8351811015612a9357828181518110612a3a57612a3a6132d9565b602002602001015160046000868481518110612a5857612a586132d9565b602002602001015181526020019081526020016000206000828254612a7d9190613667565b90915550612a8c905081613547565b9050612a1f565b505b6001600160a01b038416610ac05760005b8351811015612341576000848281518110612ac357612ac36132d9565b602002602001015190506000848381518110612ae157612ae16132d9565b6020026020010151905060006004600084815260200190815260200160002054905081811015612b795760405162461bcd60e51b815260206004820152602860248201527f455243313135353a206275726e20616d6f756e74206578636565647320746f7460448201527f616c537570706c790000000000000000000000000000000000000000000000006064820152608401610613565b60009283526004602052604090922091039055612b9581613547565b9050612aa6565b80356001600160a01b0381168114612bb357600080fd5b919050565b60008060408385031215612bcb57600080fd5b612bd483612b9c565b946020939093013593505050565b7fffffffff0000000000000000000000000000000000000000000000000000000081168114610afd57600080fd5b600060208284031215612c2257600080fd5b8135612c2d81612be2565b9392505050565b60005b83811015612c4f578181015183820152602001612c37565b50506000910152565b60008151808452612c70816020860160208601612c34565b601f01601f19169290920160200192915050565b602081526000612c2d6020830184612c58565b60008060008060608587031215612cad57600080fd5b8435935060208501359250604085013567ffffffffffffffff80821115612cd357600080fd5b818701915087601f830112612ce757600080fd5b813581811115612cf657600080fd5b886020828501011115612d0857600080fd5b95989497505060200194505050565b600060208284031215612d2957600080fd5b5035919050565b600060208284031215612d4257600080fd5b612c2d82612b9c565b7f4e487b7100000000000000000000000000000000000000000000000000000000600052604160045260246000fd5b601f19601f830116810181811067ffffffffffffffff82111715612da057612da0612d4b565b6040525050565b600067ffffffffffffffff821115612dc157612dc1612d4b565b5060051b60200190565b600082601f830112612ddc57600080fd5b81356020612de982612da7565b604051612df68282612d7a565b83815260059390931b8501820192828101915086841115612e1657600080fd5b8286015b84811015612e315780358352918301918301612e1a565b509695505050505050565b600067ffffffffffffffff821115612e5657612e56612d4b565b50601f01601f191660200190565b600082601f830112612e7557600080fd5b8135612e8081612e3c565b604051612e8d8282612d7a565b828152856020848701011115612ea257600080fd5b82602086016020830137600092810160200192909252509392505050565b600080600080600060a08688031215612ed857600080fd5b612ee186612b9c565b9450612eef60208701612b9c565b9350604086013567ffffffffffffffff80821115612f0c57600080fd5b612f1889838a01612dcb565b94506060880135915080821115612f2e57600080fd5b612f3a89838a01612dcb565b93506080880135915080821115612f5057600080fd5b50612f5d88828901612e64565b9150509295509295909350565b60008060408385031215612f7d57600080fd5b823567ffffffffffffffff80821115612f9557600080fd5b818501915085601f830112612fa957600080fd5b81356020612fb682612da7565b604051612fc38282612d7a565b83815260059390931b8501820192828101915089841115612fe357600080fd5b948201945b8386101561300857612ff986612b9c565b82529482019490820190612fe8565b9650508601359250508082111561301e57600080fd5b5061302b85828601612dcb565b9150509250929050565b600081518084526020808501945080840160005b8381101561306557815187529582019590820190600101613049565b509495945050505050565b602081526000612c2d6020830184613035565b60008060006060848603121561309857600080fd5b6130a184612b9c565b9250602084013567ffffffffffffffff808211156130be57600080fd5b6130ca87838801612dcb565b935060408601359150808211156130e057600080fd5b506130ed86828701612dcb565b9150509250925092565b6000806040838503121561310a57600080fd5b82359150602083013567ffffffffffffffff81111561312857600080fd5b61302b85828601612e64565b6000806040838503121561314757600080fd5b50508035926020909101359150565b6000806040838503121561316957600080fd5b61317283612b9c565b91506020830135801515811461318757600080fd5b809150509250929050565b6001600160a01b038616815260a0602082015260006131b460a0830187612c58565b604083019590955250606081019290925260809091015292915050565b6000602082840312156131e357600080fd5b813567ffffffffffffffff8111156131fa57600080fd5b61320684828501612e64565b949350505050565b6000806040838503121561322157600080fd5b61322a83612b9c565b915061323860208401612b9c565b90509250929050565b600080600080600060a0868803121561325957600080fd5b61326286612b9c565b945061327060208701612b9c565b93506040860135925060608601359150608086013567ffffffffffffffff81111561329a57600080fd5b612f5d88828901612e64565b6000806000606084860312156132bb57600080fd5b6132c484612b9c565b95602085013595506040909401359392505050565b7f4e487b7100000000000000000000000000000000000000000000000000000000600052603260045260246000fd5b600082601f83011261331957600080fd5b815161332481612e3c565b6040516133318282612d7a565b82815285602084870101111561334657600080fd5b610a40836020830160208801612c34565b6000806040838503121561336a57600080fd5b825167ffffffffffffffff8082111561338257600080fd5b61338e86838701613308565b935060208501519150808211156133a457600080fd5b5061302b85828601613308565b600181811c908216806133c557607f821691505b6020821081036133fe577f4e487b7100000000000000000000000000000000000000000000000000000000600052602260045260246000fd5b50919050565b8681526000602060c08184015261341e60c0840189612c58565b83810360408501526134308189612c58565b9050838103606085015260008754613447816133b1565b80845260018281168015613462576001811461347c576134aa565b60ff198416878701528683151560051b87010194506134aa565b8b6000528660002060005b848110156134a25781548882018a0152908301908801613487565b870188019550505b5050505084810360808601526134c08188612c58565b9250505082810360a08401526134d68185612c58565b9998505050505050505050565b6000602082840312156134f557600080fd5b815167ffffffffffffffff81111561350c57600080fd5b61320684828501613308565b7f4e487b7100000000000000000000000000000000000000000000000000000000600052601160045260246000fd5b6000600019820361355a5761355a613518565b5060010190565b601f821115610cd757600081815260208120601f850160051c810160208610156135885750805b601f850160051c820191505b81811015610ac057828155600101613594565b815167ffffffffffffffff8111156135c1576135c1612d4b565b6135d5816135cf84546133b1565b84613561565b602080601f83116001811461360a57600084156135f25750858301515b600019600386901b1c1916600185901b178555610ac0565b600085815260208120601f198616915b828110156136395788860151825594840194600190910190840161361a565b50858210156136575787850151600019600388901b60f8161c191681555b5050505050600190811b01905550565b8082018082111561063f5761063f613518565b808202811582820484141761063f5761063f613518565b6000826136c7577f4e487b7100000000000000000000000000000000000000000000000000000000600052601260045260246000fd5b500490565b6000602082840312156136de57600080fd5b5051919050565b6040815260006136f86040830185613035565b8281036020840152610a408185613035565b60006001600160a01b03808816835280871660208401525084604083015283606083015260a0608083015261374260a0830184612c58565b979650505050505050565b60006020828403121561375f57600080fd5b8151612c2d81612be2565b600060033d11156137835760046000803e5060005160e01c5b90565b600060443d10156137945790565b6040517ffffffffffffffffffffffffffffffffffffffffffffffffffffffffffffffffc803d016004833e81513d67ffffffffffffffff81602484011181841117156137e257505050505090565b82850191508151818111156137fa5750505050505090565b843d87010160208285010111156138145750505050505090565b61382360208286010187612d7a565b509095945050505050565b60006001600160a01b03808816835280871660208401525060a0604083015261385a60a0830186613035565b828103606084015261386c8186613035565b905082810360808401526138808185612c58565b9897505050505050505056fea264697066735822122097e93148c2cc5fd6250baacabefa8670285e860dd6ffd57b19841a14ee66c3f764736f6c63430008130033",
  "immutableReferences": {},
  "source": "// SPDX-License-Identifier: MIT\npragma solidity ^0.8.19;\n//...............................................................................................................\n//..ZZZZZZZZZ...EEEEEEEEE...RRRRR..........OOOOOO..............AAA.......RRRRR........MMM.....MMM...YY......YY...\n//.ZZZZZZZZZZZ.EEEEEEEEEEE.RRRRRRRRRR.....OOOOOOOOO...........AAAAA.....RRRRRRRRRR...MMMMM...MMMMM.YYYYY...YYYY..\n//.ZZZZZZZZZZZ.EEEEEEEEEEE.RRRRRRRRRRR...OOOOOOOOOO...........AAAAA.....RRRRRRRRRRR..MMMMM...MMMMM.YYYYY..YYYYY..\n//.ZZZZZZZZZZZ.EEEEEEEEEEE.RRRRRRRRRRR..OOOOOOOOOOOO.........AAAAAAA....RRRRRRRRRRR..MMMMMM..MMMMM..YYYY..YYYY...\n//......ZZZZZZ.EEEE........RRRR...RRRRR.OOOO....OOOO.........AAAAAAA....RRRR...RRRRR.MMMMMM.MMMMMM..YYYYYYYYYY...\n//.....ZZZZZZ..EEEEEEEEEE..RRRR...RRRRR.OOOO....OOOOO........AAAAAAA....RRRR...RRRRR.MMMMMM.MMMMMM...YYYYYYYY....\n//.....ZZZZZ...EEEEEEEEEE..RRRRRRRRRRR.OOOO......OOOO.......AAAAAAAAA...RRRRRRRRRRR..MMMMMM.MMMMMM...YYYYYYYY....\n//....ZZZZZ....EEEEEEEEEE..RRRRRRRRRRR.OOOO......OOOO.......AAAA.AAAA...RRRRRRRRRRR..MMMMMM.MMMMMM....YYYYYY.....\n//...ZZZZZ.....EEEEEEEEEE..RRRRRRRRRRR.OOOO......OOOO.......AAAAAAAAAA..RRRRRRRRRRR..MMMMMMMMMMMMM.....YYYYY.....\n//..ZZZZZ......EEEE........RRRR..RRRRR..OOOO....OOOOO......AAAAAAAAAAA..RRRR..RRRRR..MMM.MMMMMMMMM.....YYYY......\n//.ZZZZZZ......EEEE........RRRR...RRRR..OOOO....OOOO.......AAAAAAAAAAA..RRRR...RRRR..MMM.MMMMM.MMM.....YYYY......\n//.ZZZZZZZZZZZ.EEEEEEEEEEE.RRRR...RRRR..OOOOOOOOOOOO.......AAAAAAAAAAAA.RRRR...RRRR..MMM.MMMMM.MMM.....YYYY......\n//.ZZZZZZZZZZZ.EEEEEEEEEEE.RRRR...RRRR...OOOOOOOOOO....... AAAA....AAAA.RRRR...RRRR..MMM.MMMMM.MMM.....YYYY......\n//.ZZZZZZZZZZZ.EEEEEEEEEEE.RRRR...RRRRR...OOOOOOOOO....... AAA.....AAAA.RRRR...RRRRR.MMM.MMMMM.MMM.....YYYY......\n//.........................................OOOOOO................................................................\n//...............................................................................................................\n/// @author Simon G.Ionashku - find me on github: simon-masterclass\n// This Bravo Company NFT collection is designed to incentives the first 100 volunteers/employees\n// to enlist and claim their NFTs with $AIM0 rewards built in. Additional $AIM0 payments for work also possible.\n// This ERC-1155 contract is designed to contain both fungible and non-fungible tokens in a novel way\n// Each NFT contains fungible tokens $AIM0 and these fungible $AIM0 tokens are soulbound to the NFT\n// Every time a Bravo Company Commander Zero (AKA: C0) burns thier $AIM0 by using the\n// fire$AIM0 function they earn Mission Coins (to be minted seperately using the records in this contract)\n// in addition, every time a Bravo Company C0 burns 100 rounds of $AIM0 (ideally within the MetaSERVE), their NFT ranks up.\n// The attributes that these NFTs contain will be useful with the Zero Army's MetaSERVE\n\nimport \"@openzeppelin/contracts/token/ERC1155/ERC1155.sol\";\nimport \"@openzeppelin/contracts/token/ERC1155/extensions/ERC1155Burnable.sol\";\nimport \"@openzeppelin/contracts/access/Ownable.sol\";\nimport \"@openzeppelin/contracts/token/ERC1155/extensions/ERC1155Supply.sol\";\nimport \"@openzeppelin/contracts/utils/Strings.sol\";\nimport {BravoLibrary} from \"./BravoLibrary.sol\";\n\ncontract OnchainBravoNFTs is ERC1155, ERC1155Burnable, Ownable, ERC1155Supply {\n    using Strings for uint256;\n    using BravoLibrary for uint256;\n\n    //$AIM0 (fungible) token variables\n    //NOTE: max supply of $AIM0 (fungible) tokens for this Bravo Company collection is 1 million\n    uint256 private constant $AIM0 = 0; //token ID for $AIM0 (fungible) token\n    uint256 public constant maxSupply = 200; //max supply of Bravo NFTs + 1 for $AIM0 (fungible) tokens = 201\n\n    string public constant symbol = \"BRAV0\";\n    string public constant name = \"Bravo Company NFTs\";\n    //decimals = 10 ** 18 for $AIM0 & Mission Coins (fungible) tokens\n    uint256 public constant decimals = 10 ** 18;\n\n\n    //Bravo Company NFT variables & attrtibutes\n    //NOTE: max supply of NFTs for this Bravo Company collection is 100\n    struct BravoNFT {\n        address bravOwner;\n        string codeName;\n        uint256 missionCoinsEarned;\n        uint256 rank;\n        uint256 bravoBoost;\n    }\n\n    BravoNFT[] public bravoNFT$;\n\n    //enlistment whitelist\n    mapping(address => bool) private bravoAddressTF;\n\n    //enable burning of $AIM0 tokens for mission coins\n    bool public fire$AIM0TF = false;\n\n    constructor() ERC1155(\"\") {\n        //mint 1 million rounds of $AIM0 minus 10000 to be minted by recruits later (for gas efficiency)\n        uint256 mintAIM0 = ((10 ** 6) * decimals) - (10000 * decimals);\n        _mint(owner(), $AIM0, mintAIM0, \"\");\n\n        //first BravoNFT is the unburned $AIM0 supply\n        BravoNFT memory newBravoNFT = BravoNFT({\n            bravOwner: owner(),\n            codeName: \"$AIM0: UNBURNED SUPPLY\",\n            missionCoinsEarned: 0,\n            rank: 0,\n            bravoBoost: 0\n        });\n\n        bravoNFT$.push(newBravoNFT);\n    }\n\n    function mint(string memory codeName) public payable {\n        require(\n            bravoAddressTF[msg.sender] == true,\n            \"You are not on Bravo NFT mint list\"\n        );\n        require(bytes(codeName).length <= 20, \"Code name too long\");\n        require(bytes(codeName).length > 0, \"Code name too short\");\n        uint256 newID = bravoNFT$.length;\n        require(newID <= maxSupply, \"Max supply of 200 Bravo NFTs reached\");\n\n        //Bravo NFT variables - add new Bravo NFT to the collection\n        BravoNFT memory newBravoNFT = BravoNFT({\n            bravOwner: msg.sender,\n            codeName: codeName,\n            missionCoinsEarned: 0,\n            rank: 0,\n            bravoBoost: 111 + BravoLibrary.randomNum(1000, newID, 34)\n        });\n\n        bravoNFT$.push(newBravoNFT);\n\n        bravoAddressTF[msg.sender] = false;\n\n        //mint new NFT for Bravo company recruit with code name\n        _mint(msg.sender, newID, 1, \"\");\n\n        //mint 100 rounds of $AIM0 to the new recruit as enlistment bonus\n        _mint(msg.sender, $AIM0, 100 * decimals, \"\");\n    }\n\n    function changeBravoCodeName(\n        uint256 tokenId,\n        string memory _newCodeName\n    ) public payable {\n        require(\n            bravoNFT$[tokenId].bravOwner == msg.sender,\n            \"You are not the owner of this Bravo NFT\"\n        );\n        require(bytes(_newCodeName).length <= 20, \"Code name too long\");\n        require(bytes(_newCodeName).length > 0, \"Code name too short\");\n\n        bravoNFT$[tokenId].codeName = _newCodeName;\n    }\n\n    function uri(uint256 tokenId) public view override returns (string memory) {\n        require(\n            exists(tokenId),\n            \"ERC721Metadata: URI query for nonexistent token\"\n        );\n\n        //calculate balance\n        uint balance = 0;\n        if (tokenId == $AIM0) {\n            balance = totalSupply($AIM0);\n        } else {\n            balance = balanceOf(bravoNFT$[tokenId].bravOwner, $AIM0);\n        }\n\n        (string memory returnBalance, string memory unitName) = BravoLibrary\n            .calculateUnits(balance);\n\n        return\n            BravoLibrary.renderMetadata(\n                tokenId,\n                bravoNFT$[tokenId].rank.toString(),\n                bravoNFT$[tokenId].bravoBoost.toString(),\n                bravoNFT$[tokenId].codeName,\n                returnBalance,\n                unitName\n            );\n    }\n\n    function enlistBravo(address bravoAddress) public payable onlyOwner {\n        bravoAddressTF[bravoAddress] = true;\n    }\n\n    function payBravo(\n        uint256 tokenId,\n        uint256 amount,\n        bytes calldata data\n    ) public payable onlyOwner {\n        //pay Bravo NFT owner $AIM0\n        _safeTransferFrom(\n            msg.sender,\n            bravoNFT$[tokenId].bravOwner,\n            $AIM0,\n            amount,\n            data\n        );\n    }\n\n    function toggle$AIM0firing() public payable onlyOwner {\n        fire$AIM0TF = !fire$AIM0TF;\n    }\n\n    function fire$AIM0(uint256 tokenId, uint256 amount) public payable {\n        require(fire$AIM0TF == true, \"firing $AIM0 is disabled\");\n        require(\n            balanceOf(msg.sender, $AIM0) >= amount,\n            \"You don't have enough $AIM0\"\n        );\n        require(\n            bravoNFT$[tokenId].bravOwner == msg.sender,\n            \"You are not the owner of this Bravo NFT\"\n        );\n\n        _burn(msg.sender, $AIM0, amount);\n        // Mission coins earned after burning - to be minted later when system is fully operational\n        bravoNFT$[tokenId].missionCoinsEarned += amount;\n        //rank up after burning 100 $AIM0\n        bravoNFT$[tokenId].rank = uint256(\n            bravoNFT$[tokenId].missionCoinsEarned / (100 * decimals)\n        );\n    }\n\n    function safeTransferFrom(\n        address from,\n        address to,\n        uint256 id,\n        uint256 amount,\n        bytes memory data\n    ) public override {\n        require(\n            from == _msgSender() || isApprovedForAll(from, _msgSender()),\n            \"ERC1155: caller is not token owner or approved\"\n        );\n        require(id > 0, \"ERC1155: $AIM0 is not transferable\");\n        require(amount == 1, \"ERC1155: Only 1 Bravo NFT can be transferred\");\n\n        //transfer Bravo NFT along with all $AIM0 to new owner\n        uint256[] memory ids = new uint256[](2);\n        ids[0] = $AIM0;\n        ids[1] = id;\n\n        uint256[] memory amounts = new uint256[](2);\n        amounts[0] = balanceOf(from, $AIM0);\n        amounts[1] = 1;\n\n        _safeBatchTransferFrom(from, to, ids, amounts, data);\n        bravoNFT$[id].bravOwner = to;\n    }\n\n    function safeBatchTransferFrom(\n        address from,\n        address to,\n        uint256[] memory ids,\n        uint256[] memory amounts,\n        bytes memory data\n    ) public override {\n        //disabled batch transfer for this contract\n        bool disableBatchTransfer = true;\n        require(disableBatchTransfer == false, \"Batch transfer disabled\");\n        // require(\n        //     from == _msgSender() || isApprovedForAll(from, _msgSender()),\n        //     \"ERC1155: caller is not token owner or approved\"\n        // );\n        _safeBatchTransferFrom(from, to, ids, amounts, data);\n    }\n\n    function withdraw() public payable onlyOwner {\n        payable(msg.sender).transfer(address(this).balance);\n    }\n\n    // The following functions are overrides required by Solidity.\n\n    function _beforeTokenTransfer(\n        address operator,\n        address from,\n        address to,\n        uint256[] memory ids,\n        uint256[] memory amounts,\n        bytes memory data\n    ) internal override(ERC1155, ERC1155Supply) {\n        super._beforeTokenTransfer(operator, from, to, ids, amounts, data);\n    }\n}\n",
  "sourcePath": "/Users/c0/Documents/CODE/Zero_Army/Bravo/0xTruffleBravo/contracts/OnchainBravoNFTs.sol",
  "compiler": {
    "name": "solc",
    "version": "0.8.19+commit.7dd6d404.Emscripten.clang"
  },
  "schemaVersion": "3.4.14",
  "updatedAt": "2023-07-24T22:42:26.090Z",
  "networkType": "ethereum",
  "devdoc": {
    "events": {
      "ApprovalForAll(address,address,bool)": {
        "details": "Emitted when `account` grants or revokes permission to `operator` to transfer their tokens, according to `approved`."
      },
      "TransferBatch(address,address,address,uint256[],uint256[])": {
        "details": "Equivalent to multiple {TransferSingle} events, where `operator`, `from` and `to` are the same for all transfers."
      },
      "TransferSingle(address,address,address,uint256,uint256)": {
        "details": "Emitted when `value` tokens of token type `id` are transferred from `from` to `to` by `operator`."
      },
      "URI(string,uint256)": {
        "details": "Emitted when the URI for token type `id` changes to `value`, if it is a non-programmatic URI. If an {URI} event was emitted for `id`, the standard https://eips.ethereum.org/EIPS/eip-1155#metadata-extensions[guarantees] that `value` will equal the value returned by {IERC1155MetadataURI-uri}."
      }
    },
    "kind": "dev",
    "methods": {
      "balanceOf(address,uint256)": {
        "details": "See {IERC1155-balanceOf}. Requirements: - `account` cannot be the zero address."
      },
      "balanceOfBatch(address[],uint256[])": {
        "details": "See {IERC1155-balanceOfBatch}. Requirements: - `accounts` and `ids` must have the same length."
      },
      "exists(uint256)": {
        "details": "Indicates whether any token exist with a given id, or not."
      },
      "isApprovedForAll(address,address)": {
        "details": "See {IERC1155-isApprovedForAll}."
      },
      "owner()": {
        "details": "Returns the address of the current owner."
      },
      "renounceOwnership()": {
        "details": "Leaves the contract without owner. It will not be possible to call `onlyOwner` functions. Can only be called by the current owner. NOTE: Renouncing ownership will leave the contract without an owner, thereby disabling any functionality that is only available to the owner."
      },
      "safeBatchTransferFrom(address,address,uint256[],uint256[],bytes)": {
        "details": "See {IERC1155-safeBatchTransferFrom}."
      },
      "safeTransferFrom(address,address,uint256,uint256,bytes)": {
        "details": "See {IERC1155-safeTransferFrom}."
      },
      "setApprovalForAll(address,bool)": {
        "details": "See {IERC1155-setApprovalForAll}."
      },
      "supportsInterface(bytes4)": {
        "details": "See {IERC165-supportsInterface}."
      },
      "totalSupply(uint256)": {
        "details": "Total amount of tokens in with a given id."
      },
      "transferOwnership(address)": {
        "details": "Transfers ownership of the contract to a new account (`newOwner`). Can only be called by the current owner."
      }
    },
    "version": 1
  },
  "userdoc": {
    "kind": "user",
    "methods": {},
    "version": 1
  }
}